:020000040800F2
:1000000000C00020B5550008C1530008C3530008C4
:10001000C5530008C7530008C9530008000000007A
:10002000000000000000000000000000CB530008AA
:10003000CD53000800000000CF530008D153000842
:10004000FD550008FD550008FD550008FD55000848
:10005000FD550008FD550008FD550008FD55000838
:10006000FD550008FD550008FD550008FD55000828
:10007000FD550008FD550008FD550008FD55000818
:10008000FD550008FD550008D5530008FD55000832
:10009000FD550008FD550008FD550008FD550008F8
:1000A000FD550008FD550008FD550008FD550008E8
:1000B000FD550008E1530008FD550008FD550008F6
:1000C000FD550008FD550008FD550008FD550008C8
:1000D000FD550008FD550008FD550008FD550008B8
:1000E000FD550008FD550008FD550008FD550008A8
:1000F000FD550008FD550008FD550008FD55000898
:10010000FD550008FD550008FD550008FD55000887
:10011000FD550008FD550008FD550008FD55000877
:10012000FD550008FD550008FD550008FD55000867
:1001300000000000000000000000000000000000BF
:1001400000000000000000000000000000000000AF
:10015000000000000000000000000000000000009F
:10016000000000000000000000000000000000008F
:10017000000000000000000000000000000000007F
:10018000000000000000000000000000000000006F
:10019000000000000000000000000000000000005F
:1001A000000000000000000000000000000000004F
:1001B000000000000000000000000000000000003F
:1001C000000000000000000000000000000000002F
:1001D000000000000000000000000000000000001F
:0401E0005FF8E0F1F3
:1001E80010B5054C237833B9044B13B10448AFF369
:1001F80000800123237010BDE003002000000000F0
:100208006C98000808B5034B1BB103490348AFF3CA
:10021800008008BD00000000E40300206C9800087E
:10022800034613F8012B002AFBD1181A013870472E
:1002380081F0004102E000BF83F0004330B54FEA8F
:1002480041044FEA430594EA050F08BF90EA020FFC
:100258001FBF54EA000C55EA020C7FEA645C7FEA8F
:10026800655C00F0E2804FEA5454D4EB5555B8BFB2
:100278006D420CDD2C4480EA020281EA030382EA23
:10028800000083EA010180EA020281EA0303362DB5
:1002980088BF30BD11F0004F4FEA01314FF4801C88
:1002A8004CEA113102D0404261EB410113F0004F9A
:1002B8004FEA03334CEA133302D0524263EB430351
:1002C80094EA050F00F0A780A4F10104D5F1200EEF
:1002D8000DDB02FA0EFC22FA05F2801841F100014A
:1002E80003FA0EF2801843FA05F359410EE0A5F11E
:1002F80020050EF1200E012A03FA0EFC28BF4CF04F
:10030800020C43FA05F3C01851EBE37101F0004504
:1003180007D54FF0000EDCF1000C7EEB00006EEB11
:100328000101B1F5801F1BD3B1F5001F0CD349089B
:100338005FEA30004FEA3C0C04F101044FEA4452F2
:1003480012F5800F80F09A80BCF1004F08BF5FEA79
:10035800500C50F1000041EB045141EA050130BD59
:100368005FEA4C0C404141EB0101013C28BFB1F56B
:10037800801FE9D291F0000F04BF01460020B1FAB6
:1003880081F308BF2033A3F10B03B3F120020CDA89
:100398000C3208DD02F1140CC2F10C0201FA0CF067
:1003A80021FA02F10CE002F11402D8BFC2F1200CCC
:1003B80001FA02F120FA0CFCDCBF41EA0C01904082
:1003C800E41AA2BF01EB0451294330BD6FEA0404CB
:1003D8001F3C1CDA0C340EDC04F11404C4F12002B6
:1003E80020FA04F001FA02F340EA030021FA04F3C8
:1003F80045EA030130BDC4F10C04C4F1200220FA1F
:1004080002F001FA04F340EA0300294630BD21FA5C
:1004180004F0294630BD94F0000F83F4801306BF22
:1004280081F480110134013D4EE77FEA645C18BF16
:100438007FEA655C29D094EA050F08BF90EA020FAD
:1004480005D054EA000C04BF1946104630BD91EAA5
:10045800030F1EBF0021002030BD5FEA545C05D1A8
:100468004000494128BF41F0004130BD14F58004E7
:100478003CBF01F5801130BD01F0004545F0FE415B
:1004880041F470014FF0000030BD7FEA645C1ABF90
:10049800194610467FEA655C1CBF0B46024650EAC7
:1004A800013406BF52EA033591EA030F41F40021F3
:1004B80030BD00BF90F0000F04BF0021704730B579
:1004C8004FF4806404F132044FF000054FF000014E
:1004D80050E700BF90F0000F04BF0021704730B50F
:1004E8004FF4806404F1320410F0004548BF4042E4
:1004F8004FF000013EE700BF42004FEAE2014FEA39
:1005080031014FEA02701FBF12F07F4393F07F4F13
:1005180081F06051704732F07F4208BF704793F016
:100528007F4F04BF41F40021704730B54FF4607429
:1005380001F0004521F000411CE700BF50EA01022C
:1005480008BF704730B54FF000050AE050EA0102D5
:1005580008BF704730B511F0004502D5404261EB45
:1005680041014FF4806404F132045FEA915C3FF486
:10057800D8AE4FF003025FEADC0C18BF03325FEA23
:10058800DC0C18BF033202EBDC02C2F1200300FAD4
:1005980003FC20FA02F001FA03FE40EA0E0021FAF9
:1005A80002F11444BDE600BF70B54FF0FF0C4CF4E7
:1005B800E06C1CEA11541DBF1CEA135594EA0C0F99
:1005C80095EA0C0F00F0DEF82C4481EA030621EAD4
:1005D8004C5123EA4C5350EA013518BF52EA03350F
:1005E80041F4801143F4801338D0A0FB02CE4FF0C1
:1005F8000005E1FB02E506F00042E0FB03E54FF0F1
:100608000006E1FB03569CF0000F18BF4EF0010EE8
:10061800A4F1FF04B6F5007F64F5407404D25FEAE4
:100628004E0E6D4146EB060642EAC62141EA555197
:100638004FEAC52040EA5E504FEACE2EB4F1FD0CD9
:1006480088BFBCF5E06F1ED8BEF1004F08BF5FEA57
:10065800500E50F1000041EB045170BD06F0004609
:1006680046EA010140EA020081EA0301B4EB5C04B6
:10067800C2BFD4EB0C0541EA045170BD41F48011AE
:100688004FF0000E013C00F3AB8014F1360FDEBFD3
:10069800002001F0004170BDC4F10004203C35DAAF
:1006A8000C341BDC04F11404C4F1200500FA05F332
:1006B80020FA04F001FA05F240EA020001F00042D3
:1006C80021F0004110EBD37021FA04F642EB060149
:1006D8005EEA430E08BF20EAD37070BDC4F10C0473
:1006E800C4F1200500FA04F320FA05F001FA04F237
:1006F80040EA020001F0004110EBD37041F1000123
:100708005EEA430E08BF20EAD37070BDC4F120052D
:1007180000FA05F24EEA020E20FA04F301FA05F295
:1007280043EA020321FA04F001F0004121FA04F23D
:1007380020EA020000EBD3705EEA430E08BF20EA0D
:10074800D37070BD94F0000F0FD101F00046400047
:1007580041EB010111F4801F08BF013CF7D041EAC9
:10076800060195F0000F18BF704703F000465200CD
:1007780043EB030313F4801F08BF013DF7D043EA9E
:100788000603704794EA0C0F0CEA135518BF95EA54
:100798000C0F0CD050EA410618BF52EA4306D1D1DB
:1007A80081EA030101F000414FF0000070BD50EAFA
:1007B800410606BF1046194652EA430619D094EA84
:1007C8000C0F02D150EA013613D195EA0C0F05D16E
:1007D80052EA03361CBF104619460AD181EA0301C2
:1007E80001F0004141F0FE4141F470014FF000007A
:1007F80070BD41F0FE4141F4780170BD70B54FF015
:10080800FF0C4CF4E06C1CEA11541DBF1CEA135594
:1008180094EA0C0F95EA0C0F00F0A7F8A4EB050476
:1008280081EA030E52EA03354FEA013100F088806D
:100838004FEA03334FF0805545EA131343EA126336
:100848004FEA022245EA111545EA10654FEA0026EB
:100858000EF000419D4208BF964244F1FD0404F5A4
:10086800407402D25B084FEA3202B61A65EB030500
:100878005B084FEA32024FF480104FF4002CB6EBBD
:10088800020E75EB030E22BFB61A754640EA0C003D
:100898005B084FEA3202B6EB020E75EB030E22BF7D
:1008A800B61A754640EA5C005B084FEA3202B6EBBE
:1008B800020E75EB030E22BFB61A754640EA9C007D
:1008C8005B084FEA3202B6EB020E75EB030E22BF4D
:1008D800B61A754640EADC0055EA060E18D04FEA0B
:1008E800051545EA16754FEA06164FEAC30343EAAB
:1008F80052734FEAC2025FEA1C1CC0D111F4801F78
:100908000BD141EA00014FF000004FF0004CB6E770
:1009180011F4801F04BF01430020B4F1FD0C88BF0F
:10092800BCF5E06F3FF6AFAEB5EB030C04BFB6EB1A
:10093800020C5FEA500C50F1000041EB045170BD0D
:100948000EF0004E4EEA113114EB5C04C2BFD4EB3A
:100958000C0541EA045170BD41F480114FF0000EBE
:10096800013C90E645EA060E8DE60CEA135594EA3A
:100978000C0F08BF95EA0C0F3FF43BAF94EA0C0F3D
:100988000AD150EA01347FF434AF95EA0C0F7FF4B2
:1009980025AF104619462CE795EA0C0F06D152EA06
:1009A80003353FF4FDAE1046194622E750EA4106EA
:1009B80018BF52EA43067FF4C5AE50EA41047FF4FB
:1009C8000DAF52EA43057FF4EBAE12E74FF0FF3C60
:1009D80006E000BF4FF0010C02E000BF4FF0010C31
:1009E8004DF804CD4FEA410C7FEA6C5C4FEA430CAA
:1009F80018BF7FEA6C5C1BD001B050EA410C0CBFF9
:100A080052EA430C91EA030F02BF90EA020F00205A
:100A1800704710F1000F91EA030F58BF994208BFC1
:100A280090422CBFD8176FEAE37040F0010070477E
:100A38004FEA410C7FEA6C5C02D150EA013C07D1D5
:100A48004FEA430C7FEA6C5CD6D152EA033CD3D020
:100A58005DF8040B704700BF8446104662468C461A
:100A68001946634600E000BF01B5FFF7B7FF00284D
:100A780048BF10F1000F01BD4DF808EDFFF7F4FF76
:100A88000CBF012000205DF808FB00BF4DF808ED01
:100A9800FFF7EAFF34BF012000205DF808FB00BF24
:100AA8004DF808EDFFF7E0FF94BF012000205DF846
:100AB80008FB00BF4DF808EDFFF7CEFF94BF0120FB
:100AC80000205DF808FB00BF4DF808EDFFF7C4FFF4
:100AD80034BF012000205DF808FB00BF4FEA410C3D
:100AE8007FEA6C5C02D150EA013C0AD14FEA430C20
:100AF8007FEA6C5C02D152EA033C02D14FF000005D
:100B080070474FF0010070474FEA410212F500129A
:100B180015D211D56FF47873B3EB625212D94FEA3C
:100B2800C12343F0004343EA505311F0004F23FA26
:100B380002F018BF404270474FF00000704750EA7B
:100B4800013005D111F0004008BF6FF00040704738
:100B58004FF00000704700BF4A0011D212F5001292
:100B680011D20DD56FF47873B3EB62520ED44FEAFD
:100B7800C12343F0004343EA505323FA02F070477D
:100B88004FF00000704750EA013002D14FF0FF30BB
:100B980070474FF0000070474FF48072054B0649CC
:100BA8005A614FF400725A61C86080215961196115
:100BB8001A61704700100140000C014038B54FF031
:100BC8008833134C4FF48072236063600023114D07
:100BD800E3602A614FF400726A6140226A610E4A3A
:100BE800918848F68912914202D1012004F04CFD07
:100BF8004023A0682B614FF400732B614FF033330F
:100C0800236063604FF6FF7380B2E36038BD00BFB6
:100C1800000C0140001001400C04002010B50C46E7
:100C2800FFF7BAFF4FF48072054B06491A614FF47B
:100C380000725A61CC608021596119611A6110BD36
:100C480000100140000C014008B5FFF7A5FFBDE802
:100C58000840FFF7B3BF0000014B1889FFF79CBF9E
:100C68000C0400204FF48072054B06491A614FF4BA
:100C780000725A61C8608021596119611A61704710
:100C880000100140000C014049F241322DE9F84FB3
:100C9800DFF898920546B9F804300E4693424F465D
:100CA800B9F80A0003D045F21032934243D14FF409
:100CB80000784FF080094FF4807B9A4CDFF868A2E7
:100CC800FFF76AFF2B0AEDB2C4F810B0B889C4F870
:100CD8001480CAF80C30C4F81490C4F81090C4F802
:100CE8001080C4F810B0C4F81480CAF80C50C4F8C6
:100CF8001490C4F81090C4F81080FFF74DFF330A21
:100D0800F6B2C4F810B0C4F81480CAF80C30C4F8AD
:100D18001490C4F81090C4F81080C4F810B0C4F847
:100D28001480CAF80C60C4F81490C4F81090C4F881
:100D38001080BDE8F88F46F6040293420AD199F86C
:100D48000630012B01BFB9F8003003F1FF335D1BFA
:100D5800ADB2ACE741F66312934240F0828099F855
:100D68000680704CB8F1000F52D1B9F80030013B41
:100D78005D1BFFF711FF4FF4007380224FF4807062
:100D88006949ADB24FEA152CEDB220616361C1F833
:100D98000C8062612261236120616361C1F80C806B
:100DA80062612261236120616361C1F80CC06261E4
:100DB8002261236120616361CD606261B88922612B
:100DC8002361FFF7E9FE4FF480754FF4007356482E
:100DD800320A25616361C26080227988F6B20139DE
:100DE80062612261236125616361C6600E12C9B226
:100DF80062612261236125616361C660626122616B
:100E0800236125616361C16062612261236190E7AA
:100E1800FFF7C2FE4FF400734FF4807C42482A0A61
:100E2800C4F810C06361C2608022B9F80010EDB246
:100E38000139626122612361C4F810C06361C56031
:100E48000D12C9B2626122612361C4F810C06361E6
:100E5800C560626122612361C4F810C06361C1602A
:100E6800ABE745F21052934247D14FF400774FF069
:100E780080084FF4807BFFF78FFEB9F80A00294CF1
:100E8800DFF8A4A02B0A0130C4F810B080B2676163
:100E9800EDB2CAF80C30C4F81480C4F81080276189
:100EA800FFF77AFEC4F810B0B9F80C006761CAF809
:100EB8000C50C4F81480C4F810802761FFF76CFE4A
:100EC800B9F80C00330A0130C4F810B080B2676179
:100ED800F6B2CAF80C30C4F81480C4F81080276140
:100EE800FFF75AFEC4F810B06761CAF80C60C4F87E
:100EF8001480C4F8108027611BE799F80630012B8D
:100F080001BFB9F8003003F1FF335D1BADB22946CC
:100F1800FFF784FE3146B9F80C00BDE8F84FFFF73B
:100F28007DBE00BF00100140000C01400C040020F1
:100F38002DE9F0479E4D41F66312A979AB88012946
:100F480026D146F604018B4201D0934223D10138C1
:100F5800C0B2062896BF974A0026165C45F2105282
:100F6800934240F011814FF458503146FFF756FE36
:100F780041F66313A988904C994200F0B380B006FB
:100F88002B886A882DD59A422DD92A806B802AE031
:100F980029B9934203D107289CBF884A105C49F2BB
:100FA80041329342D3D046F604029342CFD045F261
:100FB80010329342CBD045F210529342C7D041F63B
:100FC80063129342C3D0BDE8F04707288EBF0021C3
:100FD8007B4B195C032041F48051FFF71FBE164676
:100FE800E3E09A42D1D345F2105399427AD14FF4B3
:100FF800007680274FF480794FF0000A6889FFF760
:10100800CBFD6889DFF8BC810130C4F8109080B24C
:101018006661C8F80CA0676127612661FFF7BCFD0F
:101028006889C4F810900230666180B2C8F80CA0D4
:10103800676127612661FFF7AFFD2B886889013B4F
:101048001B120330C4F8109080B26661C8F80C30E7
:10105800676127612661FFF79FFD2B88C4F8109010
:10106800013BDBB26661A889C8F80C30676127616B
:101078002661FFF791FDA889C4F8109001306661D8
:1010880080B2C8F80CA0676127612661FFF784FD6C
:10109800A889C4F810900230666180B2C8F80CA024
:1010A800676127612661FFF777FD6B88A889013B97
:1010B8001B120330C4F8109080B26661C8F80C3077
:1010C800676127612661FFF767FD6B88C4F8109098
:1010D800013B6661DBB2C8F80C30676127612661A5
:1010E800BDE8F0874FF4007680274FF480794FF001
:1010F800000A6889FFF750FD2B88DFF8C880013B9C
:101108001A12DBB2C4F81090A8896661C8F80CA05E
:10111800676127612661C4F810906661C8F80CA061
:10112800676127612661C4F810906661C8F80C20D1
:10113800676127612661C4F810906661C8F80C30B1
:10114800676127612661FFF727FD6B88C4F8109057
:10115800013B1A126661C8F80CA067612761266115
:10116800C4F810906661C8F80CA067612761266111
:10117800C4F810906661C8F80C2067612761266181
:10118800C4F810906661A5E745F2103293420CD07E
:1011980041F66312934208D046F604018B4246F0AA
:1011A80008027FF41CAF46F00A063620DDE600BFD1
:1011B8000C0400209098000800100140889800084E
:1011C80097980008000C01402DE9F74F019249F269
:1011D8004132B04F0546BB880E4693427889AE4CE3
:1011E80003D045F2103293423FD14FF400784FF0CC
:1011F800800A4FF48079DFF8A4B2FFF7CDFC2A0A01
:10120800EDB2C4F81090B889C4F81480CBF80C205B
:10121800C4F814A0C4F810A0C4F81080C4F8109042
:10122800C4F81480CBF80C50C4F814A0C4F810A06B
:10123800C4F81080FFF7B0FC320AC4F81090C4F864
:101248001480CBF80C20C4F814A0C4F810A0C4F87B
:101258001080C4F81090F6B2C4F81480CBF80C6073
:10126800C4F814A0C4F810A04CE045F21052934200
:1012780061D14FF080094FF400784FF4807BFFF77D
:101288008BFC7889DFF814A22B0A0130C4F810B05F
:1012980080B2C4F81480EDB2CAF80C30C4F81490C7
:1012A800C4F81090C4F81080FFF776FCC4F810B0AA
:1012B800B889C4F81480CAF80C50C4F81490C4F85B
:1012C8001090C4F81080FFF767FCB889320A013023
:1012D800C4F810B080B2C4F81480F6B2CAF80C2072
:1012E800C4F81490C4F81090C4F81080FFF754FCA8
:1012F800C4F810B0C4F81480CAF80C60C4F814908C
:10130800C4F81090C4F810804FF400734FF4807044
:101318003A89624960616361CA60802262612261C0
:101328002361206101986361C86062612261236161
:1013380003B0BDE8F08F41F663118B42BA7958D1FA
:101348001AB93B88013B5D1BADB2FFF725FC4FF492
:10135800807A4FF400738021DFF840812A0AEDB2C9
:10136800C4F810A0B8896361C8F80C2061612161D4
:101378002361C4F810A06361C8F80C506161216151
:101388002361C4F810A06361C8F80C206161216171
:101398002361C4F810A06361C8F80C506161216131
:1013A8002361FFF7F9FB4FF400738021320AF6B28C
:1013B800C4F810A06361C8F80C2061612161236141
:1013C800C4F810A06361C8F80C60616121612361F1
:1013D800C4F810A06361C8F80C2061612161236121
:1013E800C4F810A06361C8F80C60616121612361D1
:1013F8008AE746F604018B423DD1012A08BF3B88A3
:101408004FF4007804BF03F1FF335D1B4FF0800AEF
:1014180008BFADB2FFF7C0FB4FF48073DFF87CB0B4
:101428002A0AEDB22361B889C4F81480CBF80C20DD
:10143800C4F814A0C4F810A0C4F810802361C4F83C
:101448001480CBF80C50C4F814A0C4F810A0C4F849
:101458001080FFF7A1FB4FF48073320A2361C4F8B0
:101468001480CBF80C20C4F814A0C4F810A0C4F859
:1014780010802361EFE6012A01BF3B8803F1FF33A7
:101488005D1BADB22946FFF7C9FB3146B889FFF7A6
:10149800C5FB39E70C04002000100140000C014096
:1014A8002DE9F8438146BE20FFF776FB4FF400751F
:1014B80080264FF4807805231F4C204FC4F81080F5
:1014C80048466561FB60666126612561C4F8108045
:1014D8006561FEF7FFFF16A3D3E90023FFF764F861
:1014E800FFF73AFB0123F860666126612561C4F8BD
:1014F80010806561FB60FF23666126612561C4F881
:1015080010806561FB600023666126612561C4F86F
:1015180010806561FB60666126612561C4F81080F2
:101528006561FB60666126612561BDE8F88300BFDF
:10153800666666666666044000100140000C01405D
:10154800524B10B41A464FF4A074998800284CD115
:101558009871F020188049F2413081425C8007D0B0
:1015680046F60400814203D045F21030814214D17E
:101578002C2313812A2353812B23938146F60403BA
:10158800994203D045F21033994219D14FF4A07310
:1015980013804FF4F073538012E045F210529142D9
:1015A80012D14FF430521A814FF428525A814FF415
:1015B8002C529A814FF4F0721A804FF448725A8074
:1015C800002010BCFFF7B4BC41F66312914205D16C
:1015D8002C221A812B225A812A22EAE722221A81F6
:1015E80020225A8121229A81EAE701209871F0206D
:1015F800588049F2413081421C8003D045F21030B6
:1016080081420FD12C2313812A2353812B239381C9
:1016180046F60403994233D14FF4F07313804FF424
:10162800A073B8E746F60400814206D12C23138143
:101638002B2353812A239381EEE745F210529142DE
:101648000ED14FF430521A814FF428525A814FF478
:101658002C529A814FF448721A804FF4F072AEE718
:1016680041F66312914205D12C221A812A225A810D
:101678002B22EEE722221A8121225A812022B2E768
:1016880045F210339942C7D09AE700BF0C040020F6
:101698002DE9F8431C4C064663882588A2885D43DB
:1016A80046F604039A424FF0000121D194F80690BF
:1016B800B9F1010F1CD12A274FF02B080846A17158
:1016C8006781A4F80C80FFF7DFFA84F80690A4F885
:1016D8000A80A781FFF7C0FA4FF4807400224FF404
:1016E80000718020094B0A4FAA4205D1BDE8F88352
:1016F8000846FFF7C9FAEDE71C6101325961FE603F
:10170800586118611961EFE70C04002000100140CE
:10171800000C0140504B2DE9F04F9A6987B042F018
:1017280008029A619A69012402F008020092009A5C
:101738009A694A4842F010029A619B6902A903F02B
:1017480010030193019B4FF4F863CDE9023403239E
:101758000494059304F02EFB4FF6FF7302A940484A
:10176800029304F027FB322003F08EFF214600206D
:10177800FFF754FA322003F087FF0020FFF764FADE
:10178800A0F1FF03374C9BB2B3F57F4FA08002D284
:10179800B0F5134F7FD1D320FFF7FEF9FFF70EFA0C
:1017A800FFF70CFAFFF70AFA0002A080FFF706FA23
:1017B800A388184349F2413380B29842A0806AD086
:1017C800BF20FFF7E9F9FFF7F9F9FFF7F7F9FFF796
:1017D800F5F9FFF7F3F90002A080FFF7EFF9A38806
:1017E800184346F6040380B29842A08053D0D42010
:1017F800FFF7D2F9FFF7E2F9FFF7E0F9FFF7DEF9B3
:101808000002A080FFF7DAF9A388184345F21033E5
:1018180080B29842A0803ED04FF45A40FFF7BCF9FE
:10182800FFF7CCF94FF45B40FFF7B6F9FFF7C6F9BD
:101838000002A0804FF45C40FFF7AEF9FFF7BEF955
:10184800A388184380B2B0F5004F45F21053A0802A
:101858000AD1A3801FE000BF001002400010014021
:10186800000C01400C040020984214D0A120FFF77E
:1018780093F9FFF7A3F9A080FFF7A0F90002A08071
:10188800FFF79CF9A388184345F2617380B2984228
:1018980000F02881A08049F24132A388934240F0A9
:1018A8002481CF20FFF778F90020FFF7DBF9C1206A
:1018B800FFF7D8F93020FFF7D5F9ED20FFF76CF9DD
:1018C8006420FFF7CFF90320FFF7CCF91220FFF7C8
:1018D800C9F98120FFF7C6F9E820FFF75DF98520EF
:1018E800FFF7C0F91020FFF7BDF97A20FFF7BAF922
:1018F800CB20FFF751F93920FFF7B4F92C20FFF777
:10190800B1F90020FFF7AEF93420FFF7ABF9022058
:10191800FFF7A8F9F720FFF73FF92020FFF7A2F912
:10192800EA20FFF739F90020FFF79CF90020FFF7BC
:1019380099F9C020FFF730F91B20FFF793F9C12070
:10194800FFF72AF90120FFF78DF9C520FFF724F9E1
:101958003020FFF787F93020FFF784F9C720FFF719
:101968001BF9B720FFF77EF93620FFF715F9482055
:10197800FFF778F93A20FFF70FF95520FFF772F9CA
:10198800B120FFF709F90020FFF76CF91A20FFF7DB
:1019980069F9B620FFF700F90A20FFF763F9A220DA
:1019A800FFF760F9F220FFF7F7F80020FFF75AF980
:1019B8002620FFF7F1F80120FFF754F9E020FFF7A0
:1019C800EBF80F20FFF74EF92A20FFF74BF92820F4
:1019D800FFF748F90820FFF745F90E20FFF742F90D
:1019E8000820FFF73FF95420FFF73CF9A920FFF73B
:1019F80039F94320FFF736F90A20FFF733F90F20AA
:101A0800FFF730F90020FFF72DF90020FFF72AF93A
:101A18000020FFF727F90020FFF724F9E120FFF75E
:101A2800BBF80020FFF71EF91520FFF71BF9172058
:101A3800FFF718F90720FFF715F91120FFF712F93A
:101A48000620FFF70FF92B20FFF70CF95620FFF7B8
:101A580009F93C20FFF706F90520FFF703F91020E4
:101A6800FFF700F90F20FFF7FDF83F20FFF7FAF81E
:101A78003F20FFF7F7F80F20FFF7F4F82B20FFF7C8
:101A88008BF80020FFF7EEF80020FFF7EBF80120B5
:101A9800FFF7E8F83F20FFF7E5F82A20FFF77CF882
:101AA8000020FFF7DFF80020FFF7DCF80020FFF741
:101AB800D9F8EF20FFF7D6F81120FFF76DF8782056
:101AC80003F0E2FD2920FFF767F80020FFF738FD53
:101AD80001225A4B4FF6FF701A60FFF7D9FD07B085
:101AE800BDE8F08F41F66313B3E646F6040293426D
:101AF80040F0A6801120FFF74FF8142003F0C4FD32
:101B0800D020FFF749F80720FFF7ACF84220FFF78D
:101B1800A9F81D20FFF7A6F8D120FFF73DF800200F
:101B2800FFF7A0F81A20FFF79DF80920FFF79AF8A9
:101B3800D220FFF731F80120FFF794F82220FFF7B1
:101B480091F8C020FFF728F81020FFF78BF83B200A
:101B5800FFF788F80020FFF785F80220FFF782F8E2
:101B68001120FFF77FF8C520FFF716F80320FFF7CD
:101B780079F8C820FFF710F80020FFF773F8252040
:101B8800FFF770F82120FFF76DF80520FFF76AF8D6
:101B98000020FFF767F80A20FFF764F86520FFF7D1
:101BA80061F82520FFF75EF87720FFF75BF85020F3
:101BB800FFF758F80F20FFF755F80020FFF752F805
:101BC800F820FEF7E9FF0120FFF74CF8FE20FEF7AA
:101BD800E3FF0020FFF746F80220FFF743F8202034
:101BE800FEF7DAFF3620FEF7D7FF0820FFF73AF8AE
:101BF8003A20FEF7D1FF5520FFF734F82B20FEF7E7
:101C0800CBFF0020FFF72EF80020FFF72BF801206C
:101C1800FFF728F83F20FFF725F82A20FEF7BCFF3A
:101C28000020FFF71FF80020FFF71CF80120FFF73E
:101C380019F8DF20FFF716F841E700BFA801224294
:101C480045F21032934240F07787ED20FEF7A4FF6B
:101C58000120FFF707F8FE20FFF704F8EE20FEF753
:101C68009BFFDE20FEF7FEFF2120FEF7FBFFF120A1
:101C7800FEF792FF0120FEF7F5FFDF20FEF78CFF4D
:101C88001020FEF7EFFFC420FEF786FF8F20FEF737
:101C9800E9FFC620FEF780FF0020FEF7E3FFE22001
:101CA800FEF7E0FFE220FEF7DDFFE220FEF7DAFFB5
:101CB800BF20FEF771FFAA20FEF7D4FFB020FEF781
:101CC8006BFF0D20FEF7CEFF0020FEF7CBFF0D20A7
:101CD800FEF7C8FF0020FEF7C5FF1120FEF7C2FF80
:101CE8000020FEF7BFFF1920FEF7BCFF0020FEF71B
:101CF800B9FF2120FEF7B6FF0020FEF7B3FF2D2025
:101D0800FEF7B0FF0020FEF7ADFF3D20FEF7AAFF6B
:101D18000020FEF7A7FF5D20FEF7A4FF0020FEF7D6
:101D2800A1FF5D20FEF79EFF0020FEF79BFFB1207C
:101D3800FEF732FF8020FEF795FF0020FEF792FFA6
:101D48008B20FEF78FFF0020FEF78CFF9620FEF712
:101D580089FF0020FEF786FFB220FEF71DFF002056
:101D6800FEF780FF0020FEF77DFF0220FEF77AFFD6
:101D78000020FEF777FF0320FEF774FF0020FEF730
:101D880071FFB320FEF708FF0020FEF76BFF00206D
:101D9800FEF768FF0020FEF765FF0020FEF762FFF0
:101DA8000020FEF75FFF0020FEF75CFF0020FEF733
:101DB80059FF0020FEF756FF0020FEF753FF0020D2
:101DC800FEF750FF0020FEF74DFF0020FEF74AFF08
:101DD8000020FEF747FF0020FEF744FF0020FEF733
:101DE80041FF0020FEF73EFF0020FEF73BFF0020EA
:101DF800FEF738FF0020FEF735FF0020FEF732FF20
:101E08000020FEF72FFF0020FEF72CFF0020FEF732
:101E180029FF0020FEF726FFB420FEF7BDFE8B2029
:101E2800FEF720FF0020FEF71DFF9620FEF71AFFA1
:101E38000020FEF717FFA120FEF714FF0020FEF791
:101E480011FFB520FEF7A8FE0220FEF70BFF0020C9
:101E5800FEF708FF0320FEF705FF0020FEF702FF4C
:101E68000420FEF7FFFE0020FEF7FCFEB620FEF77A
:101E780093FE0020FEF7F6FE0020FEF7F3FEB720E3
:101E8800FEF78AFE0020FEF7EDFE0020FEF7EAFED0
:101E98003F20FEF7E7FE0020FEF7E4FE5E20FEF797
:101EA800E1FE0020FEF7DEFE6420FEF7DBFE0020E8
:101EB800FEF7D8FE8C20FEF7D5FE0020FEF7D2FEF6
:101EC800AC20FEF7CFFE0020FEF7CCFEDC20FEF7AC
:101ED800C9FE0020FEF7C6FE7020FEF7C3FE0020F4
:101EE800FEF7C0FE9020FEF7BDFE0020FEF7BAFE0A
:101EF800EB20FEF7B7FE0020FEF7B4FEDC20FEF76D
:101F0800B1FE0020FEF7AEFEB820FEF745FE002029
:101F1800FEF7A8FE0020FEF7A5FE0020FEF7A2FEB1
:101F28000020FEF79FFE0020FEF79CFE0020FEF733
:101F380099FE0020FEF796FE0020FEF793FEBA20D9
:101F4800FEF72AFE2420FEF78DFE0020FEF78AFE0B
:101F58000020FEF787FE0020FEF784FEC120FEF772
:101F68001BFE2020FEF77EFE0020FEF77BFE54209D
:101F7800FEF778FE0020FEF775FEFF20FEF772FEE2
:101F88000020FEF76FFEC220FEF706FE0A20FEF7CD
:101F980069FE0020FEF766FE0420FEF763FE0020BF
:101FA800FEF760FEC320FEF7F7FD3C20FEF75AFE61
:101FB8000020FEF757FE3A20FEF754FE0020FEF7F9
:101FC80051FE3920FEF74EFE0020FEF74BFE37206B
:101FD800FEF748FE0020FEF745FE3C20FEF742FED5
:101FE8000020FEF73FFE3620FEF73CFE0020FEF7FD
:101FF80039FE3220FEF736FE0020FEF733FE2F2092
:10200800FEF730FE0020FEF72DFE2C20FEF72AFEFC
:102018000020FEF727FE2920FEF724FE0020FEF709
:1020280021FE2620FEF71EFE0020FEF71BFE2420C0
:10203800FEF718FE0020FEF715FE2420FEF712FE1C
:102048000020FEF70FFE2320FEF70CFE0020FEF70F
:1020580009FE3C20FEF706FE0020FEF703FE3620B0
:10206800FEF700FE0020FEF7FDFD3220FEF7FAFD28
:102078000020FEF7F7FD2F20FEF7F4FD0020FEF705
:10208800F1FD2C20FEF7EEFD0020FEF7EBFD2920E8
:10209800FEF7E8FD0020FEF7E5FD2620FEF7E2FD4D
:1020A8000020FEF7DFFD2420FEF7DCFD0020FEF710
:1020B800D9FD2420FEF7D6FD0020FEF7D3FD23200E
:1020C800FEF7D0FD0020FEF7CDFDC420FEF764FD2D
:1020D8006220FEF7C7FD0020FEF7C4FD0520FEF7CD
:1020E800C1FD0020FEF7BEFD8420FEF7BBFD0020E9
:1020F800FEF7B8FDF020FEF7B5FD0020FEF7B2FDB3
:102108001820FEF7AFFD0020FEF7ACFDA420FEF777
:10211800A9FD0020FEF7A6FD1820FEF7A3FD00206C
:10212800FEF7A0FD5020FEF79DFD0020FEF79AFD6A
:102138000C20FEF797FD0020FEF794FD1720FEF710
:1021480091FD0020FEF78EFD9520FEF78BFD002007
:10215800FEF788FDF320FEF785FD0020FEF782FDDF
:10216800E620FEF77FFD0020FEF77CFDC520FEF788
:1021780013FD3220FEF776FD0020FEF773FD4420A4
:10218800FEF770FD0020FEF76DFD6520FEF76AFD85
:102198000020FEF767FD7620FEF764FD0020FEF7BD
:1021A80061FD8820FEF75EFD0020FEF75BFDC6207E
:1021B800FEF7F2FC2020FEF755FD0020FEF752FD49
:1021C8001720FEF74FFD0020FEF74CFD0120FEF71B
:1021D80049FD0020FEF746FDC720FEF7DDFC002084
:1021E800FEF740FD0020FEF73DFD0020FEF73AFD1A
:1021F8000020FEF737FDC820FEF7CEFC0020FEF7D2
:1022080031FD0020FEF72EFD0020FEF72BFD0020FB
:10221800FEF728FDC920FEF7BFFC0020FEF722FDCF
:102228000020FEF71FFD0020FEF71CFD0020FEF732
:1022380019FD0020FEF716FD0020FEF713FD002013
:10224800FEF710FD0020FEF70DFD0020FEF70AFD49
:102258000020FEF707FD0020FEF704FD0020FEF732
:1022680001FD0020FEF7FEFC0020FEF7FBFC00202D
:10227800FEF7F8FC0020FEF7F5FCE020FEF78CFCEA
:102288001620FEF7EFFC0020FEF7ECFC1C20FEF702
:10229800E9FC0020FEF7E6FC2120FEF7E3FC002025
:1022A800FEF7E0FC3620FEF7DDFC0020FEF7DAFC46
:1022B8004620FEF7D7FC0020FEF7D4FC5220FEF79C
:1022C800D1FC0020FEF7CEFC6420FEF7CBFC0020FA
:1022D800FEF7C8FC7A20FEF7C5FC0020FEF7C2FC1A
:1022E8008B20FEF7BFFC0020FEF7BCFC9920FEF710
:1022F800B9FC0020FEF7B6FCA820FEF7B3FC0020CE
:10230800FEF7B0FCB920FEF7ADFC0020FEF7AAFCF2
:10231800C420FEF7A7FC0020FEF7A4FCCA20FEF7A5
:10232800A1FC0020FEF79EFCD220FEF79BFC0020BB
:10233800FEF798FCD920FEF795FC0020FEF792FCEA
:10234800E020FEF78FFC0020FEF78CFCF320FEF760
:1023580089FC0020FEF786FCE120FEF71DFC162014
:10236800FEF780FC0020FEF77DFC1C20FEF77AFCBF
:102378000020FEF777FC2220FEF774FC0020FEF711
:1023880071FC3620FEF76EFC0020FEF76BFC452042
:10239800FEF768FC0020FEF765FC5220FEF762FCA1
:1023A8000020FEF75FFC6420FEF75CFC0020FEF7CF
:1023B80059FC7A20FEF756FC0020FEF753FC8B20D0
:1023C800FEF750FC0020FEF74DFC9920FEF74AFC72
:1023D8000020FEF747FCA820FEF744FC0020FEF78B
:1023E80041FCB920FEF73EFC0020FEF73BFCC42070
:1023F800FEF738FC0020FEF735FCCA20FEF732FC59
:102408000020FEF72FFCD220FEF72CFC0020FEF760
:1024180029FCD820FEF726FC0020FEF723FCE0204C
:10242800FEF720FC0020FEF71DFCF320FEF71AFC47
:102438000020FEF717FCE220FEF7AEFB0520FEF7B2
:1024480011FC0020FEF70EFC0B20FEF70BFC002011
:10245800FEF708FC1B20FEF705FC0020FEF702FC37
:102468003420FEF7FFFB0020FEF7FCFB4420FEF7BC
:10247800F9FB0020FEF7F6FB4F20FEF7F3FB0020E8
:10248800FEF7F0FB6120FEF7EDFB0020FEF7EAFB0C
:102498007920FEF7E7FB0020FEF7E4FB8820FEF733
:1024A800E1FB0020FEF7DEFB9720FEF7DBFB0020B8
:1024B800FEF7D8FBA620FEF7D5FB0020FEF7D2FBDF
:1024C800B720FEF7CFFB0020FEF7CCFBC220FEF7BB
:1024D800C9FB0020FEF7C6FBC720FEF7C3FB0020A0
:1024E800FEF7C0FBD120FEF7BDFB0020FEF7BAFBCC
:1024F800D620FEF7B7FB0020FEF7B4FBDD20FEF781
:10250800B1FB0020FEF7AEFBF320FEF7ABFB00208B
:10251800FEF7A8FBE320FEF73FFB0520FEF7A2FB32
:102528000020FEF79FFB0A20FEF79CFB0020FEF729
:1025380099FB1C20FEF796FB0020FEF793FB332047
:10254800FEF790FB0020FEF78DFB4420FEF78AFB88
:102558000020FEF787FB5020FEF784FB0020FEF7E3
:1025680081FB6220FEF77EFB0020FEF77BFB7820D4
:10257800FEF778FB0020FEF775FB8820FEF772FB5C
:102588000020FEF76FFB9720FEF76CFB0020FEF79C
:1025980069FBA620FEF766FB0020FEF763FBB72069
:1025A800FEF760FB0020FEF75DFBC220FEF75AFB3A
:1025B8000020FEF757FBC720FEF754FB0020FEF76C
:1025C80051FBD120FEF74EFB0020FEF74BFBD52038
:1025D800FEF748FB0020FEF745FBDD20FEF742FB37
:1025E8000020FEF73FFBF320FEF73CFB0020FEF740
:1025F80039FBE420FEF7D0FA0120FEF733FB002078
:10260800FEF730FB0120FEF72DFB0020FEF72AFB2A
:102618000220FEF727FB0020FEF724FB2A20FEF706
:1026280021FB0020FEF71EFB3C20FEF71BFB0020D1
:10263800FEF718FB4B20FEF715FB0020FEF712FBF8
:102648005D20FEF70FFB0020FEF70CFB7420FEF761
:1026580009FB0020FEF706FB8420FEF703FB0020A1
:10266800FEF700FB9320FEF7FDFA0020FEF7FAFACA
:10267800A220FEF7F7FA0020FEF7F4FAB320FEF7DF
:10268800F1FA0020FEF7EEFABE20FEF7EBFA002082
:10269800FEF7E8FAC420FEF7E5FA0020FEF7E2FAB2
:1026A800CD20FEF7DFFA0020FEF7DCFAD320FEF794
:1026B800D9FA0020FEF7D6FADD20FEF7D3FA00207B
:1026C800FEF7D0FAF320FEF7CDFA0020FEF7CAFA9B
:1026D800E520FEF761FA0020FEF7C4FA0020FEF7B5
:1026E800C1FA0020FEF7BEFA0020FEF7BBFA02206E
:1026F800FEF7B8FA0020FEF7B5FA2920FEF7B2FA7D
:102708000020FEF7AFFA3C20FEF7ACFA0020FEF7F7
:10271800A9FA4B20FEF7A6FA0020FEF7A3FA5D20DF
:10272800FEF7A0FA0020FEF79DFA7420FEF79AFA49
:102738000020FEF797FA8420FEF794FA0020FEF7AF
:1027480091FA9320FEF78EFA0020FEF78BFAA2206A
:10275800FEF788FA0020FEF785FAB320FEF782FA22
:102768000020FEF77FFABE20FEF77CFA0020FEF775
:1027780079FAC420FEF776FA0020FEF773FACD2026
:10278800FEF770FA0020FEF76DFAD320FEF76AFA1A
:102798000020FEF767FADC20FEF764FA0020FEF757
:1027A80061FAF320FEF75EFA0020FEF75BFAE620F6
:1027B800FEF7F2F91120FEF755FA0020FEF752FA5B
:1027C8003420FEF74FFA0020FEF74CFA5620FEF7A9
:1027D80049FA0020FEF746FA7620FEF743FA002071
:1027E800FEF740FA7720FEF73DFA0020FEF73AFAA6
:1027F8006620FEF737FA0020FEF734FA8820FEF745
:1028080031FA0020FEF72EFA9920FEF72BFA002065
:10281800FEF728FABB20FEF725FA0020FEF722FA79
:102828009920FEF71FFA0020FEF71CFA6620FEF733
:1028380019FA0020FEF716FA5520FEF713FA0020C1
:10284800FEF710FA5520FEF70DFA0020FEF70AFAF7
:102858004520FEF707FA0020FEF704FA4320FEF7AA
:1028680001FA0020FEF7FEF94420FEF7FBF90020EC
:10287800FEF7F8F9E720FEF78FF93220FEF7F2F9B4
:102888000020FEF7EFF95520FEF7ECF90020FEF7DF
:10289800E9F97620FEF7E6F90020FEF7E3F966206D
:1028A800FEF7E0F90020FEF7DDF96720FEF7DAF918
:1028B8000020FEF7D7F96720FEF7D4F90020FEF7CD
:1028C800D1F98720FEF7CEF90020FEF7CBF9992041
:1028D800FEF7C8F90020FEF7C5F9BB20FEF7C2F9DC
:1028E8000020FEF7BFF99920FEF7BCF90020FEF79B
:1028F800B9F97720FEF7B6F90020FEF7B3F94420BE
:10290800FEF7B0F90020FEF7ADF95620FEF7AAF958
:102918000020FEF7A7F92320FEF7A4F90020FEF710
:10292800A1F93320FEF79EF90020FEF79BF9452018
:10293800FEF798F90020FEF795F9E820FEF72CF944
:102948000020FEF78FF90020FEF78CF99920FEF79A
:1029580089F90020FEF786F98720FEF783F9002021
:10296800FEF780F98820FEF77DF90020FEF77AF956
:102978007720FEF777F90020FEF774F96620FEF756
:1029880071F90020FEF76EF98820FEF76BF9002038
:10299800FEF768F9AA20FEF765F90020FEF762F94C
:1029A800BB20FEF75FF90020FEF75CF99920FEF7DF
:1029B80059F90020FEF756F96620FEF753F9002072
:1029C800FEF750F95520FEF74DF90020FEF74AF9B9
:1029D8005520FEF747F90020FEF744F94420FEF79A
:1029E80041F90020FEF73EF94420FEF73BF90020AC
:1029F800FEF738F95520FEF735F90020FEF732F9D1
:102A0800E920FEF7C9F8AA20FEF72CF90020FEF706
:102A180029F90020FEF726F90020FEF723F9002007
:102A2800FEF7BAF8AA20FEF71DF9CF20FEF7B4F892
:102A38000020FEF717F90020FEF714F90020FEF732
:102A480011F90020FEF70EF90020FEF70BF900201F
:102A5800FEF708F90020FEF705F90020FEF702F955
:102A68000020FEF7FFF80020FEF7FCF80020FEF734
:102A7800F9F80020FEF7F6F80020FEF7F3F800203A
:102A8800FEF7F0F80020FEF7EDF80020FEF7EAF870
:102A98000020FEF7E7F8F020FEF77EF80020FEF7AA
:102AA800E1F85020FEF7DEF80020FEF7DBF8002002
:102AB800FEF7D8F80020FEF7D5F8F320FEF76CF8FB
:102AC8000020FEF7CFF8F920FEF766F80620FEF79B
:102AD800C9F81020FEF7C6F82920FEF7C3F8002031
:102AE800FEF7C0F83A20FEF757F85520FEF7BAF877
:102AF8001120FEF751F8642002F0C6FD2920FEF7E8
:102B08004BF83520FEF748F80020FEF7ABF85120C7
:102B1800FEF742F8FF20FEF7A5F85320FEF73CF831
:102B28002C20FEF79FF85520FEF736F88220FEF796
:102B380099F82C20FEF7C7BF45F21052934240F097
:102B48007C8755214FF47040FEF768F8AA214FF2B0
:102B58000100FEF763F852214FF20200FEF75EF81B
:102B680008214FF20300FEF759F801214FF2040043
:102B7800FEF754F80D214FF43040FEF74FF80D21C1
:102B88004BF20100FEF74AF80D214BF20200FEF766
:102B980045F834214FF43640FEF740F834214BF223
:102BA8000160FEF73BF834214BF20260FEF736F87D
:102BB8000D214FF43140FEF731F80D214BF2011091
:102BC800FEF72CF80D214BF20210FEF727F83421FE
:102BD8004FF43740FEF722F834214BF20170FEF72C
:102BE8001DF834214BF20270FEF718F800214FF45B
:102BF8003240FEF713F800214BF20120FEF70EF8E1
:102C080000214BF20220FEF709F824214FF4384046
:102C1800FEF704F824214BF60100FDF7FFFF2421FD
:102C28004BF60200FDF7FAFF01214FF43F40FDF794
:102C3800F5FF0F214FF43340FDF7F0FF0F214BF262
:102C48000130FDF7EBFF0F214BF20230FDF7E6FFF5
:102C580034214FF43940FDF7E1FF34214BF60110E0
:102C6800FDF7DCFF34214BF60210FDF7D7FF0821F2
:102C78004FF43540FDF7D2FF08214BF20150FDF724
:102C8800CDFF08214BF20250FDF7C8FF03214FF496
:102C98004240FDF7C3FF24214FF43A40FDF7BEFF41
:102CA80024214BF60120FDF7B9FF24214BF6022021
:102CB800FDF7B4FF00214FF43C40FDF7AFFF78214A
:102CC8004BF60140FDF7AAFF00214BF60240FDF745
:102CD800A5FF00214FF43D40FDF7A0FF78214BF6FA
:102CE8000150FDF79BFF00214BF60250FDF796FFC0
:102CF80000214FF43E40FDF791FF64214BF601603F
:102D0800FDF78CFF00214FF45140FDF787FF332179
:102D18004DF20110FDF782FF00214DF20210FDF780
:102D28007DFF34214DF20310FDF778FF00214DF2AD
:102D38000410FDF773FF3A214DF20510FDF76EFF01
:102D480000214DF20610FDF769FF4A214DF20710E8
:102D5800FDF764FF00214DF20810FDF75FFF5C21CD
:102D68004DF20910FDF75AFF00214DF20A10FDF748
:102D780055FF81214DF20B10FDF750FF00214DF258
:102D88000C10FDF74BFFA6214DF20D10FDF746FF85
:102D980000214DF20E10FDF741FFE5214DF20F1015
:102DA800FDF73CFF01214DF21010FDF737FF13210D
:102DB8004DF21110FDF732FF01214DF21210FDF70F
:102DC8002DFF54214DF21310FDF728FF01214DF27C
:102DD8001410FDF723FF82214DF21510FDF71EFF99
:102DE80001214DF21610FDF719FFCA214DF21710F7
:102DF800FDF714FF02214DF21810FDF70FFF002117
:102E08004DF21910FDF70AFF02214DF21A10FDF7D5
:102E180005FF01214DF21B10FDF700FF02214DF2C5
:102E28001C10FDF7FBFE34214DF21D10FDF7F6FED8
:102E380002214DF21E10FDF7F1FE67214DF21F1021
:102E4800FDF7ECFE02214DF22010FDF7E7FE84218C
:102E58004DF22110FDF7E2FE02214DF22210FDF79E
:102E6800DDFEA4214DF22310FDF7D8FE02214DF21C
:102E78002410FDF7D3FEB7214DF22510FDF7CEFE45
:102E880002214DF22610FDF7C9FECF214DF2271081
:102E9800FDF7C4FE02214DF22810FDF7BFFEDE212A
:102EA8004DF22910FDF7BAFE02214DF22A10FDF766
:102EB800B5FEF2214DF22B10FDF7B0FE02214DF2C6
:102EC8002C10FDF7ABFEFE214DF22D10FDF7A6FEEE
:102ED80003214DF22E10FDF7A1FE10214DF22F1007
:102EE800FDF79CFE03214DF23010FDF797FE3321CC
:102EF8004DF23110FDF792FE03214DF23210FDF72D
:102F08008DFE6D214DF23310FDF788FE00214FF440
:102F18005240FDF783FE33214DF20120FDF77EFE7E
:102F280000214DF20220FDF779FE34214DF20320F5
:102F3800FDF774FE00214DF20420FDF76FFE3A21E3
:102F48004DF20520FDF76AFE00214DF20620FDF73F
:102F580065FE4A214DF20720FDF760FE00214DF283
:102F68000820FDF75BFE5C214DF20920FDF756FEB7
:102F780000214DF20A20FDF751FE81214DF20B2070
:102F8800FDF74CFE00214DF20C20FDF747FEA6216F
:102F98004DF20D20FDF742FE00214DF20E20FDF707
:102FA8003DFEE5214DF20F20FDF738FE01214DF2DF
:102FB8001020FDF733FE13214DF21120FDF72EFEF0
:102FC80001214DF21220FDF729FE54214DF2132064
:102FD800FDF724FE01214DF21420FDF71FFE82218A
:102FE8004DF21520FDF71AFE01214DF21620FDF7CE
:102FF80015FECA214DF21720FDF710FE02214DF2F1
:103008001820FDF70BFE00214DF21920FDF706FEF2
:1030180002214DF21A20FDF701FE01214DF21B207D
:10302800FDF7FCFD02214DF21C20FDF7F7FD3421D0
:103038004DF21D20FDF7F2FD02214DF21E20FDF795
:10304800EDFD67214DF21F20FDF7E8FD02214DF24D
:103058002020FDF7E3FD84214DF22120FDF7DEFD60
:1030680002214DF22220FDF7D9FDA4214DF22320A3
:10307800FDF7D4FD02214DF22420FDF7CFFDB72145
:103088004DF22520FDF7CAFD02214DF22620FDF75D
:10309800C5FDCF214DF22720FDF7C0FD02214DF2DD
:1030A8002820FDF7BBFDDE214DF22920FDF7B6FDF6
:1030B80002214DF22A20FDF7B1FDF2214DF22B201D
:1030C800FDF7ACFD02214DF22C20FDF7A7FDFE21F6
:1030D8004DF22D20FDF7A2FD03214DF22E20FDF724
:1030E8009DFD10214DF22F20FDF798FD03214DF293
:1030F8003020FDF793FD33214DF23120FDF78EFD91
:1031080003214DF23220FDF789FD6D214DF2332068
:10311800FDF784FD00214FF45340FDF77FFD332177
:103128004DF20130FDF77AFD00214DF20230FDF736
:1031380075FD34214DF20330FDF770FD00214DF28D
:103148000430FDF76BFD3A214DF20530FDF766FDC1
:1031580000214DF20630FDF761FD4A214DF207309E
:10316800FDF75CFD00214DF20830FDF757FD5C21AD
:103178004DF20930FDF752FD00214DF20A30FDF7FE
:103188004DFD81214DF20B30FDF748FD00214DF238
:103198000C30FDF743FDA6214DF20D30FDF73EFD45
:1031A80000214DF20E30FDF739FDE5214DF20F30CB
:1031B800FDF734FD01214DF21030FDF72FFD1321ED
:1031C8004DF21130FDF72AFD01214DF21230FDF7C5
:1031D80025FD54214DF21330FDF720FD01214DF25C
:1031E8001430FDF71BFD82214DF21530FDF716FD59
:1031F80001214DF21630FDF711FDCA214DF21730AD
:10320800FDF70CFD02214DF21830FDF707FD0021F6
:103218004DF21930FDF702FD02214DF21A30FDF78B
:10322800FDFC01214DF21B30FDF7F8FC02214DF2A7
:103238001C30FDF7F3FC34214DF21D30FDF7EEFC98
:1032480002214DF21E30FDF7E9FC67214DF21F30D7
:10325800FDF7E4FC02214DF22030FDF7DFFC84216C
:103268004DF22130FDF7DAFC02214DF22230FDF754
:10327800D5FCA4214DF22330FDF7D0FC02214DF2FC
:103288002430FDF7CBFCB7214DF22530FDF7C6FC05
:1032980002214DF22630FDF7C1FCCF214DF2273037
:1032A800FDF7BCFC02214DF22830FDF7B7FCDE210A
:1032B8004DF22930FDF7B2FC02214DF22A30FDF71C
:1032C800ADFCF2214DF22B30FDF7A8FC02214DF2A6
:1032D8002C30FDF7A3FCFE214DF22D30FDF79EFCAE
:1032E80003214DF22E30FDF799FC10214DF22F30BD
:1032F800FDF794FC03214DF23030FDF78FFC3321AC
:103308004DF23130FDF78AFC03214DF23230FDF7E2
:1033180085FC6D214DF23330FDF780FC00214FF420
:103328005440FDF77BFC33214DF20140FDF776FC5C
:1033380000214DF20240FDF771FC34214DF20340AB
:10334800FDF76CFC00214DF20440FDF767FC3A21C3
:103358004DF20540FDF762FC00214DF20640FDF7F5
:103368005DFC4A214DF20740FDF758FC00214DF263
:103378000840FDF753FC5C214DF20940FDF74EFC77
:1033880000214DF20A40FDF749FC81214DF20B4026
:10339800FDF744FC00214DF20C40FDF73FFCA6214F
:1033A8004DF20D40FDF73AFC00214DF20E40FDF7BD
:1033B80035FCE5214DF20F40FDF730FC01214DF2BF
:1033C8001040FDF72BFC13214DF21140FDF726FCB0
:1033D80001214DF21240FDF721FC54214DF213401A
:1033E800FDF71CFC01214DF21440FDF717FC82216A
:1033F8004DF21540FDF712FC01214DF21640FDF784
:103408000DFCCA214DF21740FDF708FC02214DF2D0
:103418001840FDF703FC00214DF21940FDF7FEFBB3
:1034280002214DF21A40FDF7F9FB01214DF21B4034
:10343800FDF7F4FB02214DF21C40FDF7EFFB3421B0
:103448004DF21D40FDF7EAFB02214DF21E40FDF74B
:10345800E5FB67214DF21F40FDF7E0FB02214DF22D
:103468002040FDF7DBFB84214DF22140FDF7D6FB20
:1034780002214DF22240FDF7D1FBA4214DF2234059
:10348800FDF7CCFB02214DF22440FDF7C7FBB72125
:103498004DF22540FDF7C2FB02214DF22640FDF713
:1034A800BDFBCF214DF22740FDF7B8FB02214DF2BD
:1034B8002840FDF7B3FBDE214DF22940FDF7AEFBB6
:1034C80002214DF22A40FDF7A9FBF2214DF22B40D3
:1034D800FDF7A4FB02214DF22C40FDF79FFBFE21D6
:1034E8004DF22D40FDF79AFB03214DF22E40FDF7DA
:1034F80095FB10214DF22F40FDF790FB03214DF273
:103508003040FDF78BFB33214DF23140FDF786FB50
:1035180003214DF23240FDF781FB6D214DF233401E
:10352800FDF77CFB00214FF45540FDF777FB332175
:103538004DF20150FDF772FB00214DF20250FDF7EC
:103548006DFB34214DF20350FDF768FB00214DF26D
:103558000450FDF763FB3A214DF20550FDF75EFB81
:1035680000214DF20650FDF759FB4A214DF2075054
:10357800FDF754FB00214DF20850FDF74FFB5C218D
:103588004DF20950FDF74AFB00214DF20A50FDF7B4
:1035980045FB81214DF20B50FDF740FB00214DF218
:1035A8000C50FDF73BFBA6214DF20D50FDF736FB05
:1035B80000214DF20E50FDF731FBE5214DF20F5081
:1035C800FDF72CFB01214DF21050FDF727FB1321CD
:1035D8004DF21150FDF722FB01214DF21250FDF77B
:1035E8001DFB54214DF21350FDF718FB01214DF23C
:1035F8001450FDF713FB82214DF21550FDF70EFB19
:1036080001214DF21650FDF709FBCA214DF2175062
:10361800FDF704FB02214DF21850FDF7FFFA0021D7
:103628004DF21950FDF7FAFA02214DF21A50FDF742
:10363800F5FA01214DF21B50FDF7F0FA02214DF287
:103648001C50FDF7EBFA34214DF21D50FDF7E6FA58
:1036580002214DF21E50FDF7E1FA67214DF21F508D
:10366800FDF7DCFA02214DF22050FDF7D7FA84214C
:103678004DF22150FDF7D2FA02214DF22250FDF70A
:10368800CDFAA4214DF22350FDF7C8FA02214DF2DC
:103698002450FDF7C3FAB7214DF22550FDF7BEFAC5
:1036A80002214DF22650FDF7B9FACF214DF22750ED
:1036B800FDF7B4FA02214DF22850FDF7AFFADE21EA
:1036C8004DF22950FDF7AAFA02214DF22A50FDF7D2
:1036D800A5FAF2214DF22B50FDF7A0FA02214DF286
:1036E8002C50FDF79BFAFE214DF22D50FDF796FA6E
:1036F80003214DF22E50FDF791FA10214DF22F5073
:10370800FDF78CFA03214DF23050FDF787FA33218B
:103718004DF23150FDF782FA03214DF23250FDF798
:103728007DFA6D214DF23350FDF778FA00214FF400
:103738005640FDF773FA33214DF20160FDF76EFA3A
:1037480000214DF20260FDF769FA34214DF2036061
:10375800FDF764FA00214DF20460FDF75FFA3A21A3
:103768004DF20560FDF75AFA00214DF20660FDF7AB
:1037780055FA4A214DF20760FDF750FA00214DF243
:103788000860FDF74BFA5C214DF20960FDF746FA37
:1037980000214DF20A60FDF741FA81214DF20B60DC
:1037A800FDF73CFA00214DF20C60FDF737FAA6212F
:1037B8004DF20D60FDF732FA00214DF20E60FDF773
:1037C8002DFAE5214DF20F60FDF728FA01214DF29F
:1037D8001060FDF723FA13214DF21160FDF71EFA70
:1037E80001214DF21260FDF719FA54214DF21360D0
:1037F800FDF714FA01214DF21460FDF70FFA82214A
:103808004DF21560FDF70AFA01214DF21660FDF739
:1038180005FACA214DF21760FDF700FA02214DF2B0
:103828001860FDF7FBF900214DF21960FDF7F6F974
:1038380002214DF21A60FDF7F1F901214DF21B60EA
:10384800FDF7ECF902214DF21C60FDF7E7F9342190
:103858004DF21D60FDF7E2F902214DF21E60FDF701
:10386800DDF967214DF21F60FDF7D8F902214DF20D
:103878002060FDF7D3F984214DF22160FDF7CEF9E0
:1038880002214DF22260FDF7C9F9A4214DF223600F
:10389800FDF7C4F902214DF22460FDF7BFF9B72105
:1038A8004DF22560FDF7BAF902214DF22660FDF7C9
:1038B800B5F9CF214DF22760FDF7B0F902214DF29D
:1038C8002860FDF7ABF9DE214DF22960FDF7A6F976
:1038D80002214DF22A60FDF7A1F9F2214DF22B6089
:1038E800FDF79CF902214DF22C60FDF797F9FE21B6
:1038F8004DF22D60FDF792F903214DF22E60FDF790
:103908008DF910214DF22F60FDF788F903214DF252
:103918003060FDF783F933214DF23160FDF77EF910
:1039280003214DF23260FDF779F96D214DF23360D4
:10393800FDF774F955214FF47040FDF76FF9AA218E
:103948004FF20100FDF76AF952214FF20200FDF72C
:1039580065F908214FF20300FDF760F900214FF2E5
:103968000400FDF75BF9CC214FF43140FDF756F91F
:1039780000214BF20110FDF751F905214FF43640B3
:10398800FDF74CF970214FF43740FDF747F97021E6
:103998004BF20170FDF742F901214FF43840FDF771
:1039A8003DF903214BF60100FDF738F903214BF6E9
:1039B8000200FDF733F903214BF60300FDF72EF95A
:1039C80002214FF43C40FDF729F900214BF6014054
:1039D800FDF724F900214BF60240FDF71FF9D0212D
:1039E8004FF44940FDF71AF902214CF60110FDF792
:1039F80015F950214CF60210FDF710F950214CF63C
:103A08000310FDF70BF950214CF60410FDF706F9E9
:103A180000214FF45450FDF701F955214FF4685037
:103A2800FDF7FCF84FF48850FDF7B6F8012001F0D7
:103A38002BFE4FF42450FEF746B849F22532934244
:103A480040F0D78047F6F001E520FDF7E7F84FF49E
:103A580080710120FDF7E2F84FF4E0610220FDF7E4
:103A6800DDF841F230010320FDF7D8F800210420E9
:103A7800FDF7D4F840F202210820FDF7CFF8002125
:103A88000920FDF7CBF800210A20FDF7C7F800212F
:103A98000C20FDF7C3F800210D20FDF7BFF8002129
:103AA8000F20FDF7BBF800211020FDF7B7F807211C
:103AB8001120FDF7B3F800211220FDF7AFF800211F
:103AC8001320FDF7ABF800210720FDF7A7F841F216
:103AD80090611020FDF7A2F840F227211120FDF790
:103AE8009DF89D211220FDF799F84FF4C851132035
:103AF800FDF794F825212920FDF790F80D212B20BA
:103B0800FDF78CF807213020FDF788F840F20331E3
:103B18003120FDF783F803213220FDF77FF840F2CA
:103B280006213520FDF77AF808213620FDF776F8CA
:103B380040F206413720FDF771F84FF44171382003
:103B4800FDF76CF807213920FDF768F840F20261AB
:103B58003C20FDF763F808213D20FDF75FF80021C0
:103B68005020FDF75BF8EF215120FDF757F80021B1
:103B78005220FDF753F840F23F115320FDF74EF85D
:103B88004FF427416020FDF749F801216120FDF736
:103B980045F800216A20FDF741F800218020FDF753
:103BA8003DF800218120FDF739F800218220FDF73A
:103BB80035F800218320FDF731F800218420FDF736
:103BC8002DF800218520FDF729F810219020FDF718
:103BD80025F84FF4C0619220FDF720F840F2331128
:103BE8000720FDF71BF822210020FDF717F8FDF745
:103BF8006CBF49F22832934240F0F08041F28F01C5
:103C0800EC20FDF70BF841F23421EF20FDF706F820
:103C18004FF480710120FDF701F84FF4E0610220B4
:103C2800FCF7FCFF41F230010320FCF7F7FF00210D
:103C38000420FCF7F3FF40F202210820FCF7EEFF16
:103C480000210920FCF7EAFF00210A20FCF7E6FF23
:103C580001210C20FCF7E2FF00210D20FCF7DEFF1C
:103C680000210F20FCF7DAFF00211020FCF7D6FF17
:103C780007211120FCF7D2FF00211220FCF7CEFF0C
:103C880000211320FCF7CAFF01210720FCF7C6FF1B
:103C9800322001F0F9FC41F290411020FCF7BEFF00
:103CA80040F227211120FCF7B9FF322001F0ECFC8B
:103CB8008A211220FCF7B2FF322001F0E5FC4FF414
:103CC800D0511320FCF7AAFF06212920FCF7A6FFF4
:103CD8000D212B20FCF7A2FF322001F0D5FC00219A
:103CE8002020FCF79BFF00212120FCF797FF3220C2
:103CF80001F0CAFC00213020FCF790FF40F204617B
:103D08003120FCF78BFF40F205313220FCF786FFAB
:103D180000213520FCF782FF40F609413620FCF7E8
:103D28007DFF4FF401713720FCF778FF40F2013135
:103D38003820FCF773FF40F207713920FCF76EFF5B
:103D480000213C20FCF76AFF40F60A213D20FCF7E1
:103D580065FF322001F098FC00215020FCF75EFF3F
:103D6800EF215120FCF75AFF00215220FCF756FFA3
:103D780040F23F115320FCF751FF4FF427416020D8
:103D8800FCF74CFF01216120FCF748FF00216A2065
:103D9800FCF744FF00218020FCF740FF0021812030
:103DA800FCF73CFF00218220FCF738FF002183202C
:103DB800FCF734FF00218420FCF730FF0021852028
:103DC800FCF72CFF10219020FCF728FF4FF4C0616E
:103DD8009220FCF723FF40F23311ACE049F2203285
:103DE800934240F0AA8000210846FCF717FF4FF4E1
:103DF80080710120FCF712FF4FF4E0610220FCF70C
:103E08000DFF41F230010320FCF708FF00210420D8
:103E1800FCF704FF40F202210820FCF7FFFE002116
:103E28000920FCF7FBFE00210A20FCF7F7FE012120
:103E38000C20FCF7F3FE00210D20FCF7EFFE00211B
:103E48000F20FCF7EBFE322001F01EFC40F20111BE
:103E58000720FCF7E3FE322001F016FC4FF48651F0
:103E68001020FCF7DBFE07211120FCF7D7FE4FF4EA
:103E780088711220FCF7D2FE4FF430611320FCF752
:103E8800CDFE00212920FCF7C9FE44F210012B20A9
:103E9800FCF7C4FE00215020FCF7C0FEEF215120A2
:103EA800FCF7BCFE00215220FCF7B8FE40F23F119F
:103EB8005320FCF7B3FE4FF41C516020FCF7AEFE14
:103EC80001216120FCF7AAFE00216A20FCF7A6FE6A
:103ED80000218020FCF7A2FE00218120FCF79EFE35
:103EE80000218220FCF79AFE00218320FCF796FE31
:103EF80000218420FCF792FE00218520FCF78EFE2D
:103F080010219020FCF78AFE00219220FCF786FE03
:103F180001219320FCF782FE4FF488719520FCF76D
:103F28007DFE00219720FCF779FE00219820FCF700
:103F380075FE40F27311072057E649F23132934279
:103F480040F0B18041F21401E720FCF767FE4FF41E
:103F580080710120FCF762FE4FF400710220FCF72B
:103F68005DFE41F238010320FCF758FE40F20221C1
:103F78000820FCF753FE00210920FCF74FFE002122
:103F88000A20FCF74BFE00210C20FCF747FE00211D
:103F98000D20FCF743FE00210F20FCF73FFE002117
:103FA8001020FCF73BFE07211120FCF737FE00210B
:103FB8001220FCF733FE00211320FCF72FFEC82047
:103FC80001F062FB41F290611020FCF727FE40F2FD
:103FD80027211120FCF722FE322001F055FB0C218D
:103FE8001220FCF71BFE322001F04EFB4FF400615B
:103FF8001320FCF713FE11212920FCF70FFE0B21DB
:104008002B20FCF70BFE322001F03EFB0021202084
:10401800FCF704FE40F23F112120FCF7FFFD0021D0
:104028003020FCF7FBFD4FF483713120FCF7F6FDDF
:1040380000213220FCF7F2FD4FF401713520FCF726
:10404800EDFD41F20A613620FCF7E8FD40F2077108
:104058003720FCF7E3FD4FF483713820FCF7DEFDD1
:1040680040F207713920FCF7D9FD40F202413C20AB
:10407800FCF7D4FD40F60F413D20FCF7CFFD0021B1
:104088005020FCF7CBFDEF215120FCF7C7FD0021A4
:104098005220FCF7C3FD40F23F115320FCF7BEFD50
:1040A8004FF41C516BE645F20842934240F0A3805E
:1040B8004FF480710120FCF7B1FD4FF4E06102205C
:1040C800FCF7ACFD41F230010320FCF7A7FD00210D
:1040D8000420FCF7A3FD40F207210820FCF79EFD11
:1040E80000210920FCF79AFD00210A20FCF796FD23
:1040F80000210C20FCF792FD00210D20FCF78EFD1D
:1041080000210F20FCF78AFD142001F0BDFA41F2CE
:10411800B0611020FCF782FD01211120FCF77EFD23
:1041280001211720FCF77AFD4FF49C711220FCF74F
:1041380075FD4FF400611320FCF770FD092129205B
:10414800FCF76CFD09212A20FCF768FD0021A4205A
:10415800FCF764FD00215020FCF760FDEF215120A1
:10416800FCF75CFD00215220FCF758FD40F23F119E
:104178005320FCF753FD4FF41C516020FCF74EFD13
:1041880001216120FCF74AFD00216A20FCF746FD69
:1041980000218020FCF742FD00218120FCF73EFD34
:1041A80000218220FCF73AFD00218320FCF736FD30
:1041B80000218420FCF732FD00218520FCF72EFD2C
:1041C80013219020FCF72AFD00219220FCF726FD00
:1041D80003219320FCF722FD4FF488719520FCF70A
:1041E8001DFD072040F27311FCF718FD322001F085
:1041F8004BFAFDF76ABC41F20552934240F0118137
:1042080000210720FCF70AFD322001F03DFA4FF4A7
:104218008E711220FCF702FD0121A420FCF7FEFCA0
:104228000F210820FCF7FAFC08210A20FCF7F6FC0D
:1042380008210D20FCF7F2FC40F207713020FCF752
:10424800EDFC07213120FCF7E9FC40F20361322044
:10425800FCF7E4FC4FF4E0613320FCF7DFFC40F2AC
:1042680002213420FCF7DAFC02213520FCF7D6FCC9
:1042780041F60F713620FCF7D1FC40F20771372068
:10428800FCF7CCFC00213820FCF7C8FC00213920C1
:10429800FCF7C4FC40F207713A20FCF7BFFC002190
:1042A8003B20FCF7BBFC07213C20FCF7B7FC0021B6
:1042B8003D20FCF7B3FC322001F0E6F9012107208C
:1042C800FCF7ACFC01211720FCF7A8FC322001F018
:1042D800DBF94FF4BD511020FCF7A0FC40F2172188
:1042E8001120FCF79BFC4FF48F711220FCF796FC11
:1042F8004FF470611320FCF791FC00212A20FCF791
:104308008DFC0A212920FCF789FC4FF49F711220AB
:10431800FCF784FC00215020FCF780FCEF215120A1
:10432800FCF77CFC00215220FCF778FC40F23F119E
:104338005320FCF773FC4FF41C516020FCF76EFC13
:1043480001216120FCF76AFC00216A20FCF766FC69
:1043580000218020FCF762FC00218120FCF75EFC34
:1043680000218220FCF75AFC00218320FCF756FC30
:1043780000218420FCF752FC00218520FCF74EFC2C
:1043880013219020FCF74AFC4FF440719220FCF76F
:1043980045FC05219320FCF741FC00219520FCF702
:1043A8003DFC00219720FCF739FC00219820FCF700
:1043B80035FC4FF480710120FCF730FC4FF4E061CC
:1043C8000220FCF72BFC41F238010320FCF726FC05
:1043D80000210420FCF722FC00210C20FCF71EFC25
:1043E80000210F20FCF71AFC00212020FCF716FC06
:1043F80000212120FCF712FC21210720FCF70EFCEC
:10440800142001F041F961210720FCF707FC142072
:1044180001F03AF9072040F27311FCF7FFFB142072
:10442800E5E64BF20552934240F0FD800021084634
:10443800FCF7F4FB00210846FCF7F0FB00210846D6
:10444800FCF7ECFB00210846FCF7E8FB0121A4205F
:10445800FCF7E4FB142001F017F94FF41C5160201D
:10446800FCF7DCFB40F202210820FCF7D7FB4FF4F5
:1044780005713020FCF7D2FB43F215713120FCF7AF
:10448800CDFB40F204613220FCF7C8FB40F6166110
:104498003320FCF7C3FB42F211213420FCF7BEFBAA
:1044A8004FF4A8513520FCF7B9FB48F207513620E4
:1044B800FCF7B4FB41F207413720FCF7AFFB41F2B0
:1044C80003413820FCF7AAFB20213920FCF7A6FB82
:1044D8001A219020FCF7A2FB00211020FCF79EFB7C
:1044E80007211120FCF79AFB00211220FCF796FB0C
:1044F80000211320FCF792FB142001F0C5F84FF4BB
:10450800E6611020FCF78AFB40F237111120FCF716
:1045180085FB142001F0B8F84FF4DC711220FCF789
:104528007DFB142001F0B0F84FF470611320FCF704
:1045380075FB80212A20FCF771FB48212920FCF714
:104548006DFB142001F0A0F84FF480710120FCF7F6
:1045580065FB4FF4E0610220FCF760FB41F2380193
:104568000320FCF75BFB40F202210820FCF756FB16
:1045780000210A20FCF752FB00210C20FCF74EFB1F
:1045880000210D20FCF74AFB30210E20FCF746FBEA
:1045980000215020FCF742FBEF215120FCF73EFBA5
:1045A80000215220FCF73AFB40F23F115320FCF760
:1045B80035FB4FF41C516020FCF730FB01216120D2
:1045C800FCF72CFB00216A20FCF728FB1121902026
:1045D800FCF724FB4FF4C0619220FCF71FFB40F26C
:1045E80002419320FCF71AFB02219420FCF716FBEA
:1045F800142001F049F801210720FCF70FFB1420D3
:1046080001F042F861210720FCF708FB40F2731122
:104618000720FCF703FB00212020FCF7FFFA00210C
:104628002120FFF7DEBA4CF20552934240F0CD80CC
:1046380000210846FCF7F2FA00210846FCF7EEFADA
:10464800142001F021F800210846FCF7E7FA0021C0
:104658000846FCF7E3FA00210846FCF7DFFA0021D8
:104668000846FCF7DBFA0121A420FCF7D7FA14204E
:1046780001F00AF84FF41C516020FCF7CFFA40F61D
:1046880006010820FCF7CAFA40F203713020FCF753
:10469800C5FA01213120FCF7C1FA04213220FCF7C8
:1046A800BDFA4FF481713320FCF7B8FA4FF440712A
:1046B8003420FCF7B3FA40F203113520FCF7AEFAC8
:1046C8001F213620FCF7AAFA40F203713720FCF7C5
:1046D800A5FA01213820FCF7A1FA04213920FCF7BA
:1046E8009DFA15219020FCF799FA4FF48261102069
:1046F800FCF794FA40F247211120FCF78FFA4FF4A7
:10470800DE711220FCF78AFA4FF460611320FCF77F
:1047180085FA782000F0B8FF4FF480710120FCF78B
:104728007DFA4FF400710220FCF778FA41F230016B
:104738000320FCF773FA08210A20FCF76FFA00211E
:104748000C20FCF76BFA20210E20FCF767FA0021F9
:104758000F20FCF763FA00212020FCF75FFA002104
:104768002120FCF75BFA3D212A20FCF757FA142098
:1047780000F08AFF2D212920FCF750FA0021502053
:10478800FCF74CFA4DF2EF015120FCF747FA0021F3
:104798005220FCF743FA40F23F115320FCF73EFA4F
:1047A80000216120FCF73AFA00216A20FCF736FA6A
:1047B8004FF440719220FCF731FA05219320FCF761
:1047C8002DFA4FF48071FFF7B6BB48F68912934271
:1047D80040F0BA8001210020FCF720FA4AF6A40133
:1047E8000320FCF71BFA00210C20FCF717FA40F60F
:1047F8000C010D20FCF712FA4FF42C510E20FCF797
:104808000DFAB0211E20FCF709FA42F63F310120CB
:10481800FCF704FA4FF4C0610220FCF7FFF900210D
:104828001020FCF7FBF946F278011120FCF7F6F9A5
:1048380000210520FCF7F2F900210620FCF7EEF92B
:104848004EF61C711620FCF7E9F903211720FCF736
:10485800E5F940F233210720FCF7E0F900210B20AD
:10486800FCF7DCF900210F20FCF7D8F900214120E2
:10487800FCF7D4F900214220FCF7D0F900214820A8
:10488800FCF7CCF940F23F114920FCF7C7F90021A9
:104898004A20FCF7C3F900214B20FCF7BFF94FF47D
:1048A8006F414420FCF7BAF900214520FCF7B6F91E
:1048B80040F23F114620FCF7B1F940F20771302071
:1048C800FCF7ACF94FF401713120FCF7A7F94FF46C
:1048D80001713220FCF7A2F940F202513320FCF7B3
:1048E8009DF940F207513420FCF798F94FF4017113
:1048F8003520FCF793F94FF401713620FCF78EF957
:1049080040F202513720FCF789F940F202313A208F
:10491800FCF784F940F202313B20FCF77FF90021D3
:104928002320FCF77BF900212420FCF777F94FF4CA
:1049380000412520FCF772F900214F20FCF76EF9A1
:1049480000214E20FFF751B944F23152934240F012
:10495800B98001210020FCF761F90A2000F094FEDB
:1049680041F228611020FCF759F90E211220FCF7BA
:1049780055F940F639211320FCF750F90A2000F0C8
:1049880083FE40211120FCF749F950211520FCF73E
:1049980045F90A2000F078FE1E211220FCF73EF9A6
:1049A8000A2000F071FE4FF4B1511020FCF736F9DF
:1049B80042F639211320FCF731F90A2000F064FE91
:1049C8004FF480710120FCF729F94FF4407102205F
:1049D800FCF724F941F238010320FCF71FF940F2F3
:1049E80002210820FCF71AF908210A20FCF716F919
:1049F80000213020FCF712F940F202413120FCF787
:104A08000DF94FF483713220FCF708F940F2035195
:104A18003320FCF703F94FF482713420FCF7FEF8D9
:104A280040F201313520FCF7F9F840F207713620E1
:104A3800FCF7F4F840F205313720FCF7EFF84FF4B3
:104A480002713820FCF7EAF840F60B713920FCF7C0
:104A5800E5F802214120FCF7E1F84FF41C516020F1
:104A6800FCF7DCF801216120FCF7D8F84FF4047159
:104A78009020FCF7D3F84FF485719220FCF7CEF81C
:104A880004219320FCF7CAF84FF48071A020FCF7AA
:104A9800C5F801210720FCF7C1F821210720FCF700
:104AA800BDF823210720FCF7B9F833210720FCF7CC
:104AB800B5F840F233110720FCF7B0F80021A02028
:104AC800FFF793B844F23552934240F0AA80302160
:104AD8001520FCF7A3F810219A20FCF79FF8202155
:104AE8001120FCF79BF843F228411020FCF796F8B8
:104AF80002211220FCF792F841F238011320FCF74A
:104B08008DF8282000F0C0FD12210846FCF786F831
:104B1800282000F0B9FD43F220411020FCF77EF870
:104B280043F238011320FCF779F8462000F0ACFD79
:104B380000213020FCF772F840F202413120FCF7E6
:104B48006DF840F207313220FCF768F84FF44171F4
:104B58003320FCF763F804213420FCF75FF840F2B7
:104B680001413520FCF75AF840F207713620FCF76E
:104B780055F840F205313720FCF750F84FF4C26180
:104B88003820FCF74BF84FF4C2613920FCF746F89F
:104B98004FF480710120FCF741F84FF44071022076
:104BA800FCF73CF841F230010320FCF737F840F6F7
:104BB80008010820FCF732F808210A20FCF72EF833
:104BC8004FF41C516020FCF729F801216120FCF703
:104BD80025F84FF49F719020FCF720F84FF480716E
:104BE8009220FCF71BF84FF480719320FCF716F81D
:104BF8004FF44051A020FCF711F81021A320FCF736
:104C08000DF801210720FCF709F821210720FCF7FE
:104C180005F823210720FCF701F833210720FFF7C7
:104C2800D8B841F6631293427CF44FAFE2204FF4B8
:104C380000754FF48078FBF7AFFF1D23AC4CAD4FE8
:104C48008026C4F8108004226561FB6002234FF0BF
:104C5800010A4FF0030B6661012026612561C4F843
:104C680010806561FB60666126612561C4F810806B
:104C78006561FA6066612661256100F005FDE02046
:104C8800FBF78AFFC4F810800A206561C7F80CA0FA
:104C980066612661256100F0F7FCE020FBF77CFFE8
:104CA800C4F810800C206561C7F80CB066612661F5
:104CB800256100F0E9FC5046FBF76EFF0A2000F082
:104CC800E3FCE620FBF768FF2F21C4F8108065613C
:104CD800F960FF216661B02026612561C4F8108063
:104CE8006561F960666126612561C4F810806561B7
:104CF800F960666126612561FBF74EFF2021C4F843
:104D080010804FF000096561F96040F21F3166615B
:104D180026612561C4F810806561C7F80C9066614A
:104D280026612561C4F810806561C7F80CB066611A
:104D380026612561C4F810806561F96040F2DF11D1
:104D48006661B42026612561C4F810806561C7F8E2
:104D58000CA0666126612561C4F810806561F96060
:104D6800666126612561C4F810806561C7F80C90FA
:104D7800666126612561FBF70FFF0422C4F81080E5
:104D88006561FA6040F21F42666126612561C4F8D8
:104D980010806561FA602E226661B6202661256161
:104DA800C4F810806561C7F80C90666126612561BA
:104DB800C4F810806561FA60666126612561C4F8EF
:104DC80010806561C7F80C90666126612561C4F89A
:104DD80010806561C7F80C90666126612561C4F88A
:104DE80010806561C7F80C90666126612561C4F87A
:104DF80010806561C7F80C90666126612561FBF734
:104E0800CBFE0223C4F810806561FB604FF4037386
:104E1800666126612561C4F810806561FB6017230F
:104E2800666126612561C4F810806561C7F80C9039
:104E3800666126612561C4F810806561FB601523F1
:104E48006661F02026612561C4F810806561FB6009
:104E5800666126612561C4F810806561C7F80C9009
:104E6800666126612561C4F810806561C7F80C90F9
:104E7800666126612561FBF78FFEC4F81080292042
:104E88006561C7F80CB0666126612561FBF784FE91
:104E9800D020FBF781FEC4F81080BE206561C7F8FA
:104EA8000C90666126612561FBF776FE0523C4F840
:104EB80010806561FB60FE236661B820266125616C
:104EC800C4F810806561FB60666126612561C4F8DD
:104ED80010806561C7F80CA0666126612561C4F879
:104EE80010806561C7F80C906661266104E000BF18
:104EF80000100140000C01402561C4F81080656174
:104F0800C7F80C90666126612561C4F81080656158
:104F1800C7F80C90666126612561FBF73DFEC4F871
:104F28001080BA206561C7F80CB0666126612561FA
:104F3800C4F810806561C7F80CA066612661256118
:104F4800FBF72AFEC4F8108064206561C7F80CA03E
:104F5800666126612561FCF7A3FAFCF7B6BD00BFC0
:104F68002DE9F04F1C4687B09DF840300F46059359
:104F780014F0070318BF0123610803EBD4034B4364
:104F88002421DBB20293203A294BD2B201FB02332F
:104F98000C218146BB4600260493264B03EB0213E3
:104FA8000393254B01FB02330193029AF3B29A4211
:104FB80002D807B0BDE8F08F0C2C29D1019B9D5D6C
:104FC800DFF880800BF108031FFA83FA2B0627D538
:104FD8001A4B594648461A88FCF7F6F8B8F80220E2
:104FE8000BF101011FFA81FB6D005A45EDB2E0D9C2
:104FF800ABEB0702A24218D1B8F8003009F1010062
:105008001FFA80F94B45D4D9BA46D3460136CCE7C6
:10501800102C01D1039BD2E7182CCAD1049BCEE7F0
:10502800059B002BDAD1064BD3E7DA45CED1ECE766
:1050380003A30008139D00089F980008FC030020A4
:10504800000000200C0400202DE9F04F1F46044604
:105058000D464FF0000B85B002449DF8383096B2EB
:105068000F9A0F44BFB24FEA530902F1FF385FFAB3
:1050780080FA18F8012FA2F120015E2902D905B0A3
:10508800BDE8F08FB44222BFED18ADB25446BD4220
:10509800F5D220462946CDF800B04C440393A4B27B
:1050A800FFF75EFF039BE4E72DE9F04F83460D46CB
:1050B80014468A4685B002939DF83C3003939DF8C8
:1050C800383002EBC3030193019B9C4202D105B027
:1050D800BDE8F08FA1460AF1080719F8016BDFF85F
:1050E8006880BFB2330623D5154B514658461A88F7
:1050F800FCF76AF8B8F802200AF101011FFA81FAF0
:1051080076005245F6B2E2D9029BAAEB05029A4212
:1051180013D1B8F800200BF101001FFA80FB5A45A3
:10512800D5D9AA4604F108024A45D4D14C46CBE762
:10513800039B002BDED1034BD7E75745D2D1F1E7CC
:10514800FC030020000000200C04002010B596B0DD
:10515800102200210FA801F0E5FC1422002101A86B
:1051680001F0E0FC182200210DEB020001F0DAFC4E
:1051780002244FF4803301220021CDE90C23CDE92C
:1051880013434FF4E0130CA80E911092159300F0FE
:10519800FBFE08B172B6FEE70F23CDE901344FF4E8
:1051A80080630390CDE90430214601A801F0C2F8DC
:1051B80008B172B6FEE74FF4004306A806940893B8
:1051C80001F064F908B172B6FEE716B010BD000030
:1051D80000B58DB000F034FAFFF7B8FFFCF79AFA83
:1051E8003E4B00219A693E4C42F020029A619A692E
:1051F800012502F020020192019A9A6942F0040204
:105208009A6118229B690DEB020003F004030293D4
:10521800029B01F087FC334A002322604FF460228E
:105228002046CDE903330593A36023732375E26118
:105238006360256100F0CAFC08B172B6FEE72A4B2C
:1052480040F26C7006934FF4E1631026CDE9090330
:1052580006A9204607968DF8205000F0CBFB08B130
:1052680072B6FEE7059003A92046CDE9036500F074
:1052780043FB054608B172B6FEE73246014606A86A
:1052880001F050FC41F61F43184C194A2046C4E966
:1052980000234CF24F33CDE90355C4E90335A5602B
:1052A800A56101F013FB08B172B6FEE74FF4805315
:1052B800204606A9069301F03FFB08B172B6FEE747
:1052C800CDE9030003A9204601F0CAFB08B172B674
:1052D800FEE7204601F0D6F9FEE700BF00100240C5
:1052E8006404002000240140000280001C04002007
:1052F800000400400E4B82B09A6942F001029A61A4
:105308009A6902F001020092009ADA6942F080522A
:10531800DA61DB69074A03F080530193019B536804
:1053280023F0E06343F00073536002B0704700BF9E
:10533800001002400000014007B50E4B02689A4277
:1053480015D103F56C439A69122042F400729A61F0
:1053580000229B69114603F400730193019B00F03E
:10536800D3FC122003B05DF804EB00F0FFBC03B0DF
:105378005DF804FB0024014007B50E4B02689A4211
:1053880015D103F50333DA691D2042F00202DA6110
:105398000022DB69114603F002030193019B00F030
:1053A800B3FC1D2003B05DF804EB00F0DFBC03B0D4
:1053B8005DF804FB00040040FEE7FEE7FEE7FEE7B9
:1053C800FEE770477047704700F04CB9014800F09D
:1053D8001DBA00BF64040020014801F089B900BF6C
:1053E8001C0400200000000030B52B4C89B020467A
:1053F80000F064FB4FF0FF31204600F057F92046DB
:1054080000F000FA80B2FBF755F81DA3D3E900239A
:10541800FBF7CAF802460B461BA1D1E90001FAF7CF
:105428000BFF1BA3D3E90023FBF7E8F900221B4B72
:10543800FAF704FF03AD02460B462846184901F067
:10544800D9FF4FF6FF70FCF723F94FF6FF72154BA3
:1054580018241A800022144B28211A80134BC822C2
:1054680001931E2023460094FFF7EEFD2346C82231
:1054780046211E20CDE90045FFF7E6FD09B030BD05
:105488006666666666664A3FE17A14AE47E1F63FAD
:1054980022FDF675E09C713F64040020000039404D
:1054A8005FB0000800000020FC03002062B0000884
:1054B80007B50F4BC82201931823642100931E20BF
:1054C800FFF7C2FD0B4BC8220193102382210093E2
:1054D8001E20FFF7B9FD40230122C821CDE9003283
:1054E8001E20054AFFF7E0FD03B05DF804FB00BF8E
:1054F8006FB0000878B00008020000200120704753
:1055080008B501F0E5FA162303604FF0FF3008BD37
:1055180008B501F0DDFA16230360FEE770B50E4604
:1055280014460025A54201DB204670BDAFF300807C
:1055380070550135F6E770B50E4614460025A542AC
:1055480001DB204670BD705DAFF300800135F6E7E2
:105558004FF0FF3070474FF4005300204B60704706
:1055680001207047002070470B4B0246196810B5A0
:1055780009B90A491960186809490A4C0244091B03
:105588008A4206D901F0A4FA0C2303604FF0FF30D9
:1055980010BD1A60FCE700BF00040020A80400202A
:1055A80000C0002000040000704700000C480D49AE
:1055B8000D4A002302E0D458C4500433C4188C4266
:1055C800F9D30A4A0A4C002301E013600432A242CC
:1055D800FBD3FFF7E9FF01F081FAFFF7F9FD704708
:1055E80000000020E0030020A4B40008E00300202D
:1055F800A8040020FEE7000038B50E4B05461878D1
:105608004FF47A73B3FBF0F30B4A1068B0FBF3F076
:1056180000F0BAFB044658B90F2D09D802462946AE
:105628004FF0FF3000F070FB2046044B1D6038BD82
:105638000120FCE708020020040200200C020020E0
:10564800074A08B51368032043F01003136000F0FD
:1056580049FB0F20FFF7D0FFFFF74CFE002008BDE5
:1056680000200240034A044B11681B780B44136066
:10567800704700BF9404002008020020014B1868FE
:10568800704700BF9404002038B50446FFF7F6FFC2
:105698000546631C1EBF044B1B78E418FFF7EEFF9A
:1056A800431BA342FAD338BD08020020F7B50025F2
:1056B80004460E460195FFF7E1FF236807469A68FE
:1056C800D20508D50120A36A84F8245043F02003AA
:1056D800A36203B0F0BD5A68D50503D4DB6A13F49E
:1056E800700F40D0414B02201D6800F047FF226830
:1056F8003F4B1169B5FBF0F519423E4B54D1D068C8
:105708003D49084250D1116919425ED1D26803F16E
:105718006E431A4214BF292314235D43019BAB42F5
:1057280025D2721C5CD0002E55D1019BAB4257D2BA
:10573800A36A43F00403A36200230BE0701C13D098
:1057480066B923681B6813F002030CD1A26A42F001
:105758000402A262032084F82430BAE7FFF78EFF20
:10576800C01BB042EDD8226813689907E6D56FF0E0
:10577800120322681360A36A43F40073A362936858
:1057880003F46023B3F5602F2ED1207B00282BD1A2
:10579800A36A23F48073A362A36ADB0424D4A36AF4
:1057A80043F00103A36294E71169194203D1D16858
:1057B800124B19420BD01169114B194209D1D26809
:1057C8001A4214BFFC235423A7E72923A5E754232F
:1057D800A3E7FC23A1E7FFF751FFC01BB042A4D801
:1057E800019B0133019399E7002072E7040200202E
:1057F800244992249224491224499200922449006F
:10580800499224000368D86C70477047036810B544
:105818005A680446900627D51A68910724D5A26AC3
:10582800D2065EBFA26A42F40072A2629A6802F4CB
:105838006022B2F5602F10D1227B72B95A6822F02B
:1058480020025A60A36A23F48073A362A36ADB046C
:105858005EBFA36A43F00103A3622046FFF7D5FFAA
:105868006FF0120223681A6023685A68100630D550
:105878001A6851072DD5A26AD2065EBFA26A42F401
:105888000052A2629A6802F4E042B2F5E04F0AD0F0
:105898005A68500516D49A6802F46022B2F5602F4F
:1058A80010D1227B72B95A6822F080025A60A36A2A
:1058B80023F48053A362A36AD9055EBFA36A43F0A9
:1058C8000103A362204600F00BFA6FF00C02236874
:1058D8001A6023685A6852060DD51B68DB070AD57B
:1058E800A36A204643F48033A362FFF7E1FD6FF01B
:1058F800010223681A6010BD002373B5019390F864
:1059080024300446012B6CD0012380F824304D68E4
:105918000268062D086805EB850322D81F26556BFB
:10592800053B9E4025EA060500FA03F32B43536323
:1059380009288B6800EB40054FF0070129D9D66884
:105948001E3DA94026EA0101AB400B43D360A0F1FC
:105958001003012B25D90020002384F8243002B03D
:1059680070BD0C2D4FF01F0509D8166B233B9D40C9
:1059780026EA050500FA03F32B431363D8E7D66A32
:10598800413B9D4026EA050500FA03F32B43D36209
:10599800CEE71069A94020EA0101AB400B4313612F
:1059A800D9E7114B9A4216D193681B02D3D4936856
:1059B800102843F400039360CDD10C4B0C4A1B68AC
:1059C800B3FBF2F20A2353430193019B002BC2D08D
:1059D800019B013BF8E7A36A012043F02003A3627F
:1059E800BAE70220BBE700BF002401400402002000
:1059F80040420F0030B590F824300A68012B1CD0C3
:105A0800012380F824300C7A0368012C5C680CBFF1
:105A180044F0400424F040045C604C685D68224314
:105A2800074C2C4022435A60CA685A620A699A6233
:105A3800002380F82430184630BD0220FCE700BF60
:105A4800E0FD3FFF002337B50193036804469A68D9
:105A5800D20702D5002003B030BD9A6842F0010297
:105A68009A60144B144A1B68B3FBF2F30193019B31
:105A7800E3B9FFF703FE054623689B68DB07E9D413
:105A8800FFF7FCFD401B0228F6D923689B6813F03A
:105A98000103F1D1A26A012042F01002A262E26A77
:105AA80084F8243042F00102E262D4E7019B013B12
:105AB800DCE700BF0402002040420F0010B590F858
:105AC80024300446012B54D0012380F82430FFF7FA
