:020000040800F2
:1000000000C00020FD060008F5030008F703000803
:10001000F9030008FB030008FD03000800000000CE
:10002000000000000000000000000000FF030008C6
:100030000104000800000000030400080504000893
:100040004507000845070008450700084507000860
:100050004507000845070008450700084507000850
:100060004507000845070008450700084507000840
:100070004507000845070008450700084507000830
:100080004507000845070008450700084507000820
:10009000450700084507000845070008090400084F
:1000A0004507000845070008450700084507000800
:1000B00045070008450700084507000845070008F0
:1000C00045070008450700084507000845070008E0
:1000D0004507000811040008450700084507000807
:1000E00031040008450700084507000845070008D7
:1000F00045070008450700084507000845070008B0
:10010000450700084507000845070008450700089F
:10011000450700084507000845070008450700088F
:10012000450700084507000845070008450700087F
:1001300000000000000000000000000000000000BF
:1001400000000000000000000000000000000000AF
:10015000000000000000000000000000000000009F
:10016000000000000000000000000000000000008F
:10017000000000000000000000000000000000007F
:10018000000000000000000000000000000000006F
:10019000000000000000000000000000000000005F
:1001A000000000000000000000000000000000004F
:1001B000000000000000000000000000000000003F
:1001C000000000000000000000000000000000002F
:1001D000000000000000000000000000000000001F
:0401E0005FF8E0F1F3
:1001E40010B5054C237833B9044B13B10448AFF36D
:1001F40000800123237010BD0C00002000000000CB
:10020400E816000808B5034B1BB103490348AFF3D4
:10021400008008BD0000000010000020E81600085F
:1002240010222DE9F04389B00DEB0200002101F00A
:1002340051FA334B334E9A69334F42F020029A619C
:100244009A69304602F020020192019A9A694FF4A9
:10025400807142F010029A619A69012402F010023E
:100264000292029A9A69DFF8A89042F004029A6115
:100274009B69012203F004030393039B00F0D0FC69
:1002840001223846042100F0CBFC202304A91F4896
:1002940002254FF00008CDE90439069400F0D0FBA4
:1002A4004FF48073304604A9CDE90434CDE90685C2
:1002B40000F0C6FB4FF40043304604A9CDE90439ED
:1002C400069400F0BDFB0423384604A9CDE90434A8
:1002D400CDE9068500F0B4FB22462146172000F044
:1002E4009DFA172000F0CCFA2A462146282000F077
:1002F40095FA282000F0C4FA09B0BDE8F08300BFE5
:1003040000100240000801400014014000100140A8
:100314000000211010B590B01022002109A801F0AE
:10032400D9F91422002101A801F0D4F902244FF4D0
:10033400803301220021CDE90623CDE90D434FF49A
:10034400E01306A808910A920F9300F083FC08B109
:1003540072B6FEE70F23CDE901344FF480630390B6
:10036400CDE90430214601A800F04AFE08B172B676
:10037400FEE710B010BD000008B500F007FAFFF763
:10038400C9FFFFF74DFF00F057F901220249034866
:1003940001F063F9FEE700BF2D04002044040020AF
:1003A40072B6FEE7104B07B59A69052042F00102C8
:1003B4009A619A6902F001020092009ADA6942F0A5
:1003C4008052DA61DB6903F080530193019B00F0F2
:1003D40013FA064A536823F0E06343F00073536052
:1003E40003B05DF804FB00BF0010024000000140B0
:1003F400FEE7FEE7FEE7FEE7FEE77047704770475B
:1004040000F0D6B9202000F019BC000010B5054C4E
:10041400204601F009F82046BDE8104001220249B7
:1004240001F01BB9440400202D0400204FF40040C7
:1004340000F004BCF0B58FB06B46444C02466168D2
:10044400206803C3A06806AC26461860404B03F13D
:100454000807254618685968083303C5BB422C466B
:10046400F7D13C4C18681B792860616820682B71AF
:1004740003AB03C3A0680AAC27461860364B03F1EC
:10048400080C254618685968083303C563452C468B
:10049400F7D118681B79202A28602B7104D0B2F593
:1004A400004F2ED00FB0F0BD11462C4800F0B2FB27
:1004B4000028F7D100F180404FF4807100F58430BA
:1004C40000F0B3FB4FF4967000F084F94FF48071A0
:1004D400234800F09FFB012807D14FF6FF730D223C
:1004E4003146204800F0EEFEDCE74FF480711C48F2
:1004F40000F090FB0028D5D14FF6FF730C2269461B
:10050400EFE71146164800F085FB0028CAD1042104
:10051400154800F08AFB4FF4967000F05BF9042153
:10052400114800F077FB012804D14FF6FF730D2228
:100534003946D6E704210C4800F06CFB0028B1D101
:100544000C224FF6FF730DEB0201CAE700170008F7
:100554000C1700081917000825170008001001409F
:1005640000080140440400200014014038B502682A
:10057400284B294C9A420CD1284B294D1B782A78B8
:10058400662B18D121680139216026498B54013228
:100594002A7023680B3305D101224FF4807122485D
:1005A40000F03EFB2368092B1FD1012204211F48C0
:1005B40000F036FB19E0302B02D121680A39E3E759
:1005C4006E2B02D121680131DEE7312B02D1216883
:1005D4000A31D9E70A2BD8D14FF6FF7311491448D1
:1005E40000F070FE00232B7023602368083305D1CC
:1005F40000224FF480710C4800F012FB23680C2B8E
:1006040006D1BDE8384000220421084800F008BBA8
:1006140038BD00BF00380140280000202D04002010
:100624002C0000202D00002000080140001401408F
:10063400440400207047000008B54FF4E1330A4831
:100644000A4AC0E9002300230C22C0E90233C0E9AE
:1006540005230361C36100F007FE18B1BDE808403B
:10066400FFF79EBE08BD00BF4404002000380140CF
:1006740010B5044686B01022002102A801F02AF821
:1006840022681B4B9A4230D103F558439A691948A2
:1006940042F480429A619A6902A902F4804200926B
:1006A400009A9A69002442F004029A619B694FF40B
:1006B400007203F004030193019B0223CDE902239A
:1006C4000323059300F0BCF94FF48063094802A9A1
:1006D400CDE90234049400F0B3F925202246012127
:1006E40000F09CF8252000F0CBF806B010BD00BF48
:1006F40000380140000801400C480D490D4A002310
:1007040002E0D458C4500433C4188C42F9D30A4AC2
:100714000A4C002301E013600432A242FBD3FFF72A
:1007240089FF00F0B3FFFFF727FE704700000020A9
:100734000C000020641700080C0000208C0400202A
:10074400FEE7000038B50E4B054618784FF47A736F
:10075400B3FBF0F30B4A1068B0FBF3F000F09EF823
:10076400044658B90F2D09D8024629464FF0FF30E8
:1007740000F054F82046044B1D6038BD0120FCE70E
:10078400040000200000002008000020074A08B5EB
:100794001368032043F01003136000F02DF80020C9
:1007A400FFF7D0FFFFF7FEFD002008BD0020024048
:1007B400034A044B11681B780B441360704700BF55
:1007C4008804002004000020014B1868704700BF13
:1007D4008804002038B50446FFF7F6FF0546631C7D
:1007E4001EBF044B1B78E418FFF7EEFF431BA34224
:1007F400FAD338BD0400002007490302CA6803F491
:10080400E06322F4E0621204120C134343F0BF636A
:1008140043F40033CB60704700ED00E0164B30B575
:10082400DC68C4F30224C4F10703251D042B28BF8C
:100834000423062D4FF0FF3598BF002405FA03F377
:1008440088BF033C21EA0303A34005FA04F422EA27
:100854000402002843EA0203ACBF00F16040074AE7
:100864004FEA0313DBB2ABBF00F5614000F00F00A9
:1008740080F80033135430BD00ED00E014ED00E0C7
:10088400002808DB0123420900F01F0003FA00F0EE
:10089400014B43F82200704700E100E00138B0F159
:1008A400807F0AD2F021064B064A586082F8231052
:1008B4000020072298601A6070470120704700BF2B
:1008C40010E000E000ED00E090F82130022B06D0AB
:1008D40004238363002380F82030012070470368D9
:1008E4001A6822F00E021A601A6822F001021A60D5
:1008F4000123D0E90F218B4053604FF480730384AC
:100904000020704708B590F82130022B03D004234F
:100914008363012008BD036843491A6822F00E026C
:100924001A601A6822F001021A60404A934241D9BF
:100934008B4238D014318B4237D014318B4236D0AD
:1009440014318B4223D014318B4223D014318B4287
:1009540023D0934224D002F56272934223D01432FE
:10096400934222D01432934221D01432934214BFC2
:100974004FF480334FF480532D4A53604FF4807307
:100984000384436B002B4DD098470020C2E74FF4FB
:100994008053F1E74FF48033EEE74FF48013EBE735
:1009A4004FF08073E8E70123E6E71023E4E74FF410
:1009B4008073E1E78B422ED01E498B422DD0143137
:1009C4008B422CD014318B4219D014318B4219D064
:1009D40014318B4219D093421AD0174A93421AD039
:1009E4001432934219D01432934218D014329342E1
:1009F40014BF4FF480334FF48053104ABDE74FF4D3
:100A04008053FAE74FF48033F7E74FF48013F4E7A9
:100A14004FF08073F1E70123EFE71023EDE74FF484
:100A24008073EAE7184675E7080002408000024038
:100A3400000402401C00024008040240000002407E
:100A44002DE9F74F002216466B4F6C4BDFF8B4C10B
:100A5400DFF8B4E10C6834FA06F502D103B0BDE85E
:100A6400F08F4FF0010808FA06F804EA080538EA9E
:100A7400040440F082804C68032C07D8013C022C0B
:100A840000F28D80DFE804F09EA3A900122C00F090
:100A9400A18074D8112C00F09780FF2D98BF824656
:100AA4004FF00F0988BF00F1040A4FEA8604DAF810
:100AB400008088BF203C09FA04FB28EA0B0802FAEC
:100AC40004F448EA0404CAF80040D1F804A01AF077
:100AD400805F52D0BC6926F0030844F00104BC6175
:100AE400BC6908F1804804F00104019408F58038D9
:100AF40006F0030B019C4FEA8B0BD8F8084009FA67
:100B04000BF924EA09093E4CA0426AD004F580643A
:100B1400A04268D004F58064A04266D004F58064E5
:100B2400A04264D004F58064A04262D060450CBF4A
:100B34000524062404FA0BF444EA0904C8F808401E
:100B44001C681AF4803F14BF2C43AC431C605C68DF
:100B54001AF4003F14BF2C43AC435C609C681AF445
:100B6400801F14BF2C43AC439C60DC681AF4001F44
:100B740014BF254324EA0505DD6001366AE77445A0
:100B84000DD018D8DFF884904C4508D009F57029A9
:100B94004C4504D0A9F580194C457FF47EAF8A6892
:100BA400EAB1012A08BFC0F810804FF0080218BF4C
:100BB400C0F8148071E7DFF858904C45EFD009F580
:100BC4008039E9E7CA6868E7CA68043265E7CA6831
:100BD400083262E7CA680C325FE700225DE704224C
:100BE4005BE70024A6E70124A4E70224A2E7032488
:100BF400A0E704249EE700BF001002400004014067
:100C040000080140001C01400000221000001210E6
:100C1400000031108368194214BF0120002070477E
:100C24000AB1016170470904FBE7C36801EA0302E2
:100C340021EA030141EA024101617047044A08B50F
:100C44005169014202D05061FFF7F4FB08BD00BFB7
:100C5400000401402DE9F341054638B30368DB077E
:100C640010D42B689F075ED42B68190700F1958078
:100C74002B685A0700F1BF80E869002840F02C81F6
:100C8400002029E08F4C636803F00C03042B07D089
:100C9400636803F00C03082B0AD16368DE0307D5ED
:100CA40023689C03DDD56B68002BDAD1012013E0A7
:100CB4006B68B3F5803F12D1236843F4803323601B
:100CC400FFF782FD064623689803CAD4FFF77CFD2C
:100CD400801B6428F7D9032002B0BDE8F0819BB9DA
:100CE400236823F480332360236823F48023236060
:100CF400FFF76AFD064623689903B2D5FFF764FD42
:100D0400801B6428F7D9E6E7B3F5A02F236803D145
:100D140043F480232360CFE723F4803323602368E4
:100D240023F48023CBE7674C636813F00C0F07D0E0
:100D3400636803F00C03082B10D16368DA030DD445
:100D440023689B0702D52B69012BAFD123686A69FD
:100D540023F0F80343EAC203236085E72A695A4B68
:100D64006AB101221A60FFF72FFD064623689F0728
:100D7400ECD4FFF729FD801B0228F7D9ABE71A60F2
:100D8400FFF722FD0646236898077FF56DAFFFF74E
:100D94001BFD801B0228F6D99DE7AA69494E4B4BDF
:100DA400DAB101221A60FFF70FFD0446736A9B074C
:100DB4000DD54FF4FA52464B1B68B3FBF2F3019383
:100DC40000BF019B5A1E0192002BF9D150E7FFF797
:100DD400FBFC001B0228E9D97DE71A60FFF7F4FC4D
:100DE4000446736A9F077FF543AFFFF7EDFC001BD2
:100DF4000228F6D96FE7334CE369D80024D40127DD
:100E0400E36943F08053E361E36903F080530093A3
:100E1400009B304E3368D90518D5EB68012B26D1D9
:100E2400236A43F001032362FFF7CEFC41F28838C2
:100E34000646236A9B073FD5002F3FF41DAFE369A5
:100E440023F08053E36117E70027E2E7336843F4B4
:100E540080733360FFF7B8FC80463368DA05DCD46E
:100E6400FFF7B2FCA0EB08006428F6D933E7ABB96E
:100E7400236A41F2883823F001032362236A23F0B2
:100E840004032362FFF7A0FC0646236A9807D3D520
:100E9400FFF79AFC801B4045F7D91CE7052B236A12
:100EA40003D143F004032362BAE723F0010323626E
:100EB400236A23F00403B6E7FFF786FC801B404552
:100EC400B7D908E7001002400000424280044242C1
:100ED40000000020007000402A4B5A681C4602F0B3
:100EE4000C02082A3DD00023274E022833602BD160
:100EF400FFF76AFC0746236899011FD42B6AB3F5F0
:100F0400803F05D16268A96822F400320A43626016
:100F1400696A62680B4322F4741213436360012309
:100F24003360FFF751FC054623689A013FF5A8AEEC
:100F3400FFF74AFC401B0228F6D9CCE6FFF744FC35
:100F4400C01B0228D7D9C6E6FFF73EFC0546236836
:100F54009B017FF595AEFFF737FC401B0228F6D9BD
:100F6400B9E601283FF4B8AE5B682A6A03F480311D
:100F740091427FF49BAE6A6A03F4701393423FF488
:100F84007FAE93E6001002406000424230B5184B39
:100F940087B002AC03F1100522461868596808337B
:100FA40003C2AB421446F7D140F201231149ADF814
:100FB40004304B6803F00C02082A17D1C3F38342B0
:100FC40006A80244DB0312F8102C0CD54B680A481F
:100FD400C3F34043504306AA134413F8143CB0FB34
:100FE400F3F007B030BD05485043FAE70248F8E78C
:100FF4004A1700080010024000127A0000093D0060
:101004002DE9F0410D46044610B90120BDE8F081F8
:10101400444A136803F007038B4228D321688E07E0
:1010240030D4CA0743D43F4A136803F00703AB42E2
:1010340065D822683C4D12F0040F6CD1130706D515
:101044006B68226923F4605343EAC2036B60FFF7C1
:101054009DFF6B68354AC3F30313D35CD840344B0C
:101064001860344B1868FFF76DFB0020CEE7136857
:1010740023F007030B431360136803F007038B4249
:10108400C3D1CBE7284B11F0040F1EBF5A6842F4BA
:10109400E0625A60080742BF5A6842F460525A60DC
:1010A4005A68A06822F0F00202435A60B9E7626805
:1010B4001D4E012A33681AD113F4003FA5D073687A
:1010C40041F2883823F0030313437360FFF77CFB7A
:1010D40007467368626803F00C03B3EB820FA2D077
:1010E400FFF772FBC01B4045F3D903208EE7022AA9
:1010F40002D113F0007FE1E713F0020FDEE713687B
:1011040023F007032B431360136803F00703AB4278
:101114007FF47BAF8DE76B68E16823F4E0630B43F6
:101124006B608BE700200240001002403217000879
:101134000000002008000020044B054A5B68C3F34C
:101144000223D35C034A1068D84070470010024061
:101154004217000800000020044B054A5B68C3F3F3
:10116400C223D35C034A1068D84070470010024081
:1011740042170008000000200368DA6822F4907225
:10118400DA605A6922F001025A61026B012A02BF35
:10119400DA6822F01002DA60202380F83E3000235F
:1011A4000363704710B504460368C1681A6922F4E2
:1011B40040520A431A6182680069D968024360692F
:1011C40021F4B05121F00C0102430A43DA605A6958
:1011D400A16922F440720A435A610E4A934215D11E
:1011E400FFF7BAFF19234343626820689200B3FBF8
:1011F400F2F36422B3FBF2F102FB11331B0132332D
:10120400B3FBF2F303EB0113836010BDFFF794FF0C
:10121400E8E700BF00380140F8B504460E4617461B
:101224001D462268136836EA030301D1002014E046
:101234006B1CF7D095B923680320DA6822F4D072C6
:10124400DA605A6922F001025A61202384F83D30A1
:1012540084F83E30002384F83C30F8BDFFF7B4FA3C
:10126400C01B8542DDD2E6E710B5044640B390F8D2
:101274003D3003F0FF021BB980F83C20FFF7F8F97A
:101284002423226884F83D30D368204623F4005395
:10129400D360FFF787FF236800201A6922F4904285
:1012A4001A615A6922F02A025A61DA6842F4005239
:1012B400DA602023206484F83D3084F83E3010BD89
:1012C4000120FCE72DE9F843994690F83D300446A7
:1012D400202B0E46174648D1002944D0002A42D07C
:1012E40090F83C30012B40D00123002580F83C309D
:1012F4002123056480F83D30FFF766FAA368804631
:10130400B3F5805FA784E78403D123690BB935461D
:101314001E46002384F83C30E38C9BB253B94B4601
:10132400424640212046FFF777FF50B9202384F836
:101334003D3007E04B46424680212046FFF76CFFD4
:1013440010B10320BDE8F88322684EB935F8023B9A
:10135400C3F308035360E18C013989B2E184DBE70C
:1013640016F8013BF6E70120ECE70220EAE77047B4
:10137400704708B50023406AC385C384FFF7F8FFAC
:1013840008BD704713B590F83E30222B49D18168CF
:10139400836AB1F5805F026833D10169002933D1D2
:1013A4005268C2F3080223F8022BC48D8362013C05
:1013B400A4B2C4851CBB0368DA6822F02002DA6098
:1013C400DA6822F48072DA605A6922F001025A6102
:1013D400202280F83E20026B012A1FD10463DA68C0
:1013E40022F01002DA601A68D20605D501941A6850
:1013F40001925B680193019B818DFFF7C2FF00207E
:1014040010E039B9016929B95268D2B21A70836AF5
:101414000133CAE7526802F07F02F7E7FFF7A6F844
:10142400EDE7022002B010BD036837B51A68044620
:1014340012F00F0FD9685D6908D195065FD58D0646
:101444005DD503B0BDE83040FFF79CBF05F0010057
:1014540001F49075054352D0D50705D5CB0542BF9D
:10146400236C43F001032364550704D518B1236C9E
:1014740043F002032364930704D518B1236C43F0AB
:1014840004032364150707D501F0200303431EBF9B
:10149400236C43F008032364236C53B3920604D5EE
:1014A4008B0602D52046FFF76DFF236820465B6953
:1014B400256C03F0400305F008051D431BD0FFF71E
:1014C4005BFE23685A69550610D55A69A06B22F051
:1014D40040025A6150B1534B4363FFF713FA40B1D2
:1014E400A06B436B03B0BDE8304018472046FFF7BC
:1014F4003FFF03B030BDFFF73BFF2564F9E7206BE6
:10150400012855D1D00653D5CD0651D500210191DE
:101514001A6801925A680192019A5A6912F04002BB
:101524002AD0A06B0268526892B2002AE1D0A58D3D
:101534009542DED9E2858269202A15D0DA6822F440
:101544008072DA605A6922F001025A615A6922F003
:1015540040025A61202284F83E202163DA6822F096
:101564001002DA60FFF7B0F9E38DA18DC91A89B2D0
:101574002046FFF706FFBCE7E18D88B2E18D89B212
:101584000029B6D0A18D091A89B20029B1D0D86832
:1015940020F49070D860586920F001005861202030
:1015A40084F83E002263DA6822F01002DA60DFE792
:1015B400100626D50D0624D594F83D20212A98D16D
:1015C400A168226AB1F5805F16D12169A1B932F808
:1015D400021BC1F3080159602262E28C013A92B203
:1015E400E284002A85D1DA6822F08002DA60DA68BF
:1015F40042F04002DA607CE7511C216212785A60A2
:10160400EBE750067FF575AF4A067FF572AFDA68EF
:10161400204622F04002DA60202384F83D30FFF7B0
:10162400A6FE66E777130008C285828581620346B9
:1016340022220020186483F83C0083F83E201B68B3
:10164400DA6842F48072DA605A6942F001025A613F
:10165400DA6842F02002DA60704770B490F83E60B5
:10166400202E10D161B15AB190F83C40012C0AD01F
:10167400012480F83C400024046370BCFFF7D4BF0D
:10168400012070BC70470220FBE7000070B5002603
:101694000C4D0D4C641BA410A64209D100F022F895
:1016A40000260A4D0A4C641BA410A64205D170BD45
:1016B40055F8043B98470136EEE755F8043B984744
:1016C4000136F2E75C1700085C1700085C17000895
:1016D4006017000803460244934200D1704703F8A0
:1016E400011BF9E7F8B500BFF8BC08BC9E4670477B
:0C16F400F8B500BFF8BC08BC9E4670476B
:101700004C454430206973204F6E0D004C454430E9
:10171000206973204F66660D004C45443120697383
:10172000204F6E0D004C454431206973204F666692
:101730000D00000000000000000001020304060785
:101740000809000000000102030402030405060763
:0C17500008090A0B0C0D0E0F1010000011
:04175C000902000876
:04176000E501000897
:0C1764000024F400010000001000000050
:04000005080006FDEC
:00000001FF
