:020000040800F2
:1000000000C0002005080008790400087F040008EB
:10001000850400088B04000891040008000000001B
:10002000000000000000000000000000970400082D
:10003000A304000800000000AF040008BB0400088F
:100040004D0800084D0800084D0800084D0800083C
:100050004D0800084D0800084D0800084D0800082C
:100060004D0800084D0800084D0800084D0800081C
:100070004D0800084D0800084D0800084D0800080C
:100080004D0800084D0800084D0800084D080008FC
:100090004D0800084D0800084D080008C704000876
:1000A0004D0800084D0800084D0800084D080008DC
:1000B0004D0800084D0800084D0800084D080008CC
:1000C0004D0800084D0800084D0800084D080008BC
:1000D0004D080008D50400084D0800084D08000828
:1000E000F50400084D0800084D0800084D080008F8
:1000F0004D0800084D0800084D0800084D0800088C
:100100004D0800084D0800084D0800084D0800087B
:100110004D0800084D0800084D0800084D0800086B
:100120004D0800084D0800084D0800084D0800085B
:1001300000000000000000000000000000000000BF
:1001400000000000000000000000000000000000AF
:10015000000000000000000000000000000000009F
:10016000000000000000000000000000000000008F
:10017000000000000000000000000000000000007F
:10018000000000000000000000000000000000006F
:10019000000000000000000000000000000000005F
:1001A000000000000000000000000000000000004F
:1001B000000000000000000000000000000000003F
:1001C000000000000000000000000000000000002F
:1001D000000000000000000000000000000000001F
:0401E0005FF8E0F1F3
:1001E40010B5054C237833B9044B13B10448AFF36D
:1001F40000800123237010BD0C00002000000000CB
:10020400E024000808B5034B1BB103490348AFF3CE
:10021400008008BD0000000010000020E024000859
:1002240010F8012B11F8013B012A28BF9A42F7D09C
:10023400D01A704780B588B000AF07F110030022D0
:100244001A605A609A60DA603C4B9B693B4A43F0FF
:1002540020039361394B9B6903F02003FB60FB6827
:10026400364B9B69354A43F010039361334B9B69CA
:1002740003F01003BB60BB68304B9B692F4A43F00B
:10028400040393612D4B9B6903F004037B607B683B
:1002940000224FF480712A4800F059FF0022042103
:1002A400284800F054FF20233B61274B7B61012346
:1002B400BB6107F110031946244800F09DFD4FF47B
:1002C40080733B6101237B610023BB610223FB61DB
:1002D40007F1100319461A4800F08EFD4FF400434D
:1002E4003B61194B7B610123BB6107F11003194684
:1002F400134800F081FD04233B6101237B6100234B
:10030400BB610223FB6107F1100319460D4800F09D
:1003140073FD01220121172000F0F5FB172000F0E6
:100324000EFC02220121282000F0EDFB282000F021
:1003340006FC00BF2037BD4680BD00BF0010024050
:100344000008014000140140000021100010014089
:1003540080B500AF00F07AFA00F00EF8FFF76AFFFC
:1003640000F0D0F901220249024801F032FCFEE714
:100374002C0400204004002080B590B000AF07F1A9
:10038400180328220021184602F0A0F83B1D002281
:100394001A605A609A60DA601A610123BB614FF4F3
:1003A4008033FB6100233B620123BB6202237B6336
:1003B4004FF48033BB634FF4E013FB6307F118037E
:1003C400184600F00DFF0346002B01D000F019F889
:1003D4000F237B600223BB600023FB604FF4806328
:1003E4003B6100237B613B1D0221184601F078F933
:1003F4000346002B01D000F004F800BF4037BD468F
:1004040080BD80B400AF72B600BFFEE780B584B093
:1004140000AF164B9B69154A43F001039361134BDC
:100424009B6903F00103BB60BB68104BDB690F4A97
:1004340043F08053D3610D4BDB6903F080537B6041
:100444007B68052000F054FB094B5B68FB60FB688C
:1004540023F0E063FB60FB6843F00073FB60044A35
:10046400FB68536000BF1037BD4680BD00100240DA
:100474000000014080B400AFFEE780B400AFFEE7A7
:1004840080B400AFFEE780B400AFFEE780B400AFF5
:10049400FEE780B400AF00BFBD4680BC704780B4A7
:1004A40000AF00BFBD4680BC704780B400AF00BF42
:1004B400BD4680BC704780B500AF00F00DFA00BFA8
:1004C40080BD80B500AF202000F072FE00BF80BD6B
:1004D40080B500AF044801F0ADFB01220349024896
:1004E40001F077FB00BF80BD400400202C040020F5
:1004F40080B500AF4FF4004000F05AFE00BF80BD4D
:1005040090B593B000AF0346FB803C4B07F1380431
:100514000FCB07C423703A4B07F128040FCB07C451
:100524002380384B07F118040FCB07C42370364BD4
:1005340007F108040FCB07C42380FB88202B03D0CA
:10054400B3F5004F2AD055E02021304800F0E8FDF3
:100554000346002B4BD14FF480712D4800F00FFE61
:100564004FF4967000F0D4F94FF48071284800F0ED
:10057400D7FD0346002B08D107F138014FF0FF33B4
:100584000D22244801F093FA31E007F128014FF0DD
:10059400FF330E221F4801F08AFA28E04FF400418D
:1005A4001B4800F0BDFD0346002B22D104211A484C
:1005B40000F0E5FD4FF4967000F0AAF90421164806
:1005C40000F0AEFD0346002B08D107F118014FF0EF
:1005D400FF330D220F4801F06AFA0AE007F108011F
:1005E4004FF0FF330E220B4801F061FA01E000BF27
:1005F40000E000BF00BF4C37BD4690BDF8240008A2
:1006040008250008182500082825000800100140C6
:1006140000080140400400200014014080B582B06D
:1006240000AF78607B681B68294A93424CD1294B00
:100634001B780A2B3BD128492848FFF7F1FD0346D4
:10064400002B05D101224FF48071254800F07FFD75
:1006540024492248FFF7E4FD0346002B05D100227C
:100664004FF480711E4800F072FD1F491B48FFF7CC
:10067400D7FD0346002B04D1012204211B4800F0BE
:1006840066FD1B491548FFF7CBFD0346002B04D13B
:1006940000220421154800F05AFD4FF48062002125
:1006A4000E4801F013FF134B00221A700CE0114B9B
:1006B4001B781A46074B1978084B99540D4B1B7835
:1006C4000133DAB20B4B1A7000BF0837BD4680BD48
:1006D400003801402C0400203825000828000020A0
:1006E400000801404825000858250008001401406E
:1006F400682500082804002080B400AF00BFBD4670
:1007040080BC704780B500AF114B124A1A60104B81
:100714004FF4E1325A600E4B00229A600C4B0022D7
:10072400DA600B4B00221A61094B0C225A61084B08
:1007340000229A61064B0022DA61054801F06AF949
:100744000346002B01D0FFF75CFE00BF80BD00BF55
:10075400400400200038014080B588B000AF7860C4
:1007640007F1100300221A605A609A60DA607B680D
:100774001B68204A934239D11F4B9B691E4A43F49C
:10078400804393611C4B9B6903F48043FB60FB68CB
:10079400194B9B69184A43F004039361164B9B69F8
:1007A40003F00403BB60BB684FF400733B61022396
:1007B4007B610323FB6107F1100319460F4800F026
:1007C4001BFB4FF480633B6100237B610023BB610F
:1007D40007F110031946094800F00EFB002201211D
:1007E400252000F090F9252000F0A9F900BF20375A
:1007F400BD4680BD003801400010024000080140A1
:100804000C480D490D4A002302E0D458C450043367
:10081400C4188C42F9D30A4A0A4C002301E013603D
:100824000432A242FBD3FFF767FF01F02BFEFFF770
:100834008FFD7047000000200C000020A825000850
:100844000C00002088040020FEE7000080B500AF03
:10085400084B1B68074A43F010031360032000F0A1
:1008640047F9002000F008F8FFF7D0FD00231846F0
:1008740080BD00BF0020024080B582B000AF786028
:10088400124B1A68124B1B7819464FF47A73B3FB58
:10089400F1F3B2FBF3F3184600F05FF90346002BC3
:1008A40001D001230EE07B680F2B0AD8002279685F
:1008B4004FF0FF3000F027F9064A7B6813600023ED
:1008C40000E0012318460837BD4680BD0000002023
:1008D400080000200400002080B400AF054B1B7802
:1008E4001A46054B1B681344034A136000BFBD46F8
:1008F40080BC7047080000208404002080B400AF4E
:10090400024B1B681846BD4680BC70478404002017
:1009140080B584B000AF7860FFF7F0FFB8607B6803
:10092400FB60FB68B3F1FF3F05D00A4B1B781A4606
:10093400FB681344FB6000BFFFF7E0FF0246BB689F
:10094400D31AFA689A42F7D800BF00BF1037BD46E1
:1009540080BD00BF0800002080B485B000AF78607F
:100964007B6803F00703FB600C4BDB68BB60BA6871
:100974004FF6FF031340BB60FB681A02BB681343C6
:1009840043F0BF6343F40033BB60044ABB68D360E5
:1009940000BF1437BD4680BC704700BF00ED00E0C7
:1009A40080B400AF044BDB681B0A03F0070318464E
:1009B400BD4680BC704700BF00ED00E080B483B04A
:1009C40000AF0346FB7197F90730002B0BDBFB7973
:1009D40003F01F02064997F907305B09012000FA6A
:1009E40002F241F8232000BF0C37BD4680BC70479B
:1009F40000E100E080B483B000AF03463960FB71CE
:100A040097F90730002B0ADB3B68DAB20C4997F9F7
:100A140007301201D2B20B4483F800230AE03B688A
:100A2400DAB20849FB7903F00F03043B1201D2B296
:100A34000B441A7600BF0C37BD4680BC704700BF1C
:100A440000E100E000ED00E080B489B000AFF860A0
:100A5400B9607A60FB6803F00703FB61FB69C3F1CB
:100A64000703042B28BF0423BB61FB690433062B53
:100A740002D9FB69033B00E000237B614FF0FF32A6
:100A8400BB6902FA03F3DA43BB681A407B699A40F4
:100A94004FF0FF317B6901FA03F3D9437B680B40C4
:100AA400134318462437BD4680BC704780B582B0D6
:100AB40000AF78607B68013BB3F1807F01D30123F1
:100AC4000FE00A4A7B68013B53600F214FF0FF306F
:100AD400FFF790FF054B00229A60044B07221A602F
:100AE400002318460837BD4680BD00BF10E000E073
:100AF40080B582B000AF78607868FFF72DFF00BF43
:100B04000837BD4680BD80B586B000AF0346B960E6
:100B14007A60FB7300237B61FFF742FF78617A6898
:100B2400B9687869FFF790FF024697F90F301146CC
:100B34001846FFF75FFF00BF1837BD4680BD80B57C
:100B440082B000AF0346FB7197F907301846FFF7F0
:100B540035FF00BF0837BD4680BD80B582B000AF09
:100B640078607868FFF7A2FF034618460837BD4649
:100B740080BD80B485B000AF78600023FB737B68D0
:100B840093F82130022B08D07B6804229A637B6897
:100B9400002283F82020012320E07B681B681A6868
:100BA4007B681B6822F00E021A607B681B681A6857
:100BB4007B681B6822F001021A607B681A6C7B68F0
:100BC400DB6B012101FA02F25A607B68012283F88F
:100BD40021207B68002283F82020FB7B18461437F1
:100BE400BD4680BC7047000080B584B000AF78601B
:100BF4000023FB737B6893F82130022B05D07B68BC
:100C040004229A630123FB73D6E07B681B681A688D
:100C14007B681B6822F00E021A607B681B681A68E6
:100C24007B681B6822F001021A607B681B681A4605
:100C3400644B9A4258D97B681B68634A93424FD0ED
:100C44007B681B68614A934248D07B681B68604A92
:100C5400934240D07B681B685E4A934238D07B68DD
:100C64001B685D4A934230D07B681B685B4A9342A1
:100C740028D07B681B68534A934220D07B681B684A
:100C8400574A934219D07B681B68564A934212D044
:100C94007B681B68544A93420AD07B681B68534A9A
:100CA400934202D14FF480531BE04FF4803318E099
:100CB4004FF4807315E0102313E0012311E04FF08B
:100CC40080730EE04FF480130BE04FF4803308E0A0
:100CD4004FF4805305E04FF4807302E0102300E0EA
:100CE4000123434A536057E07B681B68364A9342AA
:100CF4004FD07B681B68354A934248D07B681B6899
:100D0400334A934240D07B681B68324A934238D0BE
:100D14007B681B68304A934230D07B681B682F4A3B
:100D2400934228D07B681B68264A934220D07B6874
:100D34001B682B4A934219D07B681B68294A93424B
:100D440012D07B681B68284A93420AD07B681B68D0
:100D5400264A934202D14FF480531BE04FF4803370
:100D640018E04FF4807315E0102313E0012311E021
:100D74004FF080730EE04FF480130BE04FF4803398
:100D840008E04FF4805305E04FF4807302E0102331
:100D940000E00123174A53607B68012283F8212075
:100DA4007B68002283F820207B685B6B002B03D0D8
:100DB4007B685B6B78689847FB7B18461037BD46A9
:100DC40080BD00BF80000240080002401C000240B9
:100DD4003000024044000240580002406C000240CF
:100DE400080402401C04024030040240440402404F
:100DF400000402400000024080B48BB000AF786071
:100E0400396000237B6200233B6279E101227B6A23
:100E140002FA03F3FB613B681B68FA691340BB6188
:100E2400BA69FB699A4240F068813B685B68A04AF2
:100E340093425ED09E4A934275D89E4A934258D0BC
:100E44009C4A93426FD89C4A934252D09A4A934206
:100E540069D89A4A93424CD0984A934263D8984AA4
:100E6400934246D0964A93425DD8122B2AD8122B2D
:100E740059D801A252F823F0F70E0008D10E000849
:100E8400E30E0008250F00082B0F00082B0F0008A5
:100E94002B0F00082B0F00082B0F00082B0F000846
:100EA4002B0F00082B0F00082B0F00082B0F000836
:100EB4002B0F00082B0F00082B0F0008D90E000879
:100EC400ED0E00087F4A934213D02CE03B68DB68A8
:100ED4003B6229E03B68DB6804333B6224E03B6807
:100EE400DB6808333B621FE03B68DB680C333B6222
:100EF4001AE03B689B68002B02D104233B6213E099
:100F04003B689B68012B05D108233B627B68FA6927
:100F14001A6109E008233B627B68FA695A6103E0BD
:100F240000233B6200E000BFBB69FF2B01D87B6854
:100F340001E07B6804337B61BB69FF2B02D87B6AC9
:100F44009B0002E07B6A083B9B003B617B691A685B
:100F54000F213B6901FA03F3DB431A40396A3B6909
:100F640001FA03F31A437B691A603B685B6803F078
:100F74008053002B00F0C180534B9B69524A43F0CD
:100F840001039361504B9B6903F00103BB60BB6891
:100F94004E4A7B6A9B08023352F82330FB607B6A1B
:100FA40003F003039B000F2202FA03F3DB43FA6806
:100FB4001340FB607B68464A93421FD07B68454AD6
:100FC400934219D07B68444A934213D07B68434AC6
:100FD40093420DD07B68424A934207D07B68414AD2
:100FE400934201D105230AE0062308E0042306E026
:100FF400032304E0022302E0012300E000237A6AD1
:1010040002F0030292009340FA681343FB602F49F5
:101014007B6A9B080233FA6841F823203B685B68CB
:1010240003F48033002B06D02F4B1A682E49BB697A
:1010340013430B6006E02C4B1A68BB69DB432A4957
:1010440013400B603B685B6803F40033002B06D04D
:10105400254B5A682449BB6913434B6006E0224B75
:101064005A68BB69DB43204913404B603B685B68AB
:1010740003F48013002B06D01B4B9A681A49BB69F2
:1010840013438B6006E0184B9A68BB69DB4316492F
:1010940013408B603B685B6803F40013002B25D07E
:1010A400114BDA681049BB691343CB6025E000BFDC
:1010B4000000321000003110000022100000211046
:1010C4000000121000001110001002400000014046
:1010D40000080140000C01400010014000140140D0
:1010E40000180140001C0140000401400B4BDA6869
:1010F400BB69DB4309491340CB607B6A01337B62E4
:101104003B681A687B6A22FA03F3002B7FF47EAEF5
:1011140000BF00BF2C37BD4680BC704700040140AF
:1011240080B485B000AF78600B467B807B689A689A
:101134007B881340002B02D00123FB7301E00023C2
:10114400FB73FB7B18461437BD4680BC704780B4E4
:1011540083B000AF78600B467B8013467B707B784E
:10116400002B03D07A887B681A6103E07B881A0419
:101174007B681A6100BF0C37BD4680BC704780B4E1
:1011840085B000AF78600B467B807B68DB68FB60D2
:101194007A88FB6813401A04FB68D9437B880B40A8
:1011A4001A437B681A6100BF1437BD4680BC704780
:1011B40080B582B000AF0346FB80084B5A69FB88B8
:1011C4001340002B06D0054AFB885361FB88184660
:1011D400FFF796F900BF0837BD4680BD0004014003
:1011E40080B586B000AF78607B68002B01D1012305
:1011F4006CE27B681B6803F00103002B00F087801E
:10120400924B5B6803F00C03042B0CD08F4B5B6890
:1012140003F00C03082B12D18C4B5B6803F480336E
:10122400B3F5803F0BD1894B1B6803F40033002BCB
:101234006CD07B685B68002B68D1012346E27B6835
:101244005B68B3F5803F06D1804B1B687F4A43F44B
:10125400803313602EE07B685B68002B0CD17B4BE2
:101264001B687A4A23F480331360784B1B68774AEF
:1012740023F4802313601DE07B685B68B3F5A02F23
:101284000CD1724B1B68714A43F4802313606F4B7B
:101294001B686E4A43F4803313600BE06B4B1B688E
:1012A4006A4A23F480331360684B1B68674A23F44B
:1012B400802313607B685B68002B13D0FFF71EFB51
:1012C400386108E0FFF71AFB02463B69D31A642B26
:1012D40001D90323FAE15D4B1B6803F40033002BAF
:1012E400F0D014E0FFF70AFB386108E0FFF706FBD3
:1012F40002463B69D31A642B01D90323E6E1534B1D
:101304001B6803F40033002BF0D100E000BF7B68BE
:101314001B6803F00203002B63D04C4B5B6803F0A3
:101324000C03002B0BD0494B5B6803F00C03082B18
:101334001CD1464B5B6803F48033002B16D1434B1E
:101344001B6803F00203002B05D07B681B69012B8B
:1013540001D00123BAE13D4B1B6823F0F8027B68FE
:101364005B69DB00394913430B603AE07B681B6916
:10137400002B20D0364B01221A60FFF7BFFA3861E8
:1013840008E0FFF7BBFA02463B69D31A022B01D9E6
:1013940003239BE12D4B1B6803F00203002BF0D0C9
:1013A4002A4B1B6823F0F8027B685B69DB00274942
:1013B40013430B6015E0264B00221A60FFF79EFAD8
:1013C400386108E0FFF79AFA02463B69D31A022B08
:1013D40001D903237AE11D4B1B6803F00203002BA0
:1013E400F0D17B681B6803F00803002B3AD07B68BC
:1013F4009B69002B19D0174B01221A60FFF77EFA64
:10140400386108E0FFF77AFA02463B69D31A022BE7
:1014140001D903235AE10D4B5B6A03F00203002B4D
:10142400F0D0012000F0D8FA1CE00A4B00221A6028
:10143400FFF764FA38610FE0FFF760FA02463B6990
:10144400D31A022B08D9032340E100BF0010024045
:1014540000004242800442429E4B5B6A03F0020356
:10146400002BE9D17B681B6803F00403002B00F018
:10147400A6800023FB75974BDB6903F08053002B98
:101484000DD1944BDB69934A43F08053D361914B64
:10149400DB6903F08053BB60BB680123FB758E4B93
:1014A4001B6803F48073002B18D18B4B1B688A4A8A
:1014B40043F480731360FFF721FA386108E0FFF703
:1014C4001DFA02463B69D31A642B01D90323FDE0BC
:1014D400814B1B6803F48073002BF0D07B68DB68BE
:1014E400012B06D17B4B1B6A7A4A43F0010313623A
:1014F4002DE07B68DB68002B0CD1764B1B6A754AA8
:1015040023F001031362734B1B6A724A23F0040332
:1015140013621CE07B68DB68052B0CD16D4B1B6AE6
:101524006C4A43F0040313626A4B1B6A694A43F032
:10153400010313620BE0674B1B6A664A23F0010345
:101544001362644B1B6A634A23F0040313627B68CF
:10155400DB68002B15D0FFF7D1F938610AE0FFF7FB
:10156400CDF902463B69D31A41F28832934201D93C
:101574000323ABE0574B1B6A03F00203002BEED0AE
:1015840014E0FFF7BBF938610AE0FFF7B7F9024648
:101594003B69D31A41F28832934201D9032395E07F
:1015A4004C4B1B6A03F00203002BEED1FB7D012B95
:1015B40005D1484BDB69474A23F08053D3617B68EC
:1015C400DB69002B00F08180424B5B6803F00C0365
:1015D400082B61D07B68DB69022B46D13F4B00228C
:1015E4001A60FFF78BF9386108E0FFF787F90246C4
:1015F4003B69D31A022B01D9032367E0354B1B68DF
:1016040003F00073002BF0D17B681B6AB3F5803FB5
:1016140008D1304B5B6823F400327B689B682D490A
:1016240013434B602B4B5B6823F474127B68196A79
:101634007B685B6A0B43274913434B60274B0122AA
:101644001A60FFF75BF9386108E0FFF757F90246C3
:101654003B69D31A022B01D9032337E01D4B1B68C6
:1016640003F00073002BF0D02FE01C4B00221A6013
:10167400FFF744F9386108E0FFF740F902463B6997
:10168400D31A022B01D9032320E0124B1B6803F069
:101694000073002BF0D118E07B68DB69012B01D1CA
:1016A400012313E00B4B5B68FB60FB6803F480329F
:1016B4007B681B6A9A4206D1FB6803F470127B684C
:1016C4005B6A9A4201D0012300E0002318461837D0
:1016D400BD4680BD001002400070004060004242E0
:1016E40080B584B000AF786039607B68002B01D18D
:1016F4000123D0E06A4B1B6803F007033A689A425F
:1017040010D9674B1B6823F0070265493B681343F4
:101714000B60634B1B6803F007033A689A4201D0DD
:101724000123B8E07B681B6803F00203002B20D080
:101734007B681B6803F00403002B05D0594B5B68DE
:10174400584A43F4E06353607B681B6803F0080362
:10175400002B05D0534B5B68524A43F460535360EB
:10176400504B5B6823F0F0027B689B684D49134340
:101774004B607B681B6803F00103002B40D07B683F
:101784005B68012B07D1474B1B6803F40033002B24
:1017940015D101237FE07B685B68022B07D1414BA5
:1017A4001B6803F00073002B09D1012373E03D4B48
:1017B4001B6803F00203002B01D101236BE0394BBA
:1017C4005B6823F003027B685B68364913434B6014
:1017D400FFF794F8F8600AE0FFF790F80246FB6818
:1017E400D31A41F28832934201D9032353E02D4B9B
:1017F4005B6803F00C027B685B689B009A42EBD148
:10180400274B1B6803F007033A689A4210D2244B13
:101814001B6823F0070222493B6813430B60204BEB
:101824001B6803F007033A689A4201D0012332E0AF
:101834007B681B6803F00403002B08D0194B5B681A
:1018440023F4E0627B68DB68164913434B607B68D2
:101854001B6803F00803002B09D0124B5B6823F4C8
:1018640060527B681B69DB000E4913434B6000F038
:1018740021F802460B4B5B681B0903F00F030A496E
:10188400CB5C22FA03F3094A1360094B1B68184620
:10189400FEF7F2FF002318461037BD4680BD00BF97
:1018A40000200240001002408825000800000020AB
:1018B4000400002090B48AB000AF2A4B3C1D0FCB2B
:1018C40084E80F0040F201233B800023FB610023E6
:1018D400BB6100237B6200237B6100233B62224BBC
:1018E4005B68FB61FB6903F00C03042B02D0082B3B
:1018F40003D02DE01D4B3B622DE0FB699B0C03F0F4
:101904000F0307F12802134413F8243C7B61FB699D
:1019140003F48033002B13D0134B5B685B0C03F090
:10192400010307F12802134413F8283CBB617B69C7
:101934000E4A02FB03F2BB69B2FBF3F37B6204E0E1
:101944007B690B4A02FB03F37B627B6A3B6202E026
:10195400064B3B6200BF3B6A18462837BD4690BC25
:10196400704700BF782500080010024000127A007A
:1019740000093D0080B400AF024B1B681846BD4609
:1019840080BC70470000002080B500AFFFF7F2FF75
:101994000246054B5B681B0A03F007030349CB5C53
:1019A40022FA03F3184680BD00100240982500086F
:1019B40080B500AFFFF7DEFF0246054B5B68DB0A2C
:1019C40003F007030349CB5C22FA03F3184680BDF6
:1019D400001002409825000880B485B000AF7860FC
:1019E4000A4B1B680A4AA2FB03235B0A7A6802FBC0
:1019F40003F3FB6000BFFB685A1EFA60002BF9D1A9
:101A040000BF00BF1437BD4680BC704700000020F3
:101A1400D34D621080B582B000AF78607B68002B34
:101A240001D101233FE07B6893F83D30DBB2002B0A
:101A340006D17B68002283F83C207868FEF78CFE90
:101A44007B68242283F83D207B681B68DA687B6806
:101A54001B6822F40052DA60786800F085FC7B6829
:101A64001B681A697B681B6822F490421A617B68C0
:101A74001B685A697B681B6822F02A025A617B68DA
:101A84001B68DA687B681B6842F40052DA607B6882
:101A940000221A647B68202283F83D207B68202280
:101AA40083F83E20002318460837BD4680BD80B524
:101AB4008AB002AFF860B9603B601346FB80002334
:101AC4007B61FB6893F83D30DBB2202B7CD1BB6893
:101AD400002B02D0FB88002B01D1012375E0FB68A9
:101AE40093F83C30012B01D102236EE0FB68012204
:101AF40083F83C20FB6800221A64FB68212283F8E7
:101B04003D20FEF7FBFE7861FB68FA889A84FB6847
:101B1400FA88DA84FB689B68B3F5805F08D1FB68B8
:101B24001B69002B04D10023FB61BB68BB6103E08C
:101B3400BB68FB610023BB61FB68002283F83C2087
:101B44002AE03B6800937B6900228021F86800F05A
:101B540038FA0346002B01D0032336E0FB69002B3F
:101B64000BD1BB691B881A46FB681B68C2F30802C9
:101B74005A60BB690233BB6107E0FB691A78FB68F2
:101B84001B685A60FB690133FB61FB68DB8C9BB209
:101B9400013B9AB2FB68DA84FB68DB8C9BB2002BB6
:101BA400CFD13B6800937B6900224021F86800F0A4
:101BB40008FA0346002B01D0032306E0FB68202229
:101BC40083F83D20002300E0022318462037BD4659
:101BD40080BD80B584B000AFF860B9601346FB8067
:101BE400FB6893F83E30DBB2202B1DD1BB68002B81
:101BF40002D0FB88002B01D1012316E0FB6893F887
:101C04003C30012B01D102230FE0FB68012283F851
:101C14003C20FB6800221A63FB881A46B968F868FE
:101C240000F019FA034600E0022318461037BD46B7
:101C340080BD000080B58AB000AF78607B681B6807
:101C44001B687B627B681B68DB683B627B681B6884
:101C54005B69FB610023BB6100237B617B6A03F04A
:101C64000F03BB61BB69002B0DD17B6A03F020031A
:101C7400002B08D03B6A03F02003002B03D07868C4
:101C840000F0C9FA7BE1BB69002B00F0B180FB696D
:101C940003F00103002B05D13B6A03F49073002B7E
:101CA40000F0A6807B6A03F00103002B0AD03B6A94
:101CB40003F48073002B05D07B681B6C43F0010296
:101CC4007B681A647B6A03F00403002B0AD0FB6967
:101CD40003F00103002B05D07B681B6C43F0020268
:101CE4007B681A647B6A03F00203002B0AD0FB6949
:101CF40003F00103002B05D07B681B6C43F0040246
:101D04007B681A647B6A03F00803002B0FD03B6ADC
:101D140003F02003002B04D1FB6903F00103002B23
:101D240005D07B681B6C43F008027B681A647B68EF
:101D34001B6C002B00F01E817B6A03F02003002B38
:101D440007D03B6A03F02003002B02D0786800F030
:101D540062FA7B681B685B6903F04003002B14BFC5
:101D640001230023DBB27B617B681B6C03F0080357
:101D7400002B02D17B69002B31D0786800F0A4F9E4
:101D84007B681B685B6903F04003002B23D07B68EE
:101D94001B685A697B681B6822F040025A617B68A1
:101DA4009B6B002B13D07B689B6B764A5A637B68D2
:101DB4009B6B1846FEF718FF0346002B16D07B6872
:101DC4009B6B5B6B7A68926B104698470EE0786861
:101DD40000F0E3F80AE0786800F0DFF806E07868DD
:101DE40000F0DBF87B6800221A64C3E000BFC1E0A6
:101DF4007B681B6B012B40F0A1807B6A03F010030E
:101E0400002B00F09B803B6A03F01003002B00F0D2
:101E140095800023FB607B681B681B68FB607B6804
:101E24001B685B68FB60FB687B681B685B6903F08D
:101E34004003002B4ED07B689B6B1B685B683B8226
:101E44003B8A002B00F098807B689B8D3A8A9A42EB
:101E540080F092807B683A8ADA857B689B6B9B6909
:101E6400202B2BD07B681B68DA687B681B6822F404
:101E74008072DA607B681B685A697B681B6822F091
:101E840001025A617B681B685A697B681B6822F0EF
:101E940040025A617B68202283F83E207B6800223E
:101EA4001A637B681B68DA687B681B6822F010027F
:101EB400DA607B689B6B1846FEF75BFE7B689A8D45
:101EC4007B68DB8D9BB2D31A9BB21946786800F00D
:101ED4006DF851E07B689A8D7B68DB8D9BB2D31AD9
:101EE4007B827B68DB8D9BB2002B47D07B8A002BE7
:101EF40044D07B681B68DA687B681B6822F49072A4
:101F0400DA607B681B685A697B681B6822F00102EF
:101F14005A617B68202283F83E207B6800221A6382
:101F24007B681B68DA687B681B6822F01002DA6041
:101F34007B8A1946786800F039F81FE07B6A03F061
:101F44008003002B08D03B6A03F08003002B03D0EE
:101F5400786800F0F9F812E07B6A03F04003002B84
:101F64000DD03B6A03F04003002B08D0786800F0E2
:101F74003AF904E000BF02E000BF00E000BF2837E8
:101F8400BD4680BD2521000880B483B000AF7860D1
:101F940000BF0C37BD4680BC704780B483B000AF2F
:101FA400786000BF0C37BD4680BC704780B483B0F6
:101FB40000AF78600B467B8000BF0C37BD4680BC09
:101FC400704780B584B000AFF860B9603B601346D9
:101FD400FB712CE0BB69B3F1FF3F28D0BB69002B38
:101FE40007D0FEF78BFC02463B68D31ABA699A42C3
:101FF4001DD2FB681B68DA68FB681B6822F4D07288
:10200400DA60FB681B685A69FB681B6822F00102EE
:102014005A61FB68202283F83D20FB68202283F864
:102024003E20FB68002283F83C2003230FE0FB687A
:102034001B681A68BB681340BA689A420CBF012334
:102044000023DBB21A46FB799A42C3D00023184618
:102054001037BD4680BD80B485B000AFF860B9606C
:102064001346FB80FB68BA689A62FB68FA889A8513
:10207400FB68FA88DA85FB6800221A64FB6822226E
:1020840083F83E20FB68002283F83C20FB681B6831
:10209400DA68FB681B6842F48072DA60FB681B68CC
:1020A4005A69FB681B6842F001025A61FB681B68AD
:1020B400DA68FB681B6842F02002DA6000231846E5
:1020C4001437BD4680BC704780B483B000AF7860DD
:1020D4007B681B68DA687B681B6822F49072DA609C
:1020E4007B681B685A697B681B6822F001025A618D
:1020F4007B681B6B012B07D17B681B68DA687B68E4
:102104001B6822F01002DA607B68202283F83E20EC
:102114007B6800221A6300BF0C37BD4680BC704741
:1021240080B584B000AF78607B685B6AFB60FB6855
:102134000022DA85FB680022DA84F868FFF72DFFB5
:1021440000BF1037BD4680BD80B485B000AF786055
:102154007B6893F83D30DBB2212B3ED17B689B68D2
:10216400B3F5805F14D17B681B69002B10D17B68A9
:102174001B6AFB60FB681B881A467B681B68C2F3FA
:1021840008025A607B681B6A9A1C7B681A6208E022
:102194007B681B6A591C7A6811621A787B681B6811
:1021A4005A607B68DB8C9BB2013B9BB27A68194610
:1021B400D184002B0FD17B681B68DA687B681B68AD
:1021C40022F08002DA607B681B68DA687B681B682F
:1021D40042F04002DA60002300E00223184614377C
:1021E400BD4680BC704780B582B000AF78607B6824
:1021F4001B68DA687B681B6822F04002DA607B683F
:10220400202283F83D207868FFF7BEFE002318469D
:102214000837BD4680BD80B586B000AF78607B6866
:1022240093F83E30DBB2222B40F099807B689B68A8
:10223400B3F5805F17D17B681B69002B13D1002392
:102244007B617B689B6A3B617B681B685B689BB2B4
:10225400C3F308039AB23B691A807B689B6A9A1C91
:102264007B689A6226E07B689B6A7B6100233B6102
:102274007B689B68B3F5805F07D07B689B68002B05
:102284000AD17B681B69002B06D17B681B685B68DD
:10229400DAB27B691A7008E07B681B685B68DBB2A2
:1022A40003F07F03DAB27B691A707B689B6A5A1C5D
:1022B4007B689A627B68DB8D9BB2013B9BB27A6838
:1022C4001946D185002B48D17B681B68DA687B6886
:1022D4001B6822F02002DA607B681B68DA687B687E
:1022E4001B6822F48072DA607B681B685A697B6819
:1022F4001B6822F001025A617B68202283F83E2089
:102304007B681B6B012B23D17B6800221A637B68DB
:102314001B68DA687B681B6822F01002DA607B684D
:102324001B681B6803F01003102B0AD10023FB6009
:102334007B681B681B68FB607B681B685B68FB60D1
:10234400FB687B689B8D19467868FFF72FFE02E0D7
:102354007868FEF763F9002302E0002300E002231B
:1023640018461837BD4680BD80B584B000AF78608C
:102374007B681B681B6923F440517B68DA687B68BF
:102384001B680A431A617B689A687B681B691A4355
:102394007B685B691343BB607B681B68DB6823F461
:1023A400B05323F00C037A681268B9680B43D36006
:1023B4007B681B685B6923F440717B689A697B685E
:1023C4001B680A435A617B681B682C4A934203D1F9
:1023D400FFF7EEFAF86002E0FFF7D6FAF860FA6861
:1023E40013469B0013449A001A447B685B689B0065
:1023F400B2FBF3F3224AA2FB03235B091901FA6837
:1024040013469B0013449A001A447B685B689B0044
:10241400B2FBF3F21A4BA3FB02035B09642000FB3B
:1024240003F3D31A1B013233154AA2FB03235B09BE
:1024340003F0F0031944FA6813469B0013449A000E
:102444001A447B685B689B00B2FBF3F20C4BA3FB62
:1024540002035B09642000FB03F3D31A1B0132332C
:10246400074AA2FB03235B0903F00F027B681B6886
:102474000A449A6000BF1037BD4680BD0038014051
:102484001F85EB5170B500260C4D0D4C641BA41038
:10249400A64209D100F022F800260A4D0A4C641B1A
:1024A400A410A64205D170BD55F8043B98470136E7
:1024B400EEE755F8043B98470136F2E7A0250008FB
:1024C400A0250008A0250008A4250008034602440E
:1024D400934200D1704703F8011BF9E7F8B500BF38
:1024E400F8BC08BC9E467047F8B500BFF8BC08BCF1
:0424F4009E46704749
:1024F8004C454430206973204F6E0D0A00000000DF
:102508004C454430206973204F66660D0A00000070
:102518004C454431206973204F6E0D0A00000000BD
:102528004C454431206973204F66660D0A0000004F
:102538005475726E206F6666204C4544300D00005D
:102548005475726E206F6E204C4544300D000000AB
:102558005475726E206F6666204C4544310D00003C
:102568005475726E206F6E204C4544310D0000008A
:1025780002030405060708090A0B0C0D0E0F1010BC
:10258800000000000000000001020304060708091B
:08259800000000000102030431
:0425A0000902000824
:0425A400E501000845
:0C25A8000024F4001000000001000000FE
:0400000508000805E2
:00000001FF
