:020000040800F2
:1000000000C0002015080008450700084B0700083D
:1000100051070008570700085D07000800000000AE
:100020000000000000000000000000006144000823
:100030006307000800000000414600086F07000841
:100040005D0800085D0800085D0800085D080008FC
:100050005D0800085D0800085D0800085D080008EC
:100060005D0800085D0800085D0800085D080008DC
:100070005D0800085D0800085D0800085D080008CC
:100080005D0800085D0800085D0800085D080008BC
:100090005D0800085D0800085D0800085D080008AC
:1000A0005D0800085D0800085D0800085D0800089C
:1000B0005D0800085D0800085D0800085D0800088C
:1000C0005D0800085D0800085D0800085D0800087C
:1000D0005D080008890700085D0800085D08000841
:1000E0005D0800085D0800085D0800085D0800085C
:1000F0005D0800085D0800085D0800085D0800084C
:100100005D0800085D0800085D0800085D0800083B
:100110005D0800085D0800085D0800085D0800082B
:100120005D0800085D0800085D0800085D0800081B
:1001300000000000000000000000000000000000BF
:1001400000000000000000000000000000000000AF
:10015000000000000000000000000000000000009F
:10016000000000000000000000000000000000008F
:10017000000000000000000000000000000000007F
:10018000000000000000000000000000000000006F
:10019000000000000000000000000000000000005F
:1001A000000000000000000000000000000000004F
:1001B000000000000000000000000000000000003F
:1001C000000000000000000000000000000000002F
:1001D000000000000000000000000000000000001F
:0401E0005FF8E0F1F3
:1001F00010B5054C237833B9044B13B10448AFF361
:1002000000800123237010BD740000200000000056
:100210001454000808B5034B1BB103490348AFF35E
:10022000008008BD00000000780000201454000881
:10023000034613F8012B002AFBD1181A0138704726
:1002400080B485B000AFF860B9607A60FB68064A98
:100250001A60BB68054A1A607B6880221A6000BF7A
:100260001437BD4680BC704790000020E400002099
:10027000B0B59EB000AF00F0F3FA00F095F800F0D2
:1002800003F900F0D7F800233B6700237B6707F1F1
:1002900070030121184602F0C2F80346374A136082
:1002A0000023BB660023FB6607F1680301211846A3
:1002B00002F0B5F80346324A136000233B66002380
:1002C0007B6607F160030121184602F0A8F8034697
:1002D0002C4A13600023BB650023FB6507F158031C
:1002E0000421184602F09BF80346274A1360274B67
:1002F00007F148040FCB84E80F0007F14803002101
:10030000184602F0CAF90346214A13600423BB636E
:100310000223FB6307F144033B6407F13803002128
:10032000184602F0E2F903461A4A13601A4B07F125
:100330001C041D460FCD0FC495E8070084E8070094
:1003400007F11C030021184602F009F80346134A7E
:100350001360134B3C461D460FCD0FC495E80700B4
:1003600084E807003B460021184601F0F8FF0346E9
:100370000C4A136001F0ECFFFEE700BF645200205E
:1003800060520020BC520020B052002044540008AB
:10039000B4520020AC520020545400085C5200209B
:1003A00070540008B852002080B590B000AF07F13B
:1003B000180328220021184604F0F8FB3B1D0022F8
:1003C0001A605A609A60DA601A610123BB614FF4C7
:1003D0008033FB6100233B620123BB6202237B630A
:1003E0004FF48033BB634FF4E013FB6307F1180352
:1003F000184600F093FE0346002B01D000F010F9E0
:100400000F237B600223BB600023FB604FF48063FB
:100410003B6100237B613B1D0221184601F0FEF881
:100420000346002B01D000F0FBF800BF4037BD466B
:1004300080BD000080B500AF114B124A1A60104B0E
:100440004FF4E1325A600E4B00229A600C4B0022AE
:10045000DA600B4B00221A61094B0C225A61084BDF
:1004600000229A61064B0022DA61054801F070FA19
:100470000346002B01D000F0D3F800BF80BD00BFC1
:10048000685200200038014080B586B000AF07F107
:10049000080300221A605A609A60DA60214B9B6957
:1004A000204A43F0200393611E4B9B6903F0200315
:1004B0007B607B681B4B9B691A4A43F00403936182
:1004C000184B9B6903F004033B603B6800224FF428
:1004D0008071154800F00AFE00220421134800F044
:1004E00005FE4FF48073BB600123FB6000233B617A
:1004F00002237B6107F1080319460B4800F062FCF8
:100500000423BB600123FB6000233B6102237B616A
:1005100007F108031946054800F054FC00BF1837DE
:10052000BD4680BD0010024000080140001401409B
:1005300080B58AB000AF786000237B627B6A0133AC
:100540007B62174B1B684FF0FF31184602F025F90C
:1005500038627B6A9AB23B6A1A80114B1B68396A0F
:10056000184602F02FF93B6A1B881A4607F10C0364
:100570000C49184604F022FB07F10C031846FFF75C
:1005800057FE03469AB207F10C014FF0FF330648BD
:1005900001F02BFA4FF47A7001F02DFFCEE700BF87
:1005A000AC5200208C5400086852002080B58CB0FA
:1005B00000AF786042F2107001F01DFF154B196812
:1005C00007F120034FF0FF32184602F039F93B6A79
:1005D000202BF3D17B6AFB62FB6A1B881A4607F16A
:1005E0000C030D49184604F0E9FA07F10C0318460C
:1005F000FFF71EFE03469AB207F10C014FF0FF33DE
:10060000064801F0F2F9034B1B68F96A184602F03C
:100610008BF9D3E7AC520020A454000868520020A4
:1006200080B400AF72B600BFFEE7000080B584B0B2
:1006300000AF184B9B69174A43F001039361154BB8
:100640009B6903F00103BB60BB68124BDB69114A75
:1006500043F08053D3610F4BDB6903F080537B6021
:100660007B6800220F216FF0010000F032FA0A4B84
:100670005B68FB60FB6823F0E063FB60FB6843F0B2
:100680000073FB60044AFB68536000BF1037BD462F
:1006900080BD00BF001002400000014080B588B05E
:1006A00000AF786007F1100300221A605A609A6068
:1006B000DA607B681B68204A934239D11F4B9B69E3
:1006C0001E4A43F4804393611C4B9B6903F48043AF
:1006D000FB60FB68194B9B69184A43F00403936164
:1006E000164B9B6903F00403BB60BB684FF40073B7
:1006F0003B6102237B610323FB6107F11003194671
:100700000F4800F05FFB4FF480633B6100237B6187
:100710000023BB6107F110031946094800F052FBA2
:1007200000220121252000F0D4F9252000F0EDF968
:1007300000BF2037BD4680BD003801400010024098
:100740000008014080B400AFFEE780B400AFFEE7D0
:1007500080B400AFFEE780B400AFFEE780B400AF26
:10076000FEE780B400AF00BFBD4680BC704780B5D7
:1007700000AF00F0BBF803F00BFD0346012B01D0E6
:1007800003F082FF00BF80BD80B500AF024801F0DA
:10079000BFF900BF80BD00BF6852002080B586B0A1
:1007A00000AF7860144A154BD31A7B617B693B61BB
:1007B000134B1B68002B02D1114B124A1A60104BCD
:1007C0001A687B6813443A699A4207D204F0B6F972
:1007D00003460C221A604FF0FF3309E0084B1B68F8
:1007E000FB60074B1A687B681344054A1360FB687B
:1007F00018461837BD4680BD00C000200004000028
:10080000E4020020D852002080B400AF00BFBD46F3
:1008100080BC70470C480D490D4A002302E0D458B3
:10082000C4500433C4188C42F9D30A4A0A4C00233A
:1008300001E013600432A242FBD3FFF7E5FF04F0AE
:1008400083F9FFF715FD70470000002074000020B9
:100850002C55000874000020D4520020FEE7000050
:1008600080B500AF084B1B68074A43F010031360C4
:10087000032000F023F90F2000F008F8FFF7D6FE60
:100880000023184680BD00BF0020024080B582B022
:1008900000AF7860124B1A68124B1B7819464FF460
:1008A0007A73B3FBF1F3B2FBF3F3184600F03BF9B4
:1008B0000346002B01D001230EE07B680F2B0AD8E2
:1008C000002279684FF0FF3000F003F9064A7B6898
:1008D0001360002300E0012318460837BD4680BDA1
:1008E00000000020080000200400002080B400AFB9
:1008F000054B1B781A46054B1B681344034A1360CB
:1009000000BFBD4680BC704708000020C0520020D8
:1009100080B400AF024B1B681846BD4680BC7047D0
:10092000C052002080B485B000AF78607B6803F0CF
:100930000703FB600C4BDB68BB60BA684FF6FF0334
:100940001340BB60FB681A02BB68134343F0BF63EC
:1009500043F40033BB60044ABB68D36000BF143764
:10096000BD4680BC704700BF00ED00E080B400AF22
:10097000044BDB681B0A03F007031846BD4680BC26
:10098000704700BF00ED00E080B483B000AF0346C5
:10099000FB7197F90730002B0BDBFB7903F01F028B
:1009A000064997F907305B09012000FA02F241F885
:1009B000232000BF0C37BD4680BC704700E100E03B
:1009C00080B483B000AF03463960FB7197F90730FC
:1009D000002B0ADB3B68DAB20C4997F907301201A9
:1009E000D2B20B4483F800230AE03B68DAB208492C
:1009F000FB7903F00F03043B1201D2B20B441A76C9
:100A000000BF0C37BD4680BC704700BF00E100E06E
:100A100000ED00E080B489B000AFF860B9607A60A2
:100A2000FB6803F00703FB61FB69C3F10703042BB9
:100A300028BF0423BB61FB690433062B02D9FB6981
:100A4000033B00E000237B614FF0FF32BB6902FAF9
:100A500003F3DA43BB681A407B699A404FF0FF31D9
:100A60007B6901FA03F3D9437B680B4013431846B3
:100A70002437BD4680BC704780B582B000AF786037
:100A80007B68013BB3F1807F01D301230FE00A4A69
:100A90007B68013B53600F214FF0FF30FFF790FF61
:100AA000054B00229A60044B07221A600023184667
:100AB0000837BD4680BD00BF10E000E080B582B0C1
:100AC00000AF78607868FFF72DFF00BF0837BD469C
:100AD00080BD80B586B000AF0346B9607A60FB7315
:100AE00000237B61FFF742FF78617A68B968786913
:100AF000FFF790FF024697F90F3011461846FFF7AF
:100B00005FFF00BF1837BD4680BD80B582B000AF23
:100B10000346FB7197F907301846FFF735FF00BF12
:100B20000837BD4680BD80B582B000AF7860786878
:100B3000FFF7A2FF034618460837BD4680BD80B4C4
:100B400085B000AF78600023FB737B6893F8213099
:100B5000022B08D07B6804229A637B68002283F80A
:100B60002020012320E07B681B681A687B681B68D3
:100B700022F00E021A607B681B681A687B681B688B
:100B800022F001021A607B681A6C7B68DB6B012122
:100B900001FA02F25A607B68012283F821207B6807
:100BA000002283F82020FB7B18461437BD4680BC0A
:100BB0007047000080B584B000AF78600023FB73FD
:100BC0007B6893F82130022B05D07B6804229A635E
:100BD0000123FB73D6E07B681B681A687B681B687F
:100BE00022F00E021A607B681B681A687B681B681B
:100BF00022F001021A607B681B681A46644B9A4215
:100C000058D97B681B68634A93424FD07B681B6846
:100C1000614A934248D07B681B68604A934240D047
:100C20007B681B685E4A934238D07B681B685D4ACC
:100C3000934230D07B681B685B4A934228D07B6824
:100C40001B68534A934220D07B681B68574A9342E3
:100C500019D07B681B68564A934212D07B681B6888
:100C6000544A93420AD07B681B68534A934202D18C
:100C70004FF480531BE04FF4803318E04FF480733F
:100C800015E0102313E0012311E04FF080730EE014
:100C90004FF480130BE04FF4803308E04FF480539F
:100CA00005E04FF4807302E0102300E00123434A83
:100CB000536057E07B681B68364A93424FD07B688D
:100CC0001B68354A934248D07B681B68334A93427D
:100CD00040D07B681B68324A934238D07B681B68DF
:100CE000304A934230D07B681B682F4A934228D009
:100CF0007B681B68264A934220D07B681B682B4A7E
:100D0000934219D07B681B68294A934212D07B68B2
:100D10001B68284A93420AD07B681B68264A934284
:100D200002D14FF480531BE04FF4803318E04FF4AE
:100D3000807315E0102313E0012311E04FF080735E
:100D40000EE04FF480130BE04FF4803308E04FF4D3
:100D5000805305E04FF4807302E0102300E001238C
:100D6000174A53607B68012283F821207B680022A8
:100D700083F820207B685B6B002B03D07B685B6B68
:100D800078689847FB7B18461037BD4680BD00BF8A
:100D900080000240080002401C0002403000024077
:100DA00044000240580002406C0002400804024027
:100DB0001C0402403004024044040240000402408B
:100DC0000000024080B48BB000AF7860396000232F
:100DD0007B6200233B6279E101227B6A02FA03F322
:100DE000FB613B681B68FA691340BB61BA69FB6928
:100DF0009A4240F068813B685B68A04A93425ED0AB
:100E00009E4A934275D89E4A934258D09C4A934238
:100E10006FD89C4A934252D09A4A934269D89A4AD0
:100E200093424CD0984A934263D8984A934246D012
:100E3000964A93425DD8122B2AD8122B59D801A278
:100E400052F823F0BF0E0008990E0008AB0E000800
:100E5000ED0E0008F30E0008F30E0008F30E000874
:100E6000F30E0008F30E0008F30E0008F30E00085E
:100E7000F30E0008F30E0008F30E0008F30E00084E
:100E8000F30E0008F30E0008A10E0008B50E0008CE
:100E90007F4A934213D02CE03B68DB683B6229E039
:100EA0003B68DB6804333B6224E03B68DB68083363
:100EB0003B621FE03B68DB680C333B621AE03B6837
:100EC0009B68002B02D104233B6213E03B689B68C4
:100ED000012B05D108233B627B68FA691A6109E09E
:100EE00008233B627B68FA695A6103E000233B6296
:100EF00000E000BFBB69FF2B01D87B6801E07B6885
:100F000004337B61BB69FF2B02D87B6A9B0002E044
:100F10007B6A083B9B003B617B691A680F213B6938
:100F200001FA03F3DB431A40396A3B6901FA03F320
:100F30001A437B691A603B685B6803F08053002B9F
:100F400000F0C180534B9B69524A43F00103936107
:100F5000504B9B6903F00103BB60BB684E4A7B6A40
:100F60009B08023352F82330FB607B6A03F00303D3
:100F70009B000F2202FA03F3DB43FA681340FB6085
:100F80007B68464A93421FD07B68454A934219D0FA
:100F90007B68444A934213D07B68434A93420DD006
:100FA0007B68424A934207D07B68414A934201D111
:100FB00005230AE0062308E0042306E0032304E0F7
:100FC000022302E0012300E000237A6A02F0030218
:100FD00092009340FA681343FB602F497B6A9B0899
:100FE0000233FA6841F823203B685B6803F48033DE
:100FF000002B06D02F4B1A682E49BB6913430B6098
:1010000006E02C4B1A68BB69DB432A4913400B608E
:101010003B685B6803F40033002B06D0254B5A680D
:101020002449BB6913434B6006E0224B5A68BB69F5
:10103000DB43204913404B603B685B6803F480133B
:10104000002B06D01B4B9A681A49BB6913438B606F
:1010500006E0184B9A68BB69DB43164913408B6066
:101060003B685B6803F40013002B25D0114BDA6852
:101070001049BB691343CB6025E000BF000032106C
:10108000000031100000221000002110000012109A
:101090000000111000100240000001400008014053
:1010A000000C0140001001400014014000180140F4
:1010B000001C0140000401400B4BDA68BB69DB43B4
:1010C00009491340CB607B6A01337B623B681A6835
:1010D0007B6A22FA03F3002B7FF47EAE00BF00BFD1
:1010E0002C37BD4680BC70470004014080B483B0FB
:1010F00000AF78600B467B8013467B707B78002BBB
:1011000003D07A887B681A6103E07B881A047B68C5
:101110001A6100BF0C37BD4680BC704780B586B0F1
:1011200000AF78607B68002B01D101236CE27B6803
:101130001B6803F00103002B00F08780924B5B6873
:1011400003F00C03042B0CD08F4B5B6803F00C03F3
:10115000082B12D18C4B5B6803F48033B3F5803FCE
:101160000BD1894B1B6803F40033002B6CD07B68D8
:101170005B68002B68D1012346E27B685B68B3F5AE
:10118000803F06D1804B1B687F4A43F48033136055
:101190002EE07B685B68002B0CD17B4B1B687A4A86
:1011A00023F480331360784B1B68774A23F4802341
:1011B00013601DE07B685B68B3F5A02F0CD1724B08
:1011C0001B68714A43F4802313606F4B1B686E4A9F
:1011D00043F4803313600BE06B4B1B686A4A23F4C3
:1011E00080331360684B1B68674A23F480231360C5
:1011F0007B685B68002B13D0FFF78AFB386108E03F
:10120000FFF786FB02463B69D31A642B01D90323FF
:10121000FAE15D4B1B6803F40033002BF0D014E0BF
:10122000FFF776FB386108E0FFF772FB02463B6987
:10123000D31A642B01D90323E6E1534B1B6803F453
:101240000033002BF0D100E000BF7B681B6803F087
:101250000203002B63D04C4B5B6803F00C03002BA4
:101260000BD0494B5B6803F00C03082B1CD1464B99
:101270005B6803F48033002B16D1434B1B6803F0EB
:101280000203002B05D07B681B69012B01D00123D1
:10129000BAE13D4B1B6823F0F8027B685B69DB0019
:1012A000394913430B603AE07B681B69002B20D05F
:1012B000364B01221A60FFF72BFB386108E0FFF77D
:1012C00027FB02463B69D31A022B01D903239BE17A
:1012D0002D4B1B6803F00203002BF0D02A4B1B6838
:1012E00023F0F8027B685B69DB00274913430B603E
:1012F00015E0264B00221A60FFF70AFB386108E070
:10130000FFF706FB02463B69D31A022B01D90323E0
:101310007AE11D4B1B6803F00203002BF0D17B68C0
:101320001B6803F00803002B3AD07B689B69002BF5
:1013300019D0174B01221A60FFF7EAFA386108E06A
:10134000FFF7E6FA02463B69D31A022B01D90323C1
:101350005AE10D4B5B6A03F00203002BF0D0012031
:1013600000F0D8FA1CE00A4B00221A60FFF7D0FA0E
:1013700038610FE0FFF7CCFA02463B69D31A022B23
:1013800008D9032340E100BF0010024000004242A0
:10139000800442429E4B5B6A03F00203002BE9D1BA
:1013A0007B681B6803F00403002B00F0A680002379
:1013B000FB75974BDB6903F08053002B0DD1944BE9
:1013C000DB69934A43F08053D361914BDB6903F0AF
:1013D0008053BB60BB680123FB758E4B1B6803F415
:1013E0008073002B18D18B4B1B688A4A43F480739F
:1013F0001360FFF78DFA386108E0FFF789FA0246BB
:101400003B69D31A642B01D90323FDE0814B1B6890
:1014100003F48073002BF0D07B68DB68012B06D1CE
:101420007B4B1B6A7A4A43F0010313622DE07B6811
:10143000DB68002B0CD1764B1B6A754A23F0010345
:101440001362734B1B6A724A23F0040313621CE09D
:101450007B68DB68052B0CD16D4B1B6A6C4A43F033
:10146000040313626A4B1B6A694A43F00103136267
:101470000BE0674B1B6A664A23F001031362644B5F
:101480001B6A634A23F0040313627B68DB68002B4A
:1014900015D0FFF73DFA38610AE0FFF739FA024646
:1014A0003B69D31A41F28832934201D90323ABE05E
:1014B000574B1B6A03F00203002BEED014E0FFF73A
:1014C00027FA38610AE0FFF723FA02463B69D31A8C
:1014D00041F28832934201D9032395E04C4B1B6AB9
:1014E00003F00203002BEED1FB7D012B05D1484B0D
:1014F000DB69474A23F08053D3617B68DB69002BAB
:1015000000F08180424B5B6803F00C03082B61D034
:101510007B68DB69022B46D13F4B00221A60FFF744
:10152000F7F9386108E0FFF7F3F902463B69D31A8F
:10153000022B01D9032367E0354B1B6803F00073CE
:10154000002BF0D17B681B6AB3F5803F08D1304B8C
:101550005B6823F400327B689B682D4913434B6022
:101560002B4B5B6823F474127B68196A7B685B6A97
:101570000B43274913434B60274B01221A60FFF7A7
:10158000C7F9386108E0FFF7C3F902463B69D31A8F
:10159000022B01D9032337E01D4B1B6803F00073B6
:1015A000002BF0D02FE01C4B00221A60FFF7B0F99F
:1015B000386108E0FFF7ACF902463B69D31A022B09
:1015C00001D9032320E0124B1B6803F00073002BAA
:1015D000F0D118E07B68DB69012B01D1012313E016
:1015E0000B4B5B68FB60FB6803F480327B681B6A13
:1015F0009A4206D1FB6803F470127B685B6A9A42D8
:1016000001D0012300E0002318461837BD4680BDF5
:1016100000100240007000406000424280B584B07B
:1016200000AF786039607B68002B01D10123D0E0E6
:101630006A4B1B6803F007033A689A4210D9674B5C
:101640001B6823F0070265493B6813430B60634B3B
:101650001B6803F007033A689A4201D00123B8E0FF
:101660007B681B6803F00203002B20D07B681B689B
:1016700003F00403002B05D0594B5B68584A43F430
:10168000E06353607B681B6803F00803002B05D000
:10169000534B5B68524A43F460535360504B5B6852
:1016A00023F0F0027B689B684D4913434B607B68D5
:1016B0001B6803F00103002B40D07B685B68012BA3
:1016C00007D1474B1B6803F40033002B15D10123CE
:1016D0007FE07B685B68022B07D1414B1B6803F0FE
:1016E0000073002B09D1012373E03D4B1B6803F00D
:1016F0000203002B01D101236BE0394B5B6823F01F
:1017000003027B685B68364913434B60FFF700F9BF
:10171000F8600AE0FFF7FCF80246FB68D31A41F2D2
:101720008832934201D9032353E02D4B5B6803F0C9
:101730000C027B685B689B009A42EBD1274B1B68CD
:1017400003F007033A689A4210D2244B1B6823F037
:10175000070222493B6813430B60204B1B6803F0D0
:1017600007033A689A4201D0012332E07B681B6884
:1017700003F00403002B08D0194B5B6823F4E062EC
:101780007B68DB68164913434B607B681B6803F07A
:101790000803002B09D0124B5B6823F460527B686E
:1017A0001B69DB000E4913434B6000F021F8024631
:1017B0000B4B5B681B0903F00F030A49CB5C22FA51
:1017C00003F3094A1360094B1B681846FFF75EF8DC
:1017D000002318461037BD4680BD00BF00200240E0
:1017E00000100240D854000800000020040000202F
:1017F00090B48AB000AF2A4B3C1D0FCB84E80F0099
:1018000040F201233B800023FB610023BB610023E6
:101810007B6200237B6100233B62224B5B68FB61A0
:10182000FB6903F00C03042B02D0082B03D02DE03E
:101830001D4B3B622DE0FB699B0C03F00F0307F18E
:101840002802134413F8243C7B61FB6903F48033C2
:10185000002B13D0134B5B685B0C03F0010307F103
:101860002802134413F8283CBB617B690E4A02FB33
:1018700003F2BB69B2FBF3F37B6204E07B690B4AC2
:1018800002FB03F37B627B6A3B6202E0064B3B6236
:1018900000BF3B6A18462837BD4690BC704700BF62
:1018A000C05400080010024000127A0000093D00F8
:1018B00080B400AF024B1B681846BD4680BC704721
:1018C0000000002080B500AFFFF7F2FF0246054B95
:1018D0005B681B0A03F007030349CB5C22FA03F39E
:1018E000184680BD00100240E854000880B500AFE3
:1018F000FFF7DEFF0246054B5B68DB0A03F00703D8
:101900000349CB5C22FA03F3184680BD0010024065
:10191000E854000880B485B000AF78600A4B1B68BB
:101920000A4AA2FB03235B0A7A6802FB03F3FB600B
:1019300000BFFB685A1EFA60002BF9D100BF00BF40
:101940001437BD4680BC704700000020D34D6210A4
:1019500080B582B000AF78607B68002B01D1012395
:101960003FE07B6893F83D30DBB2002B06D17B680B
:10197000002283F83C207868FEF790FE7B682422E2
:1019800083F83D207B681B68DA687B681B6822F45B
:101990000052DA60786800F025FC7B681B681A69E1
:1019A0007B681B6822F490421A617B681B685A6945
:1019B0007B681B6822F02A025A617B681B68DA6820
:1019C0007B681B6842F40052DA607B6800221A646C
:1019D0007B68202283F83D207B68202283F83E200C
:1019E000002318460837BD4680BD80B58AB002AFD7
:1019F000F860B9603B601346FB8000237B61FB68A5
:101A000093F83D30DBB2202B7CD1BB68002B02D099
:101A1000FB88002B01D1012375E0FB6893F83C3073
:101A2000012B01D102236EE0FB68012283F83C20E8
:101A3000FB6800221A64FB68212283F83D20FEF730
:101A400067FF7861FB68FA889A84FB68FA88DA8411
:101A5000FB689B68B3F5805F08D1FB681B69002BAE
:101A600004D10023FB61BB68BB6103E0BB68FB6181
:101A70000023BB61FB68002283F83C202AE03B681E
:101A800000937B6900228021F86800F011FA034678
:101A9000002B01D0032336E0FB69002B0BD1BB697F
:101AA0001B881A46FB681B68C2F308025A60BB69B0
:101AB0000233BB6107E0FB691A78FB681B685A6058
:101AC000FB690133FB61FB68DB8C9BB2013B9AB283
:101AD000FB68DA84FB68DB8C9BB2002BCFD13B68C0
:101AE00000937B6900224021F86800F0E1F9034689
:101AF000002B01D0032306E0FB68202283F83D2061
:101B0000002300E0022318462037BD4680BD0000B8
:101B100080B58AB000AF78607B681B681B687B6209
:101B20007B681B68DB683B627B681B685B69FB61E9
:101B30000023BB6100237B617B6A03F00F03BB6161
:101B4000BB69002B0DD17B6A03F02003002B08D06A
:101B50003B6A03F02003002B03D0786800F099FA69
:101B60007BE1BB69002B00F0B180FB6903F001034E
:101B7000002B05D13B6A03F49073002B00F0A68084
:101B80007B6A03F00103002B0AD03B6A03F48073E5
:101B9000002B05D07B681B6C43F001027B681A6444
:101BA0007B6A03F00403002B0AD0FB6903F00103F6
:101BB000002B05D07B681B6C43F002027B681A6423
:101BC0007B6A03F00203002B0AD0FB6903F00103D8
:101BD000002B05D07B681B6C43F004027B681A6401
:101BE0007B6A03F00803002B0FD03B6A03F020034D
:101BF000002B04D1FB6903F00103002B05D07B68A7
:101C00001B6C43F008027B681A647B681B6C002B1A
:101C100000F01E817B6A03F02003002B07D03B6A93
:101C200003F02003002B02D0786800F032FA7B68C2
:101C30001B685B6903F04003002B14BF01230023E2
:101C4000DBB27B617B681B6C03F00803002B02D1C5
:101C50007B69002B31D0786800F074F97B681B68D1
:101C60005B6903F04003002B23D07B681B685A6933
:101C70007B681B6822F040025A617B689B6B002BDB
:101C800013D07B689B6B764A5A637B689B6B1846C4
:101C9000FEF790FF0346002B16D07B689B6B5B6BB7
:101CA0007A68926B104698470EE0786800F0ECF87E
:101CB0000AE0786800F0E8F806E0786800F0E4F8F8
:101CC0007B6800221A64C3E000BFC1E07B681B6B25
:101CD000012B40F0A1807B6A03F01003002B00F081
:101CE0009B803B6A03F01003002B00F095800023DB
:101CF000FB607B681B681B68FB607B681B685B681C
:101D0000FB60FB687B681B685B6903F04003002B8A
:101D10004ED07B689B6B1B685B683B823B8A002BC9
:101D200000F098807B689B8D3A8A9A4280F092807E
:101D30007B683A8ADA857B689B6B9B69202B2BD06A
:101D40007B681B68DA687B681B6822F48072DA6043
:101D50007B681B685A697B681B6822F001025A6124
:101D60007B681B685A697B681B6822F040025A61D5
:101D70007B68202283F83E207B6800221A637B6800
:101D80001B68DA687B681B6822F01002DA607B68E7
:101D90009B6B1846FEF7D3FE7B689A8D7B68DB8DC4
:101DA0009BB2D31A9BB21946786800F076F851E0DE
:101DB0007B689A8D7B68DB8D9BB2D31A7B827B68B4
:101DC000DB8D9BB2002B47D07B8A002B44D07B68F5
:101DD0001B68DA687B681B6822F49072DA607B68A3
:101DE0001B685A697B681B6822F001025A617B6894
:101DF000202283F83E207B6800221A637B681B68E0
:101E0000DA687B681B6822F01002DA607B8A194668
:101E1000786800F042F81FE07B6A03F08003002B33
:101E200008D03B6A03F08003002B03D0786800F0F1
:101E3000C9F812E07B6A03F04003002B0DD03B6A27
:101E400003F04003002B08D0786800F00AF904E0A2
:101E500000BF02E000BF00E000BF2837BD4680BDE4
:101E60009D1F000880B483B000AF786000BF0C37BE
:101E7000BD4680BC704780B483B000AF786000BFBF
:101E80000C37BD4680BC704780B483B000AF78602B
:101E900000BF0C37BD4680BC704780B483B000AF34
:101EA00078600B467B8000BF0C37BD4680BC704716
:101EB00080B584B000AFF860B9603B601346FB7139
:101EC0002CE0BB69B3F1FF3F28D0BB69002B07D0E2
:101ED000FEF71EFD02463B68D31ABA699A421DD22C
:101EE000FB681B68DA68FB681B6822F4D072DA6052
:101EF000FB681B685A69FB681B6822F001025A6183
:101F0000FB68202283F83D20FB68202283F83E20D6
:101F1000FB68002283F83C2003230FE0FB681B686A
:101F20001A68BB681340BA689A420CBF01230023A9
:101F3000DBB21A46FB799A42C3D000231846103709
:101F4000BD4680BD80B483B000AF78607B681B68FD
:101F5000DA687B681B6822F49072DA607B681B6821
:101F60005A697B681B6822F001025A617B681B6B0F
:101F7000012B07D17B681B68DA687B681B6822F03D
:101F80001002DA607B68202283F83E207B68002202
:101F90001A6300BF0C37BD4680BC704780B584B063
:101FA00000AF78607B685B6AFB60FB680022DA85C3
:101FB000FB680022DA84F868FFF766FF00BF10377D
:101FC000BD4680BD80B485B000AF78607B6893F873
:101FD0003D30DBB2212B3ED17B689B68B3F5805F3F
:101FE00014D17B681B69002B10D17B681B6AFB60D6
:101FF000FB681B881A467B681B68C2F308025A609C
:102000007B681B6A9A1C7B681A6208E07B681B6A03
:10201000591C7A6811621A787B681B685A607B6861
:10202000DB8C9BB2013B9BB27A681946D184002BB2
:102030000FD17B681B68DA687B681B6822F080021E
:10204000DA607B681B68DA687B681B6842F04002D4
:10205000DA60002300E0022318461437BD4680BC36
:10206000704780B582B000AF78607B681B68DA6823
:102070007B681B6822F04002DA607B68202283F8CC
:102080003D207868FFF7EEFE002318460837BD466E
:1020900080BD80B586B000AF78607B6893F83E3035
:1020A000DBB2222B40F099807B689B68B3F5805FA0
:1020B00017D17B681B69002B13D100237B617B68E0
:1020C0009B6A3B617B681B685B689BB2C3F3080338
:1020D0009AB23B691A807B689B6A9A1C7B689A62F9
:1020E00026E07B689B6A7B6100233B617B689B6881
:1020F000B3F5805F07D07B689B68002B0AD17B68B3
:102100001B69002B06D17B681B685B68DAB27B69B0
:102110001A7008E07B681B685B68DBB203F07F0322
:10212000DAB27B691A707B689B6A5A1C7B689A6278
:102130007B68DB8D9BB2013B9BB27A681946D185E7
:10214000002B48D17B681B68DA687B681B6822F02B
:102150002002DA607B681B68DA687B681B6822F4FF
:102160008072DA607B681B685A697B681B6822F0A2
:1021700001025A617B68202283F83E207B681B6B3A
:10218000012B23D17B6800221A637B681B68DA6805
:102190007B681B6822F01002DA607B681B681B6892
:1021A00003F01003102B0AD10023FB607B681B682F
:1021B0001B68FB607B681B685B68FB60FB687B6877
:1021C0009B8D19467868FFF768FE02E07868FFF794
:1021D00052FE002302E0002300E0022318461837D5
:1021E000BD4680BD80B584B000AF78607B681B6859
:1021F0001B6923F440517B68DA687B681B680A43DB
:102200001A617B689A687B681B691A437B685B6903
:102210001343BB607B681B68DB6823F4B05323F077
:102220000C037A681268B9680B43D3607B681B683B
:102230005B6923F440717B689A697B681B680A4379
:102240005A617B681B682C4A934203D1FFF74EFB0F
:10225000F86002E0FFF736FBF860FA6813469B006F
:1022600013449A001A447B685B689B00B2FBF3F34B
:10227000224AA2FB03235B091901FA6813469B005B
:1022800013449A001A447B685B689B00B2FBF3F22C
:102290001A4BA3FB02035B09642000FB03F3D31A70
:1022A0001B013233154AA2FB03235B0903F0F00341
:1022B0001944FA6813469B0013449A001A447B6839
:1022C0005B689B00B2FBF3F20C4BA3FB02035B09C0
:1022D000642000FB03F3D31A1B013233074AA2FB2D
:1022E00003235B0903F00F027B681B680A449A60B2
:1022F00000BF1037BD4680BD003801401F85EB513F
:1023000080B485B000AF0346FB800023FB60B7F9C3
:102310000630842B05D0B7F90620FB68134403333D
:10232000FB60FB6818461437BD4680BC704780B41C
:1023300083B000AFEFF305837B607B68002B14BF95
:1023400001230023DBB218460C37BD4680BC704722
:1023500080B500AF01F016FB0023184680BDF0B534
:1023600089B004AF786039607B685B69002B20D04E
:102370007B689B69002B1CD07B685C687B681D6850
:102380007B681E697B68B3F908301846FFF7B8FF11
:1023900001467B685B697A689269029201930091B9
:1023A0003B6832462946204601F02EF90346FB6081
:1023B0001CE07B685C687B681D687B681B699EB25B
:1023C0007B68B3F908301846FFF79AFF024607F119
:1023D0000C03019300923B6832462946204601F0E7
:1023E0006FF90346012B01D0002300E0FB6818467B
:1023F0001437BD46F0BD80B584B000AF78607B680F
:10240000FB60FB68002B01D0FB6800E0012318464D
:1024100001F084FA002318461037BD4680BD80B510
:1024200086B002AF786039607B685B68002B16D09D
:102430003B68012B0AD17B685B6803220092002273
:102440000021012000F09CFB034623E03868396836
:102450007B685B681A4600F067FC03461AE03B683D
:10246000012B10D103220021012000F000FCF860B4
:10247000FB68002B05D0002300220021F86800F043
:10248000BDFCFB6806E03B683A681146184600F060
:1024900082FC034618461037BD4680BD80B586B025
:1024A00000AF78607B685B68033323F00303FB6055
:1024B000142002F06BF978617B69002B46D07B68B1
:1024C0001A687B699A60FA687B69DA607B69002226
:1024D0001A617B681B68184602F058F902467B694E
:1024E0005A607B695B68002B2BD07B681B68FA689D
:1024F00002FB03F3184602F049F902467B691A60B1
:102500007B691B68002B11D000233B6108E07B69CD
:102510005A683B69134400221A703B6901333B61DE
:102520007B681B683A699A42F1D30FE07B695B686C
:10253000184602F0EFF9786902F0ECF900237B61AC
:1025400004E0786902F0E6F900237B617B691846B4
:102550001837BD4680BD80B58AB000AF78600023D3
:102560007B6200233B62FFF7E2FE0346002B0ED0A6
:10257000EFF311824FF0500383F31188BFF36F8F95
:10258000BFF34F8F7A613B617B697B6201E001F0B1
:10259000FDFF0023FB6129E07B681A69FB69134496
:1025A0007A689268B3FBF2F102FB01F29B1ABB61FD
:1025B0007B685A68BB6913441B78002B13D17B6876
:1025C0005A68BB69134401221A707B681B6819465C
:1025D0007B68DB68BA6902FB03F30B443B627B68F0
:1025E000BA691A6107E0FB690133FB617B689B688C
:1025F000FA699A42D0D3FFF79AFE0346002B05D022
:102600007B6AFB60FB6883F3118801E001F0EEFF59
:102610003B6A18462837BD4680BD80B485B000AF00
:10262000786039607B68002B01D1802330E03B6803
:10263000002B01D180232BE07B681B683A689A420B
:1026400001D2802324E03B687A6812689B1AFB6001
:102650007B68DA68FB68B3FBF2F102FB01F29B1ABC
:10266000002B01D0802313E07B68DB68FA68B2FBA3
:10267000F3F3FB607B689B68FA689A4201D380237E
:1026800006E07B685A68FB68134400221A70002336
:1026900018461437BD4680BC704790B585B002AF70
:1026A000786039607B689B68002B11D07B68DB68A1
:1026B000002B0DD07B6818687B6859687B689A6826
:1026C0007B68DB680024009400F05AFA034608E0B7
:1026D0007B6818687B685B680022194600F0C7FABF
:1026E000034618460C37BD4690BD90B587B000AF85
:1026F000786039607B681B68FB607B685B683B6166
:1027000000237B617B689C680C2002F03FF8034645
:1027100023607B689B681B68002B01D1002338E095
:102720007B689B681B687A681A607B6818687B689E
:102730009B681C680022042100F099FA034663603C
:102740007B689B681B685B68002B07D17B689B6874
:102750001B68184602F0DEF800231AE07B689B68CD
:102760001C6807F10C031846FFF798FE0346A360A8
:102770007B689B681B689B68002B07D17B689B6804
:102780001B68184602F0C6F8002302E07B689B68CD
:102790001B6818461C37BD4690BD80B584B000AF9D
:1027A000786039607B68002B01D1002306E07B68EC
:1027B0009B681846FFF7CFFEF860FB681846103795
:1027C000BD4680BD80B584B000AF786039607B685D
:1027D000002B01D180232CE00023FB60FFF7A7FD35
:1027E0000346002B18D07B68586807F10C02394665
:1027F000002300F001FC0346012B01D0FF2318E069
:10280000FB68002B14D00D4B4FF080521A60BFF3C1
:102810004F8FBFF36F8F0BE07B68586839460023FA
:10282000002200F0EBFA0346012B01D0FF2300E069
:10283000002318461037BD4680BD00BF04ED00E000
:1028400090B58BB000AFF860B9607A60BB68FB618F
:10285000BB68002B0AD180237B61FB681C4607F113
:10286000140393E8070084E8070056E000233B6266
:1028700000237B627B68B3F1FF3F03D14FF0FF334E
:102880007B6209E07B68002B06D07B687B627B6AF9
:10289000002B01D101237B62FFF749FD0346002B8A
:1028A0001DD0BB68586807F1200207F114030433F8
:1028B000194600F019FD0346012B02D120237B614C
:1028C00001E000237B613B6A002B1ED0154B4FF0CB
:1028D00080521A60BFF34F8FBFF36F8F15E0BB6854
:1028E000586807F1140304337A6A194600F01CFC97
:1028F0000346012B02D120237B6106E07B6A002B7B
:1029000001D1002300E040237B61FB681C4607F1F6
:10291000140393E8070084E80700F8682C37BD46E5
:1029200090BD00BF04ED00E080B582B000AF7860DC
:1029300039607B68002B01D1802306E07B689B68AF
:1029400039681846FFF769FE034618460837BD4642
:1029500080BD80B483B000AF78607B6803F108026B
:102960007B685A607B684FF0FF329A607B6803F1A6
:1029700008027B68DA607B6803F108027B681A61F1
:102980007B6800221A6000BF0C37BD4680BC7047D0
:1029900080B483B000AF78607B6800221A6100BF0A
:1029A0000C37BD4680BC704780B485B000AF7860FE
:1029B00039607B685B68FB603B68FA685A60FB685B
:1029C0009A683B689A60FB689B683A685A60FB6843
:1029D0003A689A603B687A681A617B681B685A1C7F
:1029E0007B681A6000BF1437BD4680BC704780B456
:1029F00085B000AF786039603B681B68BB60BB681E
:102A0000B3F1FF3F03D17B681B69FB600CE07B687F
:102A10000833FB6002E0FB685B68FB60FB685B6897
:102A20001B68BA689A42F6D2FB685A683B685A60DB
:102A30003B685B683A689A603B68FA689A60FB6832
:102A40003A685A603B687A681A617B681B685A1C4E
:102A50007B681A6000BF1437BD4680BC704780B4E5
:102A600085B000AF78607B681B69FB607B685B6842
:102A70007A6892689A607B689B687A6852685A6044
:102A8000FB685B687A689A4203D17B689A68FB6846
:102A90005A607B6800221A61FB681B685A1EFB683B
:102AA0001A60FB681B6818461437BD4680BC704727
:102AB00080B584B000AF786039607B68FB60FB68EC
:102AC000002B0AD14FF0500383F31188BFF36F8FAF
:102AD000BFF34F8FBB6000BFFEE701F057FDFB68FF
:102AE0001A68FB68DB6BF968096C01FB03F31A4495
:102AF000FB685A60FB6800229A63FB681A68FB68EF
:102B00009A60FB681A68FB68DB6B013BF968096C2B
:102B100001FB03F31A44FB68DA60FB68FF2283F8C9
:102B20004420FB68FF2283F845203B68002B14D12A
:102B3000FB681B69002B1AD0FB681033184601F0A4
:102B400067F90346002B12D00C4B4FF080521A60ED
:102B5000BFF34F8FBFF36F8F09E0FB681033184648
:102B6000FFF7F7FEFB6824331846FFF7F2FE01F08B
:102B70003DFD012318461037BD4680BD04ED00E041
:102B800080B58EB002AFF860B9607A603B60FB68D8
:102B9000002B0AD14FF0500383F31188BFF36F8FDE
:102BA000BFF34F8FBB6200BFFEE73B68002B0AD12B
:102BB0004FF0500383F31188BFF36F8FBFF34F8F34
:102BC0007B6200BFFEE77B68002B02D0BB68002B56
:102BD00001D0012300E00023002B0AD14FF0500365
:102BE00083F31188BFF36F8FBFF34F8F3B6200BF3A
:102BF000FEE77B68002B02D1BB68002B01D10123CB
:102C000000E00023002B0AD14FF0500383F311881A
:102C1000BFF36F8FBFF34F8FFB6100BFFEE7482309
:102C20007B617B69482B0AD04FF0500383F31188F6
:102C3000BFF36F8FBFF34F8FBB6100BFFEE73B68F1
:102C4000FB62FB6A002B0DD0FB6A012283F8462051
:102C500097F83820FB6A009313467A68B968F868D9
:102C600000F043F8FB6A18463037BD4680BD80B59A
:102C70008AB002AFF860B9601346FB71FB68002BA5
:102C80000AD14FF0500383F31188BFF36F8FBFF366
:102C90004F8F3B6100BFFEE7BB68002B02D10023D2
:102CA000FB6104E0FB68BA6802FB03F3FB61FB69AC
:102CB0004833184601F06AFDB861BB69002B0FD09C
:102CC000BB6948337B61BB69002283F84620FA79EF
:102CD000BB69009313467A69B968F86800F005F893
:102CE000BB6918462037BD4680BD80B584B000AFB3
:102CF000F860B9607A60FB70BB68002B03D1BB69D8
:102D0000BA691A6002E0BB697A681A60BB69FA683E
:102D1000DA63BB69BA681A640121B869FFF7C8FEB3
:102D200000BF1037BD4680BD80B58AB002AFF860E5
:102D3000B9607A60FB68002B0AD14FF0500383F32F
:102D40001188BFF36F8FBFF34F8FBB6100BFFEE7EA
:102D5000BA68FB689A420AD94FF0500383F311888E
:102D6000BFF36F8FBFF34F8F7B6100BFFEE702237E
:102D700000937B6800220021F868FFF701FFF861EB
:102D8000FB69002B02D0FB69BA689A63FB6918469D
:102D90002037BD4680BD80B586B000AF7860396011
:102DA0007B68002B0AD14FF0500383F31188BFF3E7
:102DB0006F8FBFF34F8F3B6100BFFEE73A687B68C0
:102DC0009A420AD94FF0500383F31188BFF36F8FF3
:102DD000BFF34F8FFB6000BFFEE70222002178683F
:102DE000FFF745FF78617B69002B02D07B693A6869
:102DF0009A637B6918461837BD4680BD80B58EB092
:102E000000AFF860B9607A603B6000237B63FB68C9
:102E10003B633B6B002B0AD14FF0500383F31188C7
:102E2000BFF36F8FBFF34F8FBB6200BFFEE7BB687E
:102E3000002B03D13B6B1B6C002B01D1012300E065
:102E40000023002B0AD14FF0500383F31188BFF306
:102E50006F8FBFF34F8F7B6200BFFEE73B68022B93
:102E600003D13B6BDB6B012B01D1012300E000237D
:102E7000002B0AD14FF0500383F31188BFF36F8FFB
:102E8000BFF34F8F3B6200BFFEE701F081F90346BD
:102E9000002B02D17B68002B01D1012300E000232D
:102EA000002B0AD14FF0500383F31188BFF36F8FCB
:102EB000BFF34F8FFB6100BFFEE701F067FB3B6B89
:102EC0009A6B3B6BDB6B9A4202D33B68022B29D196
:102ED0003A68B968386B00F087FAF8623B6B5B6A56
:102EE000002B10D03B6B2433184600F091FF0346B3
:102EF000002B13D03F4B4FF080521A60BFF34F8F1F
:102F0000BFF36F8F0AE0FB6A002B07D0394B4FF0FD
:102F100080521A60BFF34F8FBFF36F8F01F066FBD3
:102F2000012363E07B68002B03D101F05FFB0023EA
:102F30005CE07B6B002B06D107F11403184600F010
:102F4000C9FF01237B6301F051FB00F07BFD01F021
:102F50001DFB3B6B93F844305BB2B3F1FF3F03D1F1
:102F60003B6B002283F844203B6B93F845305BB207
:102F7000B3F1FF3F03D13B6B002283F8452001F002
:102F800035FB3A1D07F114031146184600F0B8FF4F
:102F90000346002B24D1386B00F01EFB0346002BA8
:102FA00018D03B6B10337A681146184600F00CFFBE
:102FB000386B00F0A9FA00F053FD0346002B7FF4B4
:102FC0007CAF0C4B4FF080521A60BFF34F8FBFF3B2
:102FD0006F8F72E7386B00F097FA00F041FD6CE7F5
:102FE000386B00F091FA00F03BFD002318463837AB
:102FF000BD4680BD04ED00E080B58EB000AFF86046
:10300000B9607A603B60FB683B633B6B002B0AD185
:103010004FF0500383F31188BFF36F8FBFF34F8FCF
:103020007B6200BFFEE7BB68002B03D13B6B1B6CD0
:10303000002B01D1012300E00023002B0AD14FF027
:10304000500383F31188BFF36F8FBFF34F8F3B6241
:1030500000BFFEE73B68022B03D13B6BDB6B012B10
:1030600001D1012300E00023002B0AD14FF05003CF
:1030700083F31188BFF36F8FBFF34F8FFB6100BFE6
:10308000FEE701F045FBEFF311824FF0500383F3AD
:103090001188BFF36F8FBFF34F8FBA617B61BB693C
:1030A000FB623B6B9A6B3B6BDB6B9A4202D33B68D8
:1030B000022B2CD13B6B93F8453087F82B303A68C4
:1030C000B968386B00F090F997F92B30B3F1FF3FF6
:1030D00012D13B6B5B6A002B16D03B6B2433184636
:1030E00000F096FE0346002B0ED07B68002B0BD021
:1030F0007B6801221A6007E097F82B300133DBB2BE
:103100005AB23B6B83F8452001237B6301E0002327
:103110007B63FB6A3B613B6983F3118800BF7B6B78
:1031200018463837BD4680BD80B58CB000AFF8601A
:10313000B9607A600023FB62FB68BB62BB6A002B4C
:103140000AD14FF0500383F31188BFF36F8FBFF3A1
:103150004F8F3B6200BFFEE7BB68002B03D1BB6A09
:103160001B6C002B01D1012300E00023002B0AD1AE
:103170004FF0500383F31188BFF36F8FBFF34F8F6E
:10318000FB6100BFFEE701F003F80346002B02D10C
:103190007B68002B01D1012300E00023002B0AD122
:1031A0004FF0500383F31188BFF36F8FBFF34F8F3E
:1031B000BB6100BFFEE701F0E9F9BB6A9B6B7B6274
:1031C0007B6A002B1FD0B968B86A00F077F97B6A78
:1031D0005A1EBB6A9A63BB6A1B69002B0FD0BB6A7D
:1031E0001033184600F014FE0346002B07D03D4B69
:1031F0004FF080521A60BFF34F8FBFF36F8F01F013
:10320000F5F9012369E07B68002B03D101F0EEF9A9
:10321000002362E0FB6A002B06D107F11003184679
:1032200000F058FE0123FB6201F0E0F900F00AFC17
:1032300001F0ACF9BB6A93F844305BB2B3F1FF3FE5
:1032400003D1BB6A002283F84420BB6A93F845305F
:103250005BB2B3F1FF3F03D1BB6A002283F8452084
:1032600001F0C4F93A1D07F110031146184600F0A9
:1032700047FE0346002B23D1B86A00F097F90346B6
:10328000002B17D0BB6A24337A681146184600F029
:103290009BFDB86A00F038F900F0E2FB0346002B12
:1032A00089D1104B4FF080521A60BFF34F8FBFF39C
:1032B0006F8F80E7B86A00F027F900F0D1FB7AE75A
:1032C000B86A00F021F900F0CBFBB86A00F06EF9A3
:1032D0000346002B3FF46FAF002318463037BD463E
:1032E00080BD00BF04ED00E080B58EB000AFF86097
:1032F000B9607A60FB683B633B6B002B0AD14FF0EF
:10330000500383F31188BFF36F8FBFF34F8F3B627E
:1033100000BFFEE7BB68002B03D13B6B1B6C002B8F
:1033200001D1012300E00023002B0AD14FF050030C
:1033300083F31188BFF36F8FBFF34F8FFB6100BF23
:10334000FEE701F0E5F9EFF311824FF0500383F34C
:103350001188BFF36F8FBFF34F8FBA617B61BB6979
:10336000FB623B6B9B6BBB62BB6A002B2FD03B6B42
:1033700093F8443087F82730B968386B00F09EF82E
:10338000BB6A5A1E3B6B9A6397F92730B3F1FF3F34
:1033900012D13B6B1B69002B16D03B6B10331846C8
:1033A00000F036FD0346002B0ED07B68002B0BD0BF
:1033B0007B6801221A6007E097F827300133DBB2FF
:1033C0005AB23B6B83F8442001237B6301E0002366
:1033D0007B63FB6A3B613B6983F3118800BF7B6BB6
:1033E00018463837BD4680BD80B586B000AFF8605E
:1033F000B9607A6000237B61FB689B6B3B61FB6873
:103400001B6C002B0DD1FB681B68002B4DD1FB689A
:103410005B68184600F0DAFE7861FB6800225A60AB
:1034200043E07B68002B19D1FB689868FB681B6C34
:103430001A46B96801F0ACFBFB689A68FB681B6C24
:103440001A44FB689A60FB689A68FB685B689A425A
:103450002BD3FB681A68FB689A6026E0FB68D86883
:10346000FB681B6C1A46B96801F092FBFB68DA68CE
:10347000FB681B6C5B421A44FB68DA60FB68DA6825
:10348000FB681B689A4207D2FB685A68FB681B6C92
:103490005B421A44FB68DA607B68022B05D13B690A
:1034A000002B02D03B69013B3B613B695A1CFB6826
:1034B0009A637B6918461837BD4680BD80B582B0D7
:1034C00000AF786039607B681B6C002B18D07B687C
:1034D000DA687B681B6C1A447B68DA607B68DA68A0
:1034E0007B685B689A4203D37B681A687B68DA6002
:1034F0007B68D9687B681B6C1A46386801F048FB0A
:1035000000BF0837BD4680BD80B584B000AF78608D
:1035100001F03CF87B6893F84530FB7311E07B6861
:103520005B6A002B12D07B682433184600F070FCD5
:103530000346002B01D000F045FDFB7B013BDBB2D5
:10354000FB7397F90F30002BE9DC00E000BF7B68CC
:10355000FF2283F8452001F049F801F017F87B6855
:1035600093F84430BB7311E07B681B69002B12D0C9
:103570007B681033184600F04BFC0346002B01D04B
:1035800000F020FDBB7B013BDBB2BB7397F90E3033
:10359000002BE9DC00E000BF7B68FF2283F84420B9
:1035A00001F024F800BF1037BD4680BD80B584B05F
:1035B00000AF786000F0EAFF7B689B6B002B02D1C4
:1035C0000123FB6001E00023FB6001F00FF8FB68C2
:1035D00018461037BD4680BD80B584B000AF786016
:1035E00000F0D4FF7B689A6B7B68DB6B9A4202D158
:1035F0000123FB6001E00023FB6000F0F7FFFB68A4
:1036000018461037BD4680BD80B58EB004AFF86057
:10361000B9607A603B607B6B002B0AD14FF050039E
:1036200083F31188BFF36F8FBFF34F8F3B6200BFEF
:10363000FEE7BB6B002B0AD14FF0500383F31188D8
:10364000BFF36F8FBFF34F8FFB6100BFFEE75423C3
:103650003B613B69542B0AD04FF0500383F3118830
:10366000BFF36F8FBFF34F8FBB6100BFFEE7BB6B34
:10367000002B1ED07B6B002B1BD0BB6B7B627B6A4D
:103680007A6B1A637B6A022283F85120002303932A
:103690007B6A029307F1140301933B6B00933B6831
:1036A0007A68B968F86800F050F8786A00F0CCF8E9
:1036B00001E000237B617B6918462837BD4680BD49
:1036C00080B58CB004AFF860B9603B601346FB80F6
:1036D000FB889B00184601F059F878617B69002B44
:1036E0000ED0542001F052F8F861FB69002B03D092
:1036F000FB697A691A6305E0786901F00BF901E06A
:103700000023FB61FB69002B17D0FB69002283F8C3
:103710005120FA8800230393FB690293FB6A01930B
:10372000BB6A00933B68B968F86800F00EF8F86966
:1037300000F08AF80123BB6102E04FF0FF33BB6168
:10374000BB6918462037BD4680BD80B588B000AF44
:10375000F860B9607A603B603B6B1A6B7B6803F181
:103760008043013B9B001344BB61BB6923F007030B
:10377000BB61BB6903F00703002B0AD04FF0500375
:1037800083F31188BFF36F8FBFF34F8F7B6100BF4F
:10379000FEE70023FB6112E0BA68FB691344197865
:1037A0003A6BFB69134434330A461A70BA68FB69F2
:1037B00013441B78002B06D0FB690133FB61FB69C6
:1037C0000F2BE9D900E000BF3B6B002283F84320B8
:1037D000BB6A062B01D90623BB623B6BBA6ADA626D
:1037E0003B6BBA6A5A643B6B00229A643B6B0433AE
:1037F0001846FFF7CDF83B6B18331846FFF7C8F8AB
:103800003B6B3A6B1A61BB6AC3F107023B6B9A616F
:103810003B6B3A6B5A623B6B0022DA643B6B0022D3
:1038200083F850203A68F968B86900F0BBFD024699
:103830003B6B1A60FB6A002B02D0FB6A3A6B1A6082
:1038400000BF2037BD4680BD80B582B000AF786034
:1038500000F09CFE2A4B1B680133294A1360294B58
:103860001B68002B09D1274A7B681360244B1B6817
:10387000012B10D100F0CAFB0DE0234B1B68002B7D
:1038800009D1204B1B68DA6A7B68DB6A9A4202D84E
:103890001C4A7B6813601D4B1B6801331B4A136075
:1038A0007B68DB6A01229A40194B1B681343184A54
:1038B00013607B68DA6A13469B0013449B00154A29
:1038C0001A447B68043319461046FFF76DF800F080
:1038D0008DFE0D4B1B68002B0ED00A4B1B68DA6A5D
:1038E0007B68DB6A9A4207D20B4B4FF080521A601A
:1038F000BFF34F8FBFF36F8F00BF0837BD4680BD4A
:10390000E8030020E8020020F40300200404002063
:10391000F0030020EC02002004ED00E080B584B04C
:1039200000AF78600023FB607B68002B17D0134B3F
:103930001B68002B0AD04FF0500383F31188BFF3AC
:103940006F8FBFF34F8FBB6000BFFEE700F07AF8C8
:103950000021786800F0C0FC00F082F8F860FB6895
:10396000002B07D1064B4FF080521A60BFF34F8FE8
:10397000BFF36F8F00BF1037BD4680BD100400201D
:1039800004ED00E080B58AB004AF0023BB600023E3
:103990007B603A46391D07F108031846FCF750FCD6
:1039A00039687B68BA680292019300230093002370
:1039B0000A461E491E48FFF727FE03461D4A1360AC
:1039C0001C4B1B68002B02D001237B6101E000230C
:1039D0007B617B69012B16D14FF0500383F3118873
:1039E000BFF36F8FBFF34F8F3B6100BF124B4FF0A0
:1039F000FF321A60114B01221A60114B00221A602B
:103A000000F052FD0EE07B69B3F1FF3F0AD14FF0A9
:103A1000500383F31188BFF36F8FBFF34F8FFB60A9
:103A200000BFFEE700BF1837BD4680BDD054000878
:103A3000DD3F00080C04002008040020F4030020EF
:103A4000EC03002080B400AF044B1B680133034A31
:103A5000136000BFBD4680BC704700BF100400204B
:103A600080B584B000AF0023FB600023BB60414BF6
:103A70001B68002B0AD14FF0500383F31188BFF36A
:103A80006F8FBFF34F8F3B6000BFFEE700F07EFDFE
:103A9000384B1B68013B374A1360364B1B68002BC1
:103AA00061D1354B1B68002B5DD02EE0334BDB68BA
:103AB000DB68FB60FB6818331846FEF7D0FFFB6835
:103AC00004331846FEF7CBFFFB68DB6A01229A40FD
:103AD0002B4B1B6813432A4A1360FB68DA6A1346B0
:103AE0009B0013449B00274A1A44FB680433194681
:103AF0001046FEF759FFFB68DA6A234B1B68DB6A46
:103B00009A4202D3214B01221A601C4B1B68002BE6
:103B1000CCD1FB68002B01D000F016FB1C4B1B68BE
:103B20007B607B68002B10D000F036F80346002B3A
:103B300002D0164B01221A607B68013B7B607B68D8
:103B4000002BF1D1124B00221A60104B1B68002B86
:103B500009D00123BB600F4B4FF080521A60BFF3B6
:103B60004F8FBFF36F8F00F041FDBB6818461037D1
:103B7000BD4680BD10040020E8030020A8030020FB
:103B8000F0030020EC020020E8020020FC030020EB
:103B9000F803002004ED00E080B586B000AF0023FC
:103BA0007B61514B1B68002B40F08D804F4B1B6895
:103BB00001333B614D4A3B6913603B69002B20D1C7
:103BC0004B4B1B681B68002B0AD04FF0500383F34C
:103BD0001188BFF36F8FBFF34F8F3B6000BFFEE7CD
:103BE000434B1B68FB60434B1B68414A1360414ACF
:103BF000FB681360404B1B6801333F4A136000F0C1
:103C0000A3FA3E4B1B683A699A424DD3384B1B6866
:103C10001B68002B01D1012300E00023002B04D0FE
:103C2000364B4FF0FF321A603EE0314B1B68DB68C9
:103C3000DB68BB60BB685B687B603A697B689A4203
:103C400003D22E4A7B6813602EE0BB68043318460B
:103C5000FEF705FFBB689B6A002B04D0BB681833D6
:103C60001846FEF7FCFEBB68DB6A01229A40244B33
:103C70001B681343224A1360BB68DA6A13469B0031
:103C800013449B001F4A1A44BB680433194610466C
:103C9000FEF78AFEBB68DA6A1B4B1B68DB6A9A4236
:103CA000B4D301237B61B1E7174B1B68DA6A15496E
:103CB00013469B0013449B000B441B68012B07D940
:103CC00001237B6104E0114B1B6801330F4A136031
:103CD0000F4B1B68002B01D001237B617B691846C9
:103CE0001837BD4680BD00BF10040020EC03002043
:103CF000A0030020A40300200004002008040020EA
:103D0000F0030020EC020020E8020020F80300206D
:103D1000FC03002080B487B000AF264B1B68002B4B
:103D200003D0254B01221A603FE0234B00221A608A
:103D3000224B1B68FB60FB68B3FA83F3FB72FB7AD0
:103D4000C3F11F037B611E497A6913469B0013442C
:103D50009B000B441B68002B0AD14FF0500383F3E8
:103D60001188BFF36F8FBFF34F8F7B6000BFFEE7FB
:103D70007A6913469B0013449B00114A13443B612C
:103D80003B695B685A683B695A603B695A683B69A2
:103D900008339A4204D13B695B685A683B695A60B0
:103DA0003B695B68DB68074A136000BF1C37BD4690
:103DB00080BC704710040020FC030020F0030020AA
:103DC000EC020020E802002080B584B000AF7860EB
:103DD00039607B68002B0AD14FF0500383F31188C0
:103DE000BFF36F8FBFF34F8FFB6000BFFEE7074B42
:103DF0001B68183319467868FEF7F9FD0121386809
:103E000000F06AFA00BF1037BD4680BDE80200200E
:103E100080B586B000AF78607B68DB68DB683B61AB
:103E20003B69002B0AD14FF0500383F31188BFF395
:103E30006F8FBFF34F8FFB6000BFFEE73B69183306
:103E40001846FEF70CFE1D4B1B68002B1CD13B696E
:103E500004331846FEF703FE3B69DB6A01229A40F1
:103E6000174B1B681343164A13603B69DA6A134603
:103E70009B0013449B00134A1A443B6904331946C0
:103E80001046FEF791FD05E03B69183319460E48D0
:103E9000FEF78AFD3B69DA6A0C4B1B68DB6A9A42C3
:103EA00005D901237B610A4B01221A6001E000233E
:103EB0007B617B6918461837BD4680BD1004002021
:103EC000F0030020EC020020A8030020E8020020FC
:103ED000FC03002080B483B000AF7860064B1A6802
:103EE0007B681A60054B1A687B685A6000BF0C3704
:103EF000BD4680BC704700BF00040020EC030020DA
:103F000080B588B000AF786039607B68002B0AD13B
:103F10004FF0500383F31188BFF36F8FBFF34F8FC0
:103F20003B6100BFFEE73B68002B0AD14FF0500316
:103F300083F31188BFF36F8FBFF34F8FFB6000BF18
:103F4000FEE700F023FB1D4B1B68BB617B685B68D1
:103F5000BA69D31A7B613B681B68B3F1FF3F02D19A
:103F60000023FB6123E07B681A68154B1B689A42AB
:103F700007D07B685B68BA699A4202D30123FB6170
:103F800015E03B681B687A699A420BD23B681A6855
:103F90007B69D21A3B681A607868FFF79BFF0023A1
:103FA000FB6104E03B6800221A600123FB6100F022
:103FB0001DFBFB6918462037BD4680BDEC03002081
:103FC0000004002080B400AF034B01221A6000BF40
:103FD000BD4680BC704700BFFC03002080B582B0A6
:103FE00000AF786000F052F8064B1B68012BF9D93E
:103FF000054B4FF080521A60BFF34F8FBFF36F8FA6
:10400000F0E700BFEC02002004ED00E080B582B0D4
:1040100000AF00237B600CE07A6813469B001344DA
:104020009B00124A13441846FEF793FC7B68013349
:104030007B607B68062BEFD90D48FEF78AFC0D48A4
:10404000FEF787FC0C48FEF784FC0C48FEF781FC69
:104050000B48FEF77EFC0B4B054A1A600A4B054ADB
:104060001A6000BF0837BD4680BD00BFEC020020CB
:10407000780300208C030020A8030020BC0300204C
:10408000D4030020A0030020A403002080B582B048
:1040900000AF19E000F07AFA104BDB68DB687B6058
:1040A0007B6804331846FEF7DAFC0D4B1B68013BB6
:1040B0000B4A13600B4B1B68013B0A4A136000F06C
:1040C00095FA786800F010F8064B1B68002BE1D1D8
:1040D00000BF00BF0837BD4680BD00BFBC03002045
:1040E000E8030020D003002080B584B000AF7860E2
:1040F0007B6893F85130002B08D17B681B6B184606
:1041000000F008FC786800F005FC18E07B6893F884
:104110005130012B03D1786800F0FCFB0FE07B6885
:1041200093F85130022B0AD04FF0500383F31188DB
:10413000BFF36F8FBFF34F8FFB6000BFFEE700BF81
:104140001037BD4680BD000080B483B000AF0E4B79
:104150001B681B68002B01D1012300E00023002B0A
:1041600004D00A4B4FF0FF321A6008E0064B1B6880
:10417000DB68DB687B607B685B68044A136000BFB8
:104180000C37BD4680BC7047A00300200804002007
:1041900080B483B000AF0B4B1B68002B02D101230E
:1041A0007B6008E0084B1B68002B02D102237B6078
:1041B00001E000237B607B6818460C37BD4680BC5D
:1041C000704700BFF40300201004002080B586B0C3
:1041D00000AF78607B683B6100237B617B68002BCC
:1041E0006ED03A4B1B683A699A420AD04FF050039E
:1041F00083F31188BFF36F8FBFF34F8FFB6000BF56
:10420000FEE73B699B6C002B0AD14FF0500383F310
:104210001188BFF36F8FBFF34F8FBB6000BFFEE706
:104220003B699B6C5A1E3B699A643B69DA6A3B693D
:104230005B6C9A4244D03B699B6C002B40D13B693C
:1042400004331846FEF70BFC0346002B15D13B69DF
:10425000DA6A1F4913469B0013449B000B441B68FA
:10426000002B0AD13B69DB6A012202FA03F3DA432D
:10427000184B1B681340174A13603B695A6C3B6923
:10428000DA623B69DB6AC3F107023B699A613B6909
:10429000DB6A01229A400F4B1B6813430D4A1360DF
:1042A0003B69DA6A13469B0013449B00084A1A4490
:1042B0003B69043319461046FEF776FB01237B6108
:1042C0007B6918461837BD4680BD00BFE802002054
:1042D000EC020020F003002080B584B000AF7860CD
:1042E0003960294B1B68FB60284B1B680433184658
:1042F000FEF7B5FB0346002B0BD1244B1B68DB6A92
:10430000012202FA03F3DA43214B1B681340204ACF
:1043100013607B68B3F1FF3F0AD13B68002B07D0E5
:104320001A4B1B68043319461A48FEF73DFB26E07A
:10433000FA687B681344BB60144B1B68BA685A6008
:10434000BA68FB689A4209D2134B1A680F4B1B6874
:10435000043319461046FEF74AFB10E00F4B1A686B
:104360000A4B1B68043319461046FEF740FB0C4B02
:104370001B68BA689A4202D2094ABB68136000BF40
:104380001037BD4680BD00BFEC030020E8020020CE
:10439000F0030020D4030020A4030020A003002089
:1043A0000804002080B485B000AFF860B9607A607E
:1043B000FB68043BFB60FB684FF080721A60FB688F
:1043C000043BFB60BB6823F00102FB681A60FB68DA
:1043D000043BFB60084AFB681A60FB68143BFB6007
:1043E0007A68FB681A60FB68203BFB60FB68184634
:1043F0001437BD4680BC7047FD43000880B485B0CB
:1044000000AF00237B60124B1B68B3F1FF3F0AD063
:104410004FF0500383F31188BFF36F8FBFF34F8FBB
:10442000FB6000BFFEE74FF0500383F31188BFF33A
:104430006F8FBFF34F8FBB6000BF00BF7B68002B47
:10444000FCD000BF00BF1437BD4680BC704700BF22
:104450000C00002000000000000000000000000030
:10446000074B19680868B0E8F00F80F30988BFF3BC
:104470006F8F4FF0000080F311884EF00D0E7047E3
:10448000E802002000BF00BF06480068006880F313
:10449000088862B661B6BFF34F8FBFF36F8F00DF3E
:1044A00000BF00BF08ED00E080B584B000AF324B24
:1044B000FB60FB681B78DBB27B60FB68FF221A7035
:1044C000FB681B78DBB2FB70FB78DBB203F05003B8
:1044D000DAB22A4B1A702A4B07221A6009E0284BDD
:1044E0001B68013B264A1360FB78DBB25B00DBB242
:1044F000FB70FB78DBB203F08003802BEFD0204B06
:104500001B68C3F10703042B0AD04FF0500383F359
:104510001188BFF36F8FBFF34F8FBB6000BFFEE703
:10452000174B1B681B02164A1360154B1B6803F4DC
:10453000E063134A13607B68DAB2FB681A70114BB0
:104540001B68104A43F4700313600E4B1B680D4A3E
:1045500043F07043136000F0B9F80B4B00221A606F
:10456000FFF792FFFFF7D6FBFFF748FF002318463F
:104570001037BD4680BD00BF00E400E014040020F9
:104580001804002020ED00E00C00002080B483B06F
:1045900000AF4FF0500383F31188BFF36F8FBFF369
:1045A0004F8F7B6000BF0F4B1B6801330D4A1360B8
:1045B0000C4B1B68012B0FD10B4B1B68DBB2002B84
:1045C0000AD04FF0500383F31188BFF36F8FBFF30E
:1045D0004F8F3B6000BFFEE700BF0C37BD4680BC7D
:1045E000704700BF0C00002004ED00E080B483B0F1
:1045F00000AF114B1B68002B0AD14FF0500383F31F
:104600001188BFF36F8FBFF34F8F7B6000BFFEE752
:10461000094B1B68013B084A1360074B1B68002BC2
:1046200005D100233B603B6883F3118800BF00BFC6
:104630000C37BD4680BC70470C0000200000000015
:10464000EFF30980BFF36F8F0D4B1A6820E9F00F6D
:1046500010602DE908404FF0500080F31188FFF7FB
:1046600059FB4FF0000080F31188BDE8084019683D
:104670000868B0E8F00F80F30988BFF36F8F7047C8
:10468000E802002000BF00BF80B582B000AF4FF04D
:10469000500383F31188BFF36F8FBFF34F8F7B609D
:1046A00000BFFFF779FA0346002B03D0064B4FF00B
:1046B00080521A6000233B603B6883F3118800BF7F
:1046C00000BF0837BD4680BD04ED00E080B400AFF8
:1046D0000A4B00221A600A4B00221A60094B1B6821
:1046E000094AA2FB03239B09084A013B1360034BC1
:1046F00007221A6000BFBD4680BC704710E000E092
:1047000018E000E000000020D34D621014E000E04B
:1047100080B485B000AFEFF30583FB60FB680F2B1F
:1047200014D9164AFB6813441B78FB72144B1B7890
:10473000FA7A9A420AD24FF0500383F31188BFF3FA
:104740006F8FBFF34F8F7B6000BFFEE70D4B1B6881
:1047500003F4E0620C4B1B689A420AD94FF05003F5
:1047600083F31188BFF36F8FBFF34F8F3B6000BFA0
:10477000FEE700BF1437BD4680BC7047F0E300E0A1
:10478000140400200CED00E01804002080B58AB06D
:1047900000AF78600023FB61FFF754F9584B1B68AA
:1047A000002B01D100F010F9564B1A687B681340BA
:1047B000002B40F08E807B68002B1DD008227B6888
:1047C00013447B607B6803F00703002B14D07B68E5
:1047D00023F0070308337B607B6803F00703002B9B
:1047E0000AD04FF0500383F31188BFF36F8FBFF3EC
:1047F0004F8F7B6100BFFEE77B68002B69D0424B87
:104800001B687A689A4264D8404B3B623F4B1B68F6
:104810007B6204E07B6A3B627B6A1B687B627B6A2B
:104820005B687A689A4203D97B6A1B68002BF1D1D6
:10483000334B1B687A6A9A424BD03B6A1B6808224A
:104840001344FB617B6A1A683B6A1A607B6A5A6888
:104850007B68D21A08235B009A421FD97A6A7B6868
:104860001344BB61BB6903F00703002B0AD04FF070
:10487000500383F31188BFF36F8FBFF34F8F3B61FA
:1048800000BFFEE77B6A5A687B68D21ABB695A6030
:104890007B6A7A685A60B86900F0F8F81A4B1A68AF
:1048A0007B6A5B68D31A184A1360174B1A68184B57
:1048B0001B689A4203D2144B1B68154A13607B6A2B
:1048C0005A68104B1B681A437B6A5A607B6A002245
:1048D0001A60FFF7C5F8FB6903F00703002B0AD045
:1048E0004FF0500383F31188BFF36F8FBFF34F8FE7
:1048F000FB6000BFFEE7FB6918462837BD4680BD58
:104900004452002050520020485200203C520020C7
:104910004C52002080B586B000AF78607B687B6128
:104920007B68002B48D008235B427A6913447B6183
:104930007B693B613B695A68214B1B681340002B24
:104940000AD14FF0500383F31188BFF36F8FBFF389
:104950004F8FFB6000BFFEE73B691B68002B0AD04E
:104960004FF0500383F31188BFF36F8FBFF34F8F66
:10497000BB6000BFFEE73B695A68114B1B681340E0
:10498000002B19D03B691B68002B15D13B695A6875
:104990000B4B1B68DB431A403B695A60FFF752F828
:1049A0003B695A68074B1B681344064A1360386911
:1049B00000F06CF8FFF754F800BF1837BD4680BD13
:1049C000505200204852002080B485B000AF44F619
:1049D0002063BB60274BFB60FB6803F00703002BE1
:1049E0000CD0FB680733FB60FB6823F00703FB6018
:1049F000BA68FB68D31A1F4A1344BB60FB687B602C
:104A00001D4A7B6813601C4B00225A607B68BA68A1
:104A10001344FB600822FB689B1AFB60FB6823F0D1
:104A20000703FB60FB68154A1360144B1B680022E8
:104A30005A60124B1B6800221A607B683B603B681F
:104A4000FA68D21A3B685A600C4B1A683B681A60C5
:104A50003B685B680A4A13603B685B68094A1360FD
:104A6000094B4FF000421A6000BF1437BD4680BCAE
:104A7000704700BF1C0400203C520020445200201C
:104A80004C520020485200205052002080B485B083
:104A900000AF7860274BFB6002E0FB681B68FB609F
:104AA000FB681B687A689A42F7D8FB68BB60FB68B2
:104AB0005B68BA6813447A689A4208D1FB685A68FE
:104AC0007B685B681A44FB685A60FB687B607B68A4
:104AD000BB607B685B68BA681A44FB681B689A42D3
:104AE00018D1FB681A68144B1B689A420DD07B687A
:104AF0005A68FB681B685B681A447B685A60FB68ED
:104B00001B681A687B681A6008E00B4B1A687B68A0
:104B10001A6003E0FB681A687B681A60FA687B68B1
:104B20009A4202D0FB687A681A6000BF1437BD460B
:104B300080BC70473C52002044520020014B186852
:104B4000704700BF1000002070B500260C4D0D4CC2
:104B5000641BA410A64209D100F05CFC00260A4D9B
:104B60000A4C641BA410A64205D170BD55F8043B45
:104B700098470136EEE755F8043B98470136F2E7CF
:104B8000245500082455000824550008285500081D
:104B90000A44914200F1FF3300D1704710B511F87B
:104BA000014B914203F8014FF9D110BD0346024475
:104BB000934200D1704703F8011BF9E70EB46FF080
:104BC000004100B59CB01DAB029006900791049186
:104BD0000848094953F8042B0591006802A901937C
:104BE00000F068F80022029B1A701CB05DF804EB1C
:104BF00003B07047100000200802FFFF2DE9F047C6
:104C00008E6882469E420C4690461F4638D88A8956
:104C100012F4906F32D0256809690133A5EB0109C0
:104C200065694B4405EB450505EBD5756D109D4257
:104C300038BF1D46530531D5294600F045FB0646D1
:104C400050B90C234FF0FF30CAF80030A38943F06D
:104C50004003A381BDE8F0874A462169FFF798FF2A
:104C6000A38923F4906343F08003A38126614E441B
:104C700026603E466561A5EB0905A560BE4200D9E8
:104C80003E4632464146206800F0B8FAA3682268E2
:104C90009B1B32440020A3602260DBE72A4600F021
:104CA0006DFB06460028E1D15046216900F0C0FAAC
:104CB000C7E700002DE9F04F98468B8907461B0691
:104CC0000D4614469DB00ED50B6963B9402100F026
:104CD000FBFA2860286120B90C233B604FF0FF30BD
:104CE000D1E040236B610023099320238DF8293004
:104CF00030234FF00109CDF80C80DFF8A4818DF846
:104D00002A3023469A4613F8012B0AB1252AF9D1F5
:104D1000BAEB040B0BD05B46224629463846FFF718
:104D20006DFF013000F0AA80099A5A4409929AF85E
:104D30000030002B00F0A28000234FF0FF32CDE9BD
:104D400005230AF1010A049307938DF853301A934F
:104D50005446052214F8011B514800F041FA049A08
:104D6000D8B9D00644BF20238DF85330110744BF73
:104D70002B238DF853309AF800302A2B15D0544647
:104D800000204FF00A0C079A214611F8013B303BF6
:104D9000092B4ED9B0B1079214E0A0EB080309FA31
:104DA00003F31343A2460493D2E7039B191D1B6828
:104DB0000391002BBBBF5B4242F0020207930793B3
:104DC000B8BF049223782E2B0CD163782A2B35D1CF
:104DD000039B02341A1D1B680392002BB8BF4FF0CF
:104DE000FF330593DFF8C8A003225046217800F076
:104DF000F7F940B14023A0EB0A0003FA00F0049B4E
:104E000001340343049314F8011B062225488DF84E
:104E1000281000F0E5F9002838D0234B1BBB039B7A
:104E2000073323F0070308330393099B33440993A3
:104E300067E70C4601200CFB0232A5E700234FF088
:104E40000A0C194601340593204610F8012B303A1C
:104E5000092A03D9002BC5D00591C3E704460123D5
:104E60000CFB0121F0E703AB00932A4638460F4BB9
:104E700004A9AFF30080421C0646D6D1AB895B067D
:104E80003FF52CAF09981DB0BDE8F08F03AB009340
:104E90002A463846054B04A900F07CF8EBE700BF32
:104EA000F0540008FA54000800000000FD4B000810
:104EB000F65400082DE9F047164699468A680B69B2
:104EC00007469342B8BF1346336091F843200C461F
:104ED000DDF820800AB1013333602368990642BFB0
:104EE000336802333360256815F0060506D104F1F6
:104EF000190AE36832689B1AAB4228DC94F8432015
:104F0000131E226818BF012392062DD44946384645
:104F100004F14302C047013020D02368E56803F064
:104F20000603042B18BF002532684FF00006A36863
:104F300008BFAD1A226908BF25EAE5759342C4BFD0
:104F40009B1AED181A34B5421AD1002008E001234B
:104F5000524649463846C047013003D14FF0FF3032
:104F6000BDE8F0870135C4E73020E11881F843003F
:104F70005A1C94F845102244023382F84310C5E7C6
:104F80000123224649463846C0470130E6D0013663
:104F9000D9E700002DE9FF470C46277E9146782F80
:104FA00080469A460C9904F1430207D8622F0AD82A
:104FB000002F00F0D980582F00F0A48004F14206A1
:104FC00084F842703AE0A7F16303152BF6D801A0EC
:104FD00050F823F02D50000841500008BD4F000844
:104FE000BD4F0008BD4F0008BD4F000841500008EC
:104FF000BD4F0008BD4F0008BD4F0008BD4F000861
:105000004F5100087150000831510008BD4F000891
:10501000BD4F000871510008BD4F000871500008D5
:10502000BD4F0008BD4F0008395100080B6804F15E
:1050300042061A1D1B680A6084F842300123A4E06E
:10504000256808682E0600F104030AD505680B6080
:10505000002D03DA2D236D4284F843300A235E4885
:1050600019E015F0400F05680B6018BF2DB2EFE78F
:105070000B682568181D0860280601D51D6802E028
:105080006906FBD51D886F2F0CBF08230A235248E1
:10509000002184F843106668002EA8BF2168A6602E
:1050A000A4BF21F0040121600DB9002E4DD0164699
:1050B000B5FBF3F103FB1157C75D06F8017D2F46E1
:1050C000BB420D46F4D9082B0BD12368DF0708D566
:1050D000236961689942DEBF302306F8013C06F17E
:1050E000FF36921B22614B4621464046CDF800A078
:1050F00003AAFFF7DFFE01304CD14FF0FF3004B0C0
:10510000BDE8F087344884F845700E68236856F887
:10511000045B1F060E6014D5D90744BF43F020037B
:1051200023601DB9236823F0200323601023AFE719
:10513000236843F0200323607823284884F845300F
:10514000E3E75E0648BFADB2E6E71646BBE70B688D
:1051500026681D1D60690D6035061B6801D5186045
:1051600002E07106FBD51880002316462361BAE7DA
:105170000B681A1D0A601E6800213046626800F044
:105180002FF808B1801B606063682361002384F8F6
:105190004330A8E73246494640462369D0470130AC
:1051A000ABD023689B0713D4E068039B9842B8BF39
:1051B0001846A4E70123324649464046D04701300D
:1051C0009BD00135E36803995B1AAB42F2DCEBE755
:1051D000002504F11906F5E70155000812550008ED
:1051E000034610B5C9B202449342184601D10020CB
:1051F00003E0047801338C42F6D110BD884210B52B
:1052000001EB020402D98442234607D8431EA1427F
:1052100008D011F8012B03F8012FF8E701460244EA
:105220008A4200D110BD13F8014D02F8014DF7E795
:1052300038B50546002943D051F8043C0C1F002B1B
:10524000B8BFE41800F0D0F81E4A1368104633B90E
:10525000636014602846BDE8384000F0CBB8A34234
:105260000AD921686218934201BF1A685B68521814
:10527000226063600460EDE71A465B680BB1A342ED
:10528000FAD911685018A0420BD120680144501877
:1052900083421160DED118685B680144116053607D
:1052A000D8E702D90C232B60D4E7206821188B4261
:1052B00001BF19685B680918216063605460C9E721
:1052C00038BD00BF54520020F8B5CD1C25F00305B1
:1052D00008350C2D38BF0C25002D064601DBA942F0
:1052E00003D90C2333600020F8BD00F07DF821497C
:1052F0000A6814469CB9204F3B6823B921463046C2
:1053000000F062F838602946304600F05DF8431C32
:1053100023D10C233046336000F06CF8E3E72368B8
:105320005B1B17D40B2B03D923601C44256004E0BE
:105330006368A2420CBF0B605360304600F05AF81D
:1053400004F10B00231D20F00700C21ACCD01B1A59
:10535000A350C9E722466468CCE7C41C24F00304C8
:10536000A042E3D0211A304600F02EF80130DDD102
:10537000CFE700BF5452002058520020F8B507462E
:1053800014460E4621B91146BDE8F840FFF79CBF10
:1053900022B9FFF74DFF25462846F8BD00F030F84A
:1053A000A0420FD221463846FFF78EFF054600285F
:1053B000F2D031462246FFF7EBFB31463846FFF785
:1053C00037FFE9E73546E7E738B50023054D0446E2
:1053D00008462B60FBF7E2F9431C02D12B6803B1AE
:1053E000236038BDC4520020014800F011B800BF4E
:1053F000CC520020014800F00CB800BFCC52002075
:1054000051F8043C181F002BBCBF0B58C018704744
:1054100070477047F8B500BFF8BC08BC9E4670479F
:0C542000F8B500BFF8BC08BC9E46704701
:10542C0050726F647563657200000000436F6E7399
:10543C00756D6572000000000400000002000000A1
:10544C0000000000000000002C540008310500088A
:10545C0000000000000000008000000000000000C0
:10546C000000000038540008AD05000800000000E2
:10547C0000000000800000000000000000000000A0
:10548C00505554204D61696C2076616C75653A20DD
:10549C0025640D0A0000000052656365697665207D
:1054AC004D61696C2076616C75653A2025640D0A36
:1054BC000000000002030405060708090A0B0C0D86
:1054CC000E0F101049444C45000000000000000075
:1054DC000000000001020304060708090000000098
:1054EC0001020304232D302B2000686C4C006566F0
:1054FC006745464700303132333435363738394119
:10550C00424344454600303132333435363738392E
:08551C00616263646566000032
:045524001502000864
:04552800F101000885
:10552C000024F4001000000001000000AAAAAAAA9E
:10553C00140000200000000000000000000000002B
:10554C00000000000000000000000000000000004F
:10555C00000000000000000000000000000000003F
:10556C00000000000000000000000000000000002F
:10557C00000000000000000000000000000000001F
:10558C00000000000000000000000000000000000F
:04559C00000000000B
:0400000508000815D2
:00000001FF
